{
  "contractName": "CamoToken",
  "abi": [
    {
      "inputs": [],
      "stateMutability": "nonpayable",
      "type": "constructor"
    },
    {
      "anonymous": false,
      "inputs": [
        {
          "indexed": true,
          "internalType": "address",
          "name": "owner",
          "type": "address"
        },
        {
          "indexed": true,
          "internalType": "address",
          "name": "spender",
          "type": "address"
        },
        {
          "indexed": false,
          "internalType": "uint256",
          "name": "value",
          "type": "uint256"
        }
      ],
      "name": "Approval",
      "type": "event"
    },
    {
      "anonymous": false,
      "inputs": [
        {
          "indexed": true,
          "internalType": "address",
          "name": "previousOwner",
          "type": "address"
        },
        {
          "indexed": true,
          "internalType": "address",
          "name": "newOwner",
          "type": "address"
        }
      ],
      "name": "OwnershipTransferred",
      "type": "event"
    },
    {
      "anonymous": false,
      "inputs": [
        {
          "indexed": true,
          "internalType": "address",
          "name": "from",
          "type": "address"
        },
        {
          "indexed": true,
          "internalType": "address",
          "name": "to",
          "type": "address"
        },
        {
          "indexed": false,
          "internalType": "uint256",
          "name": "value",
          "type": "uint256"
        }
      ],
      "name": "Transfer",
      "type": "event"
    },
    {
      "inputs": [],
      "name": "MAX_SUPPLY",
      "outputs": [
        {
          "internalType": "uint256",
          "name": "",
          "type": "uint256"
        }
      ],
      "stateMutability": "view",
      "type": "function",
      "constant": true
    },
    {
      "inputs": [
        {
          "internalType": "address",
          "name": "owner",
          "type": "address"
        },
        {
          "internalType": "address",
          "name": "spender",
          "type": "address"
        }
      ],
      "name": "allowance",
      "outputs": [
        {
          "internalType": "uint256",
          "name": "",
          "type": "uint256"
        }
      ],
      "stateMutability": "view",
      "type": "function",
      "constant": true
    },
    {
      "inputs": [
        {
          "internalType": "address",
          "name": "spender",
          "type": "address"
        },
        {
          "internalType": "uint256",
          "name": "amount",
          "type": "uint256"
        }
      ],
      "name": "approve",
      "outputs": [
        {
          "internalType": "bool",
          "name": "",
          "type": "bool"
        }
      ],
      "stateMutability": "nonpayable",
      "type": "function"
    },
    {
      "inputs": [
        {
          "internalType": "address",
          "name": "account",
          "type": "address"
        }
      ],
      "name": "balanceOf",
      "outputs": [
        {
          "internalType": "uint256",
          "name": "",
          "type": "uint256"
        }
      ],
      "stateMutability": "view",
      "type": "function",
      "constant": true
    },
    {
      "inputs": [],
      "name": "decimals",
      "outputs": [
        {
          "internalType": "uint8",
          "name": "",
          "type": "uint8"
        }
      ],
      "stateMutability": "view",
      "type": "function",
      "constant": true
    },
    {
      "inputs": [
        {
          "internalType": "address",
          "name": "spender",
          "type": "address"
        },
        {
          "internalType": "uint256",
          "name": "subtractedValue",
          "type": "uint256"
        }
      ],
      "name": "decreaseAllowance",
      "outputs": [
        {
          "internalType": "bool",
          "name": "",
          "type": "bool"
        }
      ],
      "stateMutability": "nonpayable",
      "type": "function"
    },
    {
      "inputs": [
        {
          "internalType": "address",
          "name": "spender",
          "type": "address"
        },
        {
          "internalType": "uint256",
          "name": "addedValue",
          "type": "uint256"
        }
      ],
      "name": "increaseAllowance",
      "outputs": [
        {
          "internalType": "bool",
          "name": "",
          "type": "bool"
        }
      ],
      "stateMutability": "nonpayable",
      "type": "function"
    },
    {
      "inputs": [],
      "name": "name",
      "outputs": [
        {
          "internalType": "string",
          "name": "",
          "type": "string"
        }
      ],
      "stateMutability": "view",
      "type": "function",
      "constant": true
    },
    {
      "inputs": [],
      "name": "owner",
      "outputs": [
        {
          "internalType": "address",
          "name": "",
          "type": "address"
        }
      ],
      "stateMutability": "view",
      "type": "function",
      "constant": true
    },
    {
      "inputs": [],
      "name": "renounceOwnership",
      "outputs": [],
      "stateMutability": "nonpayable",
      "type": "function"
    },
    {
      "inputs": [],
      "name": "symbol",
      "outputs": [
        {
          "internalType": "string",
          "name": "",
          "type": "string"
        }
      ],
      "stateMutability": "view",
      "type": "function",
      "constant": true
    },
    {
      "inputs": [],
      "name": "totalSupply",
      "outputs": [
        {
          "internalType": "uint256",
          "name": "",
          "type": "uint256"
        }
      ],
      "stateMutability": "view",
      "type": "function",
      "constant": true
    },
    {
      "inputs": [
        {
          "internalType": "address",
          "name": "to",
          "type": "address"
        },
        {
          "internalType": "uint256",
          "name": "amount",
          "type": "uint256"
        }
      ],
      "name": "transfer",
      "outputs": [
        {
          "internalType": "bool",
          "name": "",
          "type": "bool"
        }
      ],
      "stateMutability": "nonpayable",
      "type": "function"
    },
    {
      "inputs": [
        {
          "internalType": "address",
          "name": "from",
          "type": "address"
        },
        {
          "internalType": "address",
          "name": "to",
          "type": "address"
        },
        {
          "internalType": "uint256",
          "name": "amount",
          "type": "uint256"
        }
      ],
      "name": "transferFrom",
      "outputs": [
        {
          "internalType": "bool",
          "name": "",
          "type": "bool"
        }
      ],
      "stateMutability": "nonpayable",
      "type": "function"
    },
    {
      "inputs": [
        {
          "internalType": "address",
          "name": "newOwner",
          "type": "address"
        }
      ],
      "name": "transferOwnership",
      "outputs": [],
      "stateMutability": "nonpayable",
      "type": "function"
    }
  ],
  "bytecode": "0x60806040523480156200001157600080fd5b506040518060400160405280600a81526020017f43616d6f20546f6b656e000000000000000000000000000000000000000000008152506040518060400160405280600481526020017f43414d4f0000000000000000000000000000000000000000000000000000000081525081600390816200008f9190620005ad565b508060049081620000a19190620005ad565b505050620000c4620000b8620000ee60201b60201c565b620000f660201b60201c565b60006b204fce5e3e250261100000009050620000e73382620001bc60201b60201c565b50620007af565b600033905090565b6000600560009054906101000a900473ffffffffffffffffffffffffffffffffffffffff16905081600560006101000a81548173ffffffffffffffffffffffffffffffffffffffff021916908373ffffffffffffffffffffffffffffffffffffffff1602179055508173ffffffffffffffffffffffffffffffffffffffff168173ffffffffffffffffffffffffffffffffffffffff167f8be0079c531659141344cd1fd0a4f28419497f9722a3daafe3b4186f6b6457e060405160405180910390a35050565b600073ffffffffffffffffffffffffffffffffffffffff168273ffffffffffffffffffffffffffffffffffffffff16036200022e576040517f08c379a00000000000000000000000000000000000000000000000000000000081526004016200022590620006f5565b60405180910390fd5b62000242600083836200032960201b60201c565b806002600082825462000256919062000746565b92505081905550806000808473ffffffffffffffffffffffffffffffffffffffff1673ffffffffffffffffffffffffffffffffffffffff168152602001908152602001600020600082825401925050819055508173ffffffffffffffffffffffffffffffffffffffff16600073ffffffffffffffffffffffffffffffffffffffff167fddf252ad1be2c89b69c2b068fc378daa952ba7f163c4a11628f55a4df523b3ef8360405162000309919062000792565b60405180910390a362000325600083836200032e60201b60201c565b5050565b505050565b505050565b600081519050919050565b7f4e487b7100000000000000000000000000000000000000000000000000000000600052604160045260246000fd5b7f4e487b7100000000000000000000000000000000000000000000000000000000600052602260045260246000fd5b60006002820490506001821680620003b557607f821691505b602082108103620003cb57620003ca6200036d565b5b50919050565b60008190508160005260206000209050919050565b60006020601f8301049050919050565b600082821b905092915050565b600060088302620004357fffffffffffffffffffffffffffffffffffffffffffffffffffffffffffffffff82620003f6565b620004418683620003f6565b95508019841693508086168417925050509392505050565b6000819050919050565b6000819050919050565b60006200048e62000488620004828462000459565b62000463565b62000459565b9050919050565b6000819050919050565b620004aa836200046d565b620004c2620004b98262000495565b84845462000403565b825550505050565b600090565b620004d9620004ca565b620004e68184846200049f565b505050565b5b818110156200050e5762000502600082620004cf565b600181019050620004ec565b5050565b601f8211156200055d576200052781620003d1565b6200053284620003e6565b8101602085101562000542578190505b6200055a6200055185620003e6565b830182620004eb565b50505b505050565b600082821c905092915050565b6000620005826000198460080262000562565b1980831691505092915050565b60006200059d83836200056f565b9150826002028217905092915050565b620005b88262000333565b67ffffffffffffffff811115620005d457620005d36200033e565b5b620005e082546200039c565b620005ed82828562000512565b600060209050601f83116001811462000625576000841562000610578287015190505b6200061c85826200058f565b8655506200068c565b601f1984166200063586620003d1565b60005b828110156200065f5784890151825560018201915060208501945060208101905062000638565b868310156200067f57848901516200067b601f8916826200056f565b8355505b6001600288020188555050505b505050505050565b600082825260208201905092915050565b7f45524332303a206d696e7420746f20746865207a65726f206164647265737300600082015250565b6000620006dd601f8362000694565b9150620006ea82620006a5565b602082019050919050565b600060208201905081810360008301526200071081620006ce565b9050919050565b7f4e487b7100000000000000000000000000000000000000000000000000000000600052601160045260246000fd5b6000620007538262000459565b9150620007608362000459565b92508282019050808211156200077b576200077a62000717565b5b92915050565b6200078c8162000459565b82525050565b6000602082019050620007a9600083018462000781565b92915050565b61161a80620007bf6000396000f3fe608060405234801561001057600080fd5b50600436106100f55760003560e01c806370a0823111610097578063a457c2d711610066578063a457c2d714610278578063a9059cbb146102a8578063dd62ed3e146102d8578063f2fde38b14610308576100f5565b806370a0823114610202578063715018a6146102325780638da5cb5b1461023c57806395d89b411461025a576100f5565b806323b872dd116100d357806323b872dd14610166578063313ce5671461019657806332cb6b0c146101b457806339509351146101d2576100f5565b806306fdde03146100fa578063095ea7b31461011857806318160ddd14610148575b600080fd5b610102610324565b60405161010f9190610dcf565b60405180910390f35b610132600480360381019061012d9190610e8a565b6103b6565b60405161013f9190610ee5565b60405180910390f35b6101506103d9565b60405161015d9190610f0f565b60405180910390f35b610180600480360381019061017b9190610f2a565b6103e3565b60405161018d9190610ee5565b60405180910390f35b61019e610412565b6040516101ab9190610f99565b60405180910390f35b6101bc61041b565b6040516101c99190610f0f565b60405180910390f35b6101ec60048036038101906101e79190610e8a565b61042b565b6040516101f99190610ee5565b60405180910390f35b61021c60048036038101906102179190610fb4565b610462565b6040516102299190610f0f565b60405180910390f35b61023a6104aa565b005b6102446104be565b6040516102519190610ff0565b60405180910390f35b6102626104e8565b60405161026f9190610dcf565b60405180910390f35b610292600480360381019061028d9190610e8a565b61057a565b60405161029f9190610ee5565b60405180910390f35b6102c260048036038101906102bd9190610e8a565b6105f1565b6040516102cf9190610ee5565b60405180910390f35b6102f260048036038101906102ed919061100b565b610614565b6040516102ff9190610f0f565b60405180910390f35b610322600480360381019061031d9190610fb4565b61069b565b005b6060600380546103339061107a565b80601f016020809104026020016040519081016040528092919081815260200182805461035f9061107a565b80156103ac5780601f10610381576101008083540402835291602001916103ac565b820191906000526020600020905b81548152906001019060200180831161038f57829003601f168201915b5050505050905090565b6000806103c161071e565b90506103ce818585610726565b600191505092915050565b6000600254905090565b6000806103ee61071e565b90506103fb8582856108ef565b61040685858561097b565b60019150509392505050565b60006012905090565b6b204fce5e3e2502611000000081565b60008061043661071e565b90506104578185856104488589610614565b61045291906110da565b610726565b600191505092915050565b60008060008373ffffffffffffffffffffffffffffffffffffffff1673ffffffffffffffffffffffffffffffffffffffff168152602001908152602001600020549050919050565b6104b2610bf1565b6104bc6000610c6f565b565b6000600560009054906101000a900473ffffffffffffffffffffffffffffffffffffffff16905090565b6060600480546104f79061107a565b80601f01602080910402602001604051908101604052809291908181526020018280546105239061107a565b80156105705780601f1061054557610100808354040283529160200191610570565b820191906000526020600020905b81548152906001019060200180831161055357829003601f168201915b5050505050905090565b60008061058561071e565b905060006105938286610614565b9050838110156105d8576040517f08c379a00000000000000000000000000000000000000000000000000000000081526004016105cf90611180565b60405180910390fd5b6105e58286868403610726565b60019250505092915050565b6000806105fc61071e565b905061060981858561097b565b600191505092915050565b6000600160008473ffffffffffffffffffffffffffffffffffffffff1673ffffffffffffffffffffffffffffffffffffffff16815260200190815260200160002060008373ffffffffffffffffffffffffffffffffffffffff1673ffffffffffffffffffffffffffffffffffffffff16815260200190815260200160002054905092915050565b6106a3610bf1565b600073ffffffffffffffffffffffffffffffffffffffff168173ffffffffffffffffffffffffffffffffffffffff1603610712576040517f08c379a000000000000000000000000000000000000000000000000000000000815260040161070990611212565b60405180910390fd5b61071b81610c6f565b50565b600033905090565b600073ffffffffffffffffffffffffffffffffffffffff168373ffffffffffffffffffffffffffffffffffffffff1603610795576040517f08c379a000000000000000000000000000000000000000000000000000000000815260040161078c906112a4565b60405180910390fd5b600073ffffffffffffffffffffffffffffffffffffffff168273ffffffffffffffffffffffffffffffffffffffff1603610804576040517f08c379a00000000000000000000000000000000000000000000000000000000081526004016107fb90611336565b60405180910390fd5b80600160008573ffffffffffffffffffffffffffffffffffffffff1673ffffffffffffffffffffffffffffffffffffffff16815260200190815260200160002060008473ffffffffffffffffffffffffffffffffffffffff1673ffffffffffffffffffffffffffffffffffffffff168152602001908152602001600020819055508173ffffffffffffffffffffffffffffffffffffffff168373ffffffffffffffffffffffffffffffffffffffff167f8c5be1e5ebec7d5bd14f71427d1e84f3dd0314c0f7b2291e5b200ac8c7c3b925836040516108e29190610f0f565b60405180910390a3505050565b60006108fb8484610614565b90507fffffffffffffffffffffffffffffffffffffffffffffffffffffffffffffffff81146109755781811015610967576040517f08c379a000000000000000000000000000000000000000000000000000000000815260040161095e906113a2565b60405180910390fd5b6109748484848403610726565b5b50505050565b600073ffffffffffffffffffffffffffffffffffffffff168373ffffffffffffffffffffffffffffffffffffffff16036109ea576040517f08c379a00000000000000000000000000000000000000000000000000000000081526004016109e190611434565b60405180910390fd5b600073ffffffffffffffffffffffffffffffffffffffff168273ffffffffffffffffffffffffffffffffffffffff1603610a59576040517f08c379a0000000000000000000000000000000000000000000000000000000008152600401610a50906114c6565b60405180910390fd5b610a64838383610d35565b60008060008573ffffffffffffffffffffffffffffffffffffffff1673ffffffffffffffffffffffffffffffffffffffff16815260200190815260200160002054905081811015610aea576040517f08c379a0000000000000000000000000000000000000000000000000000000008152600401610ae190611558565b60405180910390fd5b8181036000808673ffffffffffffffffffffffffffffffffffffffff1673ffffffffffffffffffffffffffffffffffffffff16815260200190815260200160002081905550816000808573ffffffffffffffffffffffffffffffffffffffff1673ffffffffffffffffffffffffffffffffffffffff168152602001908152602001600020600082825401925050819055508273ffffffffffffffffffffffffffffffffffffffff168473ffffffffffffffffffffffffffffffffffffffff167fddf252ad1be2c89b69c2b068fc378daa952ba7f163c4a11628f55a4df523b3ef84604051610bd89190610f0f565b60405180910390a3610beb848484610d3a565b50505050565b610bf961071e565b73ffffffffffffffffffffffffffffffffffffffff16610c176104be565b73ffffffffffffffffffffffffffffffffffffffff1614610c6d576040517f08c379a0000000000000000000000000000000000000000000000000000000008152600401610c64906115c4565b60405180910390fd5b565b6000600560009054906101000a900473ffffffffffffffffffffffffffffffffffffffff16905081600560006101000a81548173ffffffffffffffffffffffffffffffffffffffff021916908373ffffffffffffffffffffffffffffffffffffffff1602179055508173ffffffffffffffffffffffffffffffffffffffff168173ffffffffffffffffffffffffffffffffffffffff167f8be0079c531659141344cd1fd0a4f28419497f9722a3daafe3b4186f6b6457e060405160405180910390a35050565b505050565b505050565b600081519050919050565b600082825260208201905092915050565b60005b83811015610d79578082015181840152602081019050610d5e565b60008484015250505050565b6000601f19601f8301169050919050565b6000610da182610d3f565b610dab8185610d4a565b9350610dbb818560208601610d5b565b610dc481610d85565b840191505092915050565b60006020820190508181036000830152610de98184610d96565b905092915050565b600080fd5b600073ffffffffffffffffffffffffffffffffffffffff82169050919050565b6000610e2182610df6565b9050919050565b610e3181610e16565b8114610e3c57600080fd5b50565b600081359050610e4e81610e28565b92915050565b6000819050919050565b610e6781610e54565b8114610e7257600080fd5b50565b600081359050610e8481610e5e565b92915050565b60008060408385031215610ea157610ea0610df1565b5b6000610eaf85828601610e3f565b9250506020610ec085828601610e75565b9150509250929050565b60008115159050919050565b610edf81610eca565b82525050565b6000602082019050610efa6000830184610ed6565b92915050565b610f0981610e54565b82525050565b6000602082019050610f246000830184610f00565b92915050565b600080600060608486031215610f4357610f42610df1565b5b6000610f5186828701610e3f565b9350506020610f6286828701610e3f565b9250506040610f7386828701610e75565b9150509250925092565b600060ff82169050919050565b610f9381610f7d565b82525050565b6000602082019050610fae6000830184610f8a565b92915050565b600060208284031215610fca57610fc9610df1565b5b6000610fd884828501610e3f565b91505092915050565b610fea81610e16565b82525050565b60006020820190506110056000830184610fe1565b92915050565b6000806040838503121561102257611021610df1565b5b600061103085828601610e3f565b925050602061104185828601610e3f565b9150509250929050565b7f4e487b7100000000000000000000000000000000000000000000000000000000600052602260045260246000fd5b6000600282049050600182168061109257607f821691505b6020821081036110a5576110a461104b565b5b50919050565b7f4e487b7100000000000000000000000000000000000000000000000000000000600052601160045260246000fd5b60006110e582610e54565b91506110f083610e54565b9250828201905080821115611108576111076110ab565b5b92915050565b7f45524332303a2064656372656173656420616c6c6f77616e63652062656c6f7760008201527f207a65726f000000000000000000000000000000000000000000000000000000602082015250565b600061116a602583610d4a565b91506111758261110e565b604082019050919050565b600060208201905081810360008301526111998161115d565b9050919050565b7f4f776e61626c653a206e6577206f776e657220697320746865207a65726f206160008201527f6464726573730000000000000000000000000000000000000000000000000000602082015250565b60006111fc602683610d4a565b9150611207826111a0565b604082019050919050565b6000602082019050818103600083015261122b816111ef565b9050919050565b7f45524332303a20617070726f76652066726f6d20746865207a65726f2061646460008201527f7265737300000000000000000000000000000000000000000000000000000000602082015250565b600061128e602483610d4a565b915061129982611232565b604082019050919050565b600060208201905081810360008301526112bd81611281565b9050919050565b7f45524332303a20617070726f766520746f20746865207a65726f20616464726560008201527f7373000000000000000000000000000000000000000000000000000000000000602082015250565b6000611320602283610d4a565b915061132b826112c4565b604082019050919050565b6000602082019050818103600083015261134f81611313565b9050919050565b7f45524332303a20696e73756666696369656e7420616c6c6f77616e6365000000600082015250565b600061138c601d83610d4a565b915061139782611356565b602082019050919050565b600060208201905081810360008301526113bb8161137f565b9050919050565b7f45524332303a207472616e736665722066726f6d20746865207a65726f20616460008201527f6472657373000000000000000000000000000000000000000000000000000000602082015250565b600061141e602583610d4a565b9150611429826113c2565b604082019050919050565b6000602082019050818103600083015261144d81611411565b9050919050565b7f45524332303a207472616e7366657220746f20746865207a65726f206164647260008201527f6573730000000000000000000000000000000000000000000000000000000000602082015250565b60006114b0602383610d4a565b91506114bb82611454565b604082019050919050565b600060208201905081810360008301526114df816114a3565b9050919050565b7f45524332303a207472616e7366657220616d6f756e742065786365656473206260008201527f616c616e63650000000000000000000000000000000000000000000000000000602082015250565b6000611542602683610d4a565b915061154d826114e6565b604082019050919050565b6000602082019050818103600083015261157181611535565b9050919050565b7f4f776e61626c653a2063616c6c6572206973206e6f7420746865206f776e6572600082015250565b60006115ae602083610d4a565b91506115b982611578565b602082019050919050565b600060208201905081810360008301526115dd816115a1565b905091905056fea264697066735822122074781c30ce5803c72da8192c55fd04dd0c4a6b307a57079374f1097bd6762d1664736f6c63430008120033",
  "immutableReferences": {},
  "source": "// SPDX-License-Identifier: MIT\r\n// Author:- @sauravrao637\r\npragma solidity ^0.8.18;\r\n\r\nimport \"@openzeppelin/contracts/token/ERC20/ERC20.sol\";\r\nimport \"@openzeppelin/contracts/access/Ownable.sol\";\r\n\r\ncontract CamoToken is ERC20, Ownable {\r\n    uint256 public constant MAX_SUPPLY = 10_000_000_000 * (10**18);\r\n\r\n    constructor() ERC20(\"Camo Token\", \"CAMO\") {\r\n        uint256 toMint = MAX_SUPPLY;\r\n        _mint(msg.sender, toMint);\r\n    }\r\n}\r\n",
  "sourcePath": "C:\\Users\\asus\\Desktop\\Project\\DeveloperWeek-Hack\\packages\\truffle\\contracts\\CamoToken.sol",
  "compiler": {
    "name": "solc",
    "version": "0.8.18+commit.87f61d96.Emscripten.clang"
  },
  "schemaVersion": "3.4.14",
  "updatedAt": "2023-06-21T03:58:52.170Z",
  "networkType": "ethereum",
  "devdoc": {
    "events": {
      "Approval(address,address,uint256)": {
        "details": "Emitted when the allowance of a `spender` for an `owner` is set by a call to {approve}. `value` is the new allowance."
      },
      "Transfer(address,address,uint256)": {
        "details": "Emitted when `value` tokens are moved from one account (`from`) to another (`to`). Note that `value` may be zero."
      }
    },
    "kind": "dev",
    "methods": {
      "allowance(address,address)": {
        "details": "See {IERC20-allowance}."
      },
      "approve(address,uint256)": {
        "details": "See {IERC20-approve}. NOTE: If `amount` is the maximum `uint256`, the allowance is not updated on `transferFrom`. This is semantically equivalent to an infinite approval. Requirements: - `spender` cannot be the zero address."
      },
      "balanceOf(address)": {
        "details": "See {IERC20-balanceOf}."
      },
      "decimals()": {
        "details": "Returns the number of decimals used to get its user representation. For example, if `decimals` equals `2`, a balance of `505` tokens should be displayed to a user as `5.05` (`505 / 10 ** 2`). Tokens usually opt for a value of 18, imitating the relationship between Ether and Wei. This is the default value returned by this function, unless it's overridden. NOTE: This information is only used for _display_ purposes: it in no way affects any of the arithmetic of the contract, including {IERC20-balanceOf} and {IERC20-transfer}."
      },
      "decreaseAllowance(address,uint256)": {
        "details": "Atomically decreases the allowance granted to `spender` by the caller. This is an alternative to {approve} that can be used as a mitigation for problems described in {IERC20-approve}. Emits an {Approval} event indicating the updated allowance. Requirements: - `spender` cannot be the zero address. - `spender` must have allowance for the caller of at least `subtractedValue`."
      },
      "increaseAllowance(address,uint256)": {
        "details": "Atomically increases the allowance granted to `spender` by the caller. This is an alternative to {approve} that can be used as a mitigation for problems described in {IERC20-approve}. Emits an {Approval} event indicating the updated allowance. Requirements: - `spender` cannot be the zero address."
      },
      "name()": {
        "details": "Returns the name of the token."
      },
      "owner()": {
        "details": "Returns the address of the current owner."
      },
      "renounceOwnership()": {
        "details": "Leaves the contract without owner. It will not be possible to call `onlyOwner` functions. Can only be called by the current owner. NOTE: Renouncing ownership will leave the contract without an owner, thereby disabling any functionality that is only available to the owner."
      },
      "symbol()": {
        "details": "Returns the symbol of the token, usually a shorter version of the name."
      },
      "totalSupply()": {
        "details": "See {IERC20-totalSupply}."
      },
      "transfer(address,uint256)": {
        "details": "See {IERC20-transfer}. Requirements: - `to` cannot be the zero address. - the caller must have a balance of at least `amount`."
      },
      "transferFrom(address,address,uint256)": {
        "details": "See {IERC20-transferFrom}. Emits an {Approval} event indicating the updated allowance. This is not required by the EIP. See the note at the beginning of {ERC20}. NOTE: Does not update the allowance if the current allowance is the maximum `uint256`. Requirements: - `from` and `to` cannot be the zero address. - `from` must have a balance of at least `amount`. - the caller must have allowance for ``from``'s tokens of at least `amount`."
      },
      "transferOwnership(address)": {
        "details": "Transfers ownership of the contract to a new account (`newOwner`). Can only be called by the current owner."
      }
    },
    "version": 1
  },
  "userdoc": {
    "kind": "user",
    "methods": {},
    "version": 1
  }
}