{
  "contractName": "CamoNFT",
  "abi": [
    {
      "inputs": [
        {
          "internalType": "address",
          "name": "_authorizedContract",
          "type": "address"
        }
      ],
      "stateMutability": "nonpayable",
      "type": "constructor"
    },
    {
      "anonymous": false,
      "inputs": [
        {
          "indexed": true,
          "internalType": "address",
          "name": "owner",
          "type": "address"
        },
        {
          "indexed": true,
          "internalType": "address",
          "name": "approved",
          "type": "address"
        },
        {
          "indexed": true,
          "internalType": "uint256",
          "name": "tokenId",
          "type": "uint256"
        }
      ],
      "name": "Approval",
      "type": "event"
    },
    {
      "anonymous": false,
      "inputs": [
        {
          "indexed": true,
          "internalType": "address",
          "name": "owner",
          "type": "address"
        },
        {
          "indexed": true,
          "internalType": "address",
          "name": "operator",
          "type": "address"
        },
        {
          "indexed": false,
          "internalType": "bool",
          "name": "approved",
          "type": "bool"
        }
      ],
      "name": "ApprovalForAll",
      "type": "event"
    },
    {
      "anonymous": false,
      "inputs": [
        {
          "indexed": true,
          "internalType": "address",
          "name": "previousOwner",
          "type": "address"
        },
        {
          "indexed": true,
          "internalType": "address",
          "name": "newOwner",
          "type": "address"
        }
      ],
      "name": "OwnershipTransferred",
      "type": "event"
    },
    {
      "anonymous": false,
      "inputs": [
        {
          "indexed": true,
          "internalType": "address",
          "name": "from",
          "type": "address"
        },
        {
          "indexed": true,
          "internalType": "address",
          "name": "to",
          "type": "address"
        },
        {
          "indexed": true,
          "internalType": "uint256",
          "name": "tokenId",
          "type": "uint256"
        }
      ],
      "name": "Transfer",
      "type": "event"
    },
    {
      "inputs": [],
      "name": "BASE_PRICE",
      "outputs": [
        {
          "internalType": "uint256",
          "name": "",
          "type": "uint256"
        }
      ],
      "stateMutability": "view",
      "type": "function",
      "constant": true
    },
    {
      "inputs": [],
      "name": "COMMON_CAP",
      "outputs": [
        {
          "internalType": "uint256",
          "name": "",
          "type": "uint256"
        }
      ],
      "stateMutability": "view",
      "type": "function",
      "constant": true
    },
    {
      "inputs": [],
      "name": "COMMON_PRICE",
      "outputs": [
        {
          "internalType": "uint256",
          "name": "",
          "type": "uint256"
        }
      ],
      "stateMutability": "view",
      "type": "function",
      "constant": true
    },
    {
      "inputs": [],
      "name": "EPIC_CAP",
      "outputs": [
        {
          "internalType": "uint256",
          "name": "",
          "type": "uint256"
        }
      ],
      "stateMutability": "view",
      "type": "function",
      "constant": true
    },
    {
      "inputs": [],
      "name": "EPIC_PRICE",
      "outputs": [
        {
          "internalType": "uint256",
          "name": "",
          "type": "uint256"
        }
      ],
      "stateMutability": "view",
      "type": "function",
      "constant": true
    },
    {
      "inputs": [],
      "name": "LEGENDARY_CAP",
      "outputs": [
        {
          "internalType": "uint256",
          "name": "",
          "type": "uint256"
        }
      ],
      "stateMutability": "view",
      "type": "function",
      "constant": true
    },
    {
      "inputs": [],
      "name": "LEGENDARY_PRICE",
      "outputs": [
        {
          "internalType": "uint256",
          "name": "",
          "type": "uint256"
        }
      ],
      "stateMutability": "view",
      "type": "function",
      "constant": true
    },
    {
      "inputs": [],
      "name": "RARE_CAP",
      "outputs": [
        {
          "internalType": "uint256",
          "name": "",
          "type": "uint256"
        }
      ],
      "stateMutability": "view",
      "type": "function",
      "constant": true
    },
    {
      "inputs": [],
      "name": "RARE_PRICE",
      "outputs": [
        {
          "internalType": "uint256",
          "name": "",
          "type": "uint256"
        }
      ],
      "stateMutability": "view",
      "type": "function",
      "constant": true
    },
    {
      "inputs": [],
      "name": "UNCOMMON_CAP",
      "outputs": [
        {
          "internalType": "uint256",
          "name": "",
          "type": "uint256"
        }
      ],
      "stateMutability": "view",
      "type": "function",
      "constant": true
    },
    {
      "inputs": [],
      "name": "UNCOMMON_PRICE",
      "outputs": [
        {
          "internalType": "uint256",
          "name": "",
          "type": "uint256"
        }
      ],
      "stateMutability": "view",
      "type": "function",
      "constant": true
    },
    {
      "inputs": [
        {
          "internalType": "address",
          "name": "to",
          "type": "address"
        },
        {
          "internalType": "uint256",
          "name": "tokenId",
          "type": "uint256"
        }
      ],
      "name": "approve",
      "outputs": [],
      "stateMutability": "nonpayable",
      "type": "function"
    },
    {
      "inputs": [],
      "name": "authorizedContract",
      "outputs": [
        {
          "internalType": "address",
          "name": "",
          "type": "address"
        }
      ],
      "stateMutability": "view",
      "type": "function",
      "constant": true
    },
    {
      "inputs": [
        {
          "internalType": "address",
          "name": "owner",
          "type": "address"
        }
      ],
      "name": "balanceOf",
      "outputs": [
        {
          "internalType": "uint256",
          "name": "",
          "type": "uint256"
        }
      ],
      "stateMutability": "view",
      "type": "function",
      "constant": true
    },
    {
      "inputs": [],
      "name": "commonCount",
      "outputs": [
        {
          "internalType": "uint256",
          "name": "",
          "type": "uint256"
        }
      ],
      "stateMutability": "view",
      "type": "function",
      "constant": true
    },
    {
      "inputs": [],
      "name": "epicCount",
      "outputs": [
        {
          "internalType": "uint256",
          "name": "",
          "type": "uint256"
        }
      ],
      "stateMutability": "view",
      "type": "function",
      "constant": true
    },
    {
      "inputs": [
        {
          "internalType": "uint256",
          "name": "tokenId",
          "type": "uint256"
        }
      ],
      "name": "getApproved",
      "outputs": [
        {
          "internalType": "address",
          "name": "",
          "type": "address"
        }
      ],
      "stateMutability": "view",
      "type": "function",
      "constant": true
    },
    {
      "inputs": [
        {
          "internalType": "address",
          "name": "owner",
          "type": "address"
        },
        {
          "internalType": "address",
          "name": "operator",
          "type": "address"
        }
      ],
      "name": "isApprovedForAll",
      "outputs": [
        {
          "internalType": "bool",
          "name": "",
          "type": "bool"
        }
      ],
      "stateMutability": "view",
      "type": "function",
      "constant": true
    },
    {
      "inputs": [],
      "name": "legendaryCount",
      "outputs": [
        {
          "internalType": "uint256",
          "name": "",
          "type": "uint256"
        }
      ],
      "stateMutability": "view",
      "type": "function",
      "constant": true
    },
    {
      "inputs": [],
      "name": "name",
      "outputs": [
        {
          "internalType": "string",
          "name": "",
          "type": "string"
        }
      ],
      "stateMutability": "view",
      "type": "function",
      "constant": true
    },
    {
      "inputs": [
        {
          "internalType": "uint256",
          "name": "",
          "type": "uint256"
        }
      ],
      "name": "nfts",
      "outputs": [
        {
          "internalType": "uint256",
          "name": "tokenId",
          "type": "uint256"
        },
        {
          "internalType": "address",
          "name": "owner",
          "type": "address"
        },
        {
          "internalType": "enum CamoNFT.RarityLevel",
          "name": "rarity",
          "type": "uint8"
        },
        {
          "internalType": "uint256",
          "name": "entryTimestamp",
          "type": "uint256"
        },
        {
          "internalType": "uint256",
          "name": "stakeClaimedTimeStamp",
          "type": "uint256"
        }
      ],
      "stateMutability": "view",
      "type": "function",
      "constant": true
    },
    {
      "inputs": [],
      "name": "owner",
      "outputs": [
        {
          "internalType": "address",
          "name": "",
          "type": "address"
        }
      ],
      "stateMutability": "view",
      "type": "function",
      "constant": true
    },
    {
      "inputs": [
        {
          "internalType": "uint256",
          "name": "tokenId",
          "type": "uint256"
        }
      ],
      "name": "ownerOf",
      "outputs": [
        {
          "internalType": "address",
          "name": "",
          "type": "address"
        }
      ],
      "stateMutability": "view",
      "type": "function",
      "constant": true
    },
    {
      "inputs": [],
      "name": "rareCount",
      "outputs": [
        {
          "internalType": "uint256",
          "name": "",
          "type": "uint256"
        }
      ],
      "stateMutability": "view",
      "type": "function",
      "constant": true
    },
    {
      "inputs": [],
      "name": "renounceOwnership",
      "outputs": [],
      "stateMutability": "nonpayable",
      "type": "function"
    },
    {
      "inputs": [
        {
          "internalType": "address",
          "name": "from",
          "type": "address"
        },
        {
          "internalType": "address",
          "name": "to",
          "type": "address"
        },
        {
          "internalType": "uint256",
          "name": "tokenId",
          "type": "uint256"
        }
      ],
      "name": "safeTransferFrom",
      "outputs": [],
      "stateMutability": "nonpayable",
      "type": "function"
    },
    {
      "inputs": [
        {
          "internalType": "address",
          "name": "from",
          "type": "address"
        },
        {
          "internalType": "address",
          "name": "to",
          "type": "address"
        },
        {
          "internalType": "uint256",
          "name": "tokenId",
          "type": "uint256"
        },
        {
          "internalType": "bytes",
          "name": "data",
          "type": "bytes"
        }
      ],
      "name": "safeTransferFrom",
      "outputs": [],
      "stateMutability": "nonpayable",
      "type": "function"
    },
    {
      "inputs": [
        {
          "internalType": "address",
          "name": "operator",
          "type": "address"
        },
        {
          "internalType": "bool",
          "name": "approved",
          "type": "bool"
        }
      ],
      "name": "setApprovalForAll",
      "outputs": [],
      "stateMutability": "nonpayable",
      "type": "function"
    },
    {
      "inputs": [
        {
          "internalType": "bytes4",
          "name": "interfaceId",
          "type": "bytes4"
        }
      ],
      "name": "supportsInterface",
      "outputs": [
        {
          "internalType": "bool",
          "name": "",
          "type": "bool"
        }
      ],
      "stateMutability": "view",
      "type": "function",
      "constant": true
    },
    {
      "inputs": [],
      "name": "symbol",
      "outputs": [
        {
          "internalType": "string",
          "name": "",
          "type": "string"
        }
      ],
      "stateMutability": "view",
      "type": "function",
      "constant": true
    },
    {
      "inputs": [
        {
          "internalType": "uint256",
          "name": "tokenId",
          "type": "uint256"
        }
      ],
      "name": "tokenURI",
      "outputs": [
        {
          "internalType": "string",
          "name": "",
          "type": "string"
        }
      ],
      "stateMutability": "view",
      "type": "function",
      "constant": true
    },
    {
      "inputs": [
        {
          "internalType": "address",
          "name": "newOwner",
          "type": "address"
        }
      ],
      "name": "transferOwnership",
      "outputs": [],
      "stateMutability": "nonpayable",
      "type": "function"
    },
    {
      "inputs": [],
      "name": "uncommonCount",
      "outputs": [
        {
          "internalType": "uint256",
          "name": "",
          "type": "uint256"
        }
      ],
      "stateMutability": "view",
      "type": "function",
      "constant": true
    },
    {
      "inputs": [
        {
          "internalType": "enum CamoNFT.RarityLevel",
          "name": "rarity",
          "type": "uint8"
        }
      ],
      "name": "mintNFT",
      "outputs": [],
      "stateMutability": "payable",
      "type": "function",
      "payable": true
    },
    {
      "inputs": [
        {
          "internalType": "address",
          "name": "from",
          "type": "address"
        },
        {
          "internalType": "address",
          "name": "to",
          "type": "address"
        },
        {
          "internalType": "uint256",
          "name": "tokenId",
          "type": "uint256"
        }
      ],
      "name": "transferFrom",
      "outputs": [],
      "stateMutability": "nonpayable",
      "type": "function"
    },
    {
      "inputs": [
        {
          "internalType": "enum CamoNFT.RarityLevel",
          "name": "rarity",
          "type": "uint8"
        }
      ],
      "name": "getPrice",
      "outputs": [
        {
          "internalType": "uint256",
          "name": "",
          "type": "uint256"
        }
      ],
      "stateMutability": "pure",
      "type": "function",
      "constant": true
    },
    {
      "inputs": [
        {
          "internalType": "enum CamoNFT.RarityLevel",
          "name": "rarity",
          "type": "uint8"
        }
      ],
      "name": "getCap",
      "outputs": [
        {
          "internalType": "uint256",
          "name": "",
          "type": "uint256"
        }
      ],
      "stateMutability": "pure",
      "type": "function",
      "constant": true
    },
    {
      "inputs": [
        {
          "internalType": "enum CamoNFT.RarityLevel",
          "name": "rarity",
          "type": "uint8"
        }
      ],
      "name": "getCount",
      "outputs": [
        {
          "internalType": "uint256",
          "name": "",
          "type": "uint256"
        }
      ],
      "stateMutability": "view",
      "type": "function",
      "constant": true
    },
    {
      "inputs": [
        {
          "internalType": "address",
          "name": "owner",
          "type": "address"
        }
      ],
      "name": "getOwnedTokens",
      "outputs": [
        {
          "internalType": "uint256[]",
          "name": "",
          "type": "uint256[]"
        }
      ],
      "stateMutability": "view",
      "type": "function",
      "constant": true
    },
    {
      "inputs": [
        {
          "internalType": "address",
          "name": "user",
          "type": "address"
        }
      ],
      "name": "updateTimestamp",
      "outputs": [],
      "stateMutability": "nonpayable",
      "type": "function"
    },
    {
      "inputs": [],
      "name": "withdrawFunds",
      "outputs": [],
      "stateMutability": "payable",
      "type": "function",
      "payable": true
    },
    {
      "inputs": [],
      "name": "checkBalance",
      "outputs": [
        {
          "internalType": "uint256",
          "name": "",
          "type": "uint256"
        }
      ],
      "stateMutability": "view",
      "type": "function",
      "constant": true
    }
  ],
  "bytecode": "0x608060405260006007553480156200001657600080fd5b5060405162004a2a38038062004a2a83398181016040528101906200003c91906200026e565b6040518060400160405280600781526020017f43616d6f4e4654000000000000000000000000000000000000000000000000008152506040518060400160405280600481526020017f434e4654000000000000000000000000000000000000000000000000000000008152508160009081620000b991906200051a565b508060019081620000cb91906200051a565b505050620000ee620000e26200013660201b60201c565b6200013e60201b60201c565b80600a60006101000a81548173ffffffffffffffffffffffffffffffffffffffff021916908373ffffffffffffffffffffffffffffffffffffffff1602179055505062000601565b600033905090565b6000600660009054906101000a900473ffffffffffffffffffffffffffffffffffffffff16905081600660006101000a81548173ffffffffffffffffffffffffffffffffffffffff021916908373ffffffffffffffffffffffffffffffffffffffff1602179055508173ffffffffffffffffffffffffffffffffffffffff168173ffffffffffffffffffffffffffffffffffffffff167f8be0079c531659141344cd1fd0a4f28419497f9722a3daafe3b4186f6b6457e060405160405180910390a35050565b600080fd5b600073ffffffffffffffffffffffffffffffffffffffff82169050919050565b6000620002368262000209565b9050919050565b620002488162000229565b81146200025457600080fd5b50565b60008151905062000268816200023d565b92915050565b60006020828403121562000287576200028662000204565b5b6000620002978482850162000257565b91505092915050565b600081519050919050565b7f4e487b7100000000000000000000000000000000000000000000000000000000600052604160045260246000fd5b7f4e487b7100000000000000000000000000000000000000000000000000000000600052602260045260246000fd5b600060028204905060018216806200032257607f821691505b602082108103620003385762000337620002da565b5b50919050565b60008190508160005260206000209050919050565b60006020601f8301049050919050565b600082821b905092915050565b600060088302620003a27fffffffffffffffffffffffffffffffffffffffffffffffffffffffffffffffff8262000363565b620003ae868362000363565b95508019841693508086168417925050509392505050565b6000819050919050565b6000819050919050565b6000620003fb620003f5620003ef84620003c6565b620003d0565b620003c6565b9050919050565b6000819050919050565b6200041783620003da565b6200042f620004268262000402565b84845462000370565b825550505050565b600090565b6200044662000437565b620004538184846200040c565b505050565b5b818110156200047b576200046f6000826200043c565b60018101905062000459565b5050565b601f821115620004ca5762000494816200033e565b6200049f8462000353565b81016020851015620004af578190505b620004c7620004be8562000353565b83018262000458565b50505b505050565b600082821c905092915050565b6000620004ef60001984600802620004cf565b1980831691505092915050565b60006200050a8383620004dc565b9150826002028217905092915050565b6200052582620002a0565b67ffffffffffffffff811115620005415762000540620002ab565b5b6200054d825462000309565b6200055a8282856200047f565b600060209050601f8311600181146200059257600084156200057d578287015190505b620005898582620004fc565b865550620005f9565b601f198416620005a2866200033e565b60005b82811015620005cc57848901518255600182019150602085019450602081019050620005a5565b86831015620005ec5784890151620005e8601f891682620004dc565b8355505b6001600288020188555050505b505050505050565b61441980620006116000396000f3fe6080604052600436106102515760003560e01c8063a6591cdf11610139578063ce0348c6116100b6578063e04af1e21161007a578063e04af1e2146108d9578063e72c008414610904578063e985e9c51461092f578063f2fde38b1461096c578063f86325ed14610995578063fa77983e146109c057610251565b8063ce0348c6146107de578063cedc0b3414610809578063d519989914610834578063d9d616551461085f578063ddcb76791461089c57610251565b8063b764ba6a116100fd578063b764ba6a146106f7578063b88d4fde14610722578063bdc71fb81461074b578063c71daccb14610776578063c87b56dd146107a157610251565b8063a6591cdf14610610578063a819dfbb1461063b578063b011244714610678578063b246e5f5146106a3578063b60707ed146106ce57610251565b80633bf1d381116101d257806370a082311161019657806370a0823114610512578063715018a61461054f578063886715f6146105665780638da5cb5b1461059157806395d89b41146105bc578063a22cb465146105e757610251565b80633bf1d3811461042b57806342842e0e1461045657806350d6f7121461047f57806362ab7da3146104aa5780636352211e146104d557610251565b806323b872dd1161021957806323b872dd1461034f57806324600fc314610378578063265aa621146103825780632e119c79146103c357806337f1e7f2146103ee57610251565b806301ffc9a71461025657806306fdde0314610293578063081812fc146102be578063095ea7b3146102fb5780630cd389aa14610324575b600080fd5b34801561026257600080fd5b5061027d60048036038101906102789190613048565b6109dc565b60405161028a9190613090565b60405180910390f35b34801561029f57600080fd5b506102a8610abe565b6040516102b5919061313b565b60405180910390f35b3480156102ca57600080fd5b506102e560048036038101906102e09190613193565b610b50565b6040516102f29190613201565b60405180910390f35b34801561030757600080fd5b50610322600480360381019061031d9190613248565b610b96565b005b34801561033057600080fd5b50610339610cad565b6040516103469190613297565b60405180910390f35b34801561035b57600080fd5b50610376600480360381019061037191906132b2565b610cb3565b005b610380610f68565b005b34801561038e57600080fd5b506103a960048036038101906103a49190613193565b610fb9565b6040516103ba95949392919061337c565b60405180910390f35b3480156103cf57600080fd5b506103d861101c565b6040516103e59190613297565b60405180910390f35b3480156103fa57600080fd5b50610415600480360381019061041091906133f4565b611034565b6040516104229190613297565b60405180910390f35b34801561043757600080fd5b506104406111dc565b60405161044d9190613297565b60405180910390f35b34801561046257600080fd5b5061047d600480360381019061047891906132b2565b6111e2565b005b34801561048b57600080fd5b50610494611202565b6040516104a19190613297565b60405180910390f35b3480156104b657600080fd5b506104bf611208565b6040516104cc9190613297565b60405180910390f35b3480156104e157600080fd5b506104fc60048036038101906104f79190613193565b61120e565b6040516105099190613201565b60405180910390f35b34801561051e57600080fd5b5061053960048036038101906105349190613421565b611294565b6040516105469190613297565b60405180910390f35b34801561055b57600080fd5b5061056461134b565b005b34801561057257600080fd5b5061057b61135f565b6040516105889190613297565b60405180910390f35b34801561059d57600080fd5b506105a6611365565b6040516105b39190613201565b60405180910390f35b3480156105c857600080fd5b506105d161138f565b6040516105de919061313b565b60405180910390f35b3480156105f357600080fd5b5061060e6004803603810190610609919061347a565b611421565b005b34801561061c57600080fd5b50610625611437565b6040516106329190613201565b60405180910390f35b34801561064757600080fd5b50610662600480360381019061065d91906133f4565b61145d565b60405161066f9190613297565b60405180910390f35b34801561068457600080fd5b5061068d6115ab565b60405161069a9190613297565b60405180910390f35b3480156106af57600080fd5b506106b86115b0565b6040516106c59190613297565b60405180910390f35b3480156106da57600080fd5b506106f560048036038101906106f09190613421565b6115b6565b005b34801561070357600080fd5b5061070c6116ee565b6040516107199190613297565b60405180910390f35b34801561072e57600080fd5b50610749600480360381019061074491906135ef565b611706565b005b34801561075757600080fd5b50610760611768565b60405161076d9190613297565b60405180910390f35b34801561078257600080fd5b5061078b611780565b6040516107989190613297565b60405180910390f35b3480156107ad57600080fd5b506107c860048036038101906107c39190613193565b611790565b6040516107d5919061313b565b60405180910390f35b3480156107ea57600080fd5b506107f36117f8565b6040516108009190613297565b60405180910390f35b34801561081557600080fd5b5061081e6117fe565b60405161082b9190613297565b60405180910390f35b34801561084057600080fd5b50610849611816565b6040516108569190613297565b60405180910390f35b34801561086b57600080fd5b5061088660048036038101906108819190613421565b61182e565b6040516108939190613730565b60405180910390f35b3480156108a857600080fd5b506108c360048036038101906108be91906133f4565b611955565b6040516108d09190613297565b60405180910390f35b3480156108e557600080fd5b506108ee611aa1565b6040516108fb9190613297565b60405180910390f35b34801561091057600080fd5b50610919611aa7565b6040516109269190613297565b60405180910390f35b34801561093b57600080fd5b5061095660048036038101906109519190613752565b611aac565b6040516109639190613090565b60405180910390f35b34801561097857600080fd5b50610993600480360381019061098e9190613421565b611b40565b005b3480156109a157600080fd5b506109aa611bc3565b6040516109b79190613297565b60405180910390f35b6109da60048036038101906109d591906133f4565b611bcf565b005b60007f80ac58cd000000000000000000000000000000000000000000000000000000007bffffffffffffffffffffffffffffffffffffffffffffffffffffffff1916827bffffffffffffffffffffffffffffffffffffffffffffffffffffffff19161480610aa757507f5b5e139f000000000000000000000000000000000000000000000000000000007bffffffffffffffffffffffffffffffffffffffffffffffffffffffff1916827bffffffffffffffffffffffffffffffffffffffffffffffffffffffff1916145b80610ab75750610ab682611efb565b5b9050919050565b606060008054610acd906137c1565b80601f0160208091040260200160405190810160405280929190818152602001828054610af9906137c1565b8015610b465780601f10610b1b57610100808354040283529160200191610b46565b820191906000526020600020905b815481529060010190602001808311610b2957829003601f168201915b5050505050905090565b6000610b5b82611f65565b6004600083815260200190815260200160002060009054906101000a900473ffffffffffffffffffffffffffffffffffffffff169050919050565b6000610ba18261120e565b90508073ffffffffffffffffffffffffffffffffffffffff168373ffffffffffffffffffffffffffffffffffffffff1603610c11576040517f08c379a0000000000000000000000000000000000000000000000000000000008152600401610c0890613864565b60405180910390fd5b8073ffffffffffffffffffffffffffffffffffffffff16610c30611fb0565b73ffffffffffffffffffffffffffffffffffffffff161480610c5f5750610c5e81610c59611fb0565b611aac565b5b610c9e576040517f08c379a0000000000000000000000000000000000000000000000000000000008152600401610c95906138f6565b60405180910390fd5b610ca88383611fb8565b505050565b600c5481565b610cbe838383612071565b610ccf610cc9611fb0565b826120d1565b610d0e576040517f08c379a0000000000000000000000000000000000000000000000000000000008152600401610d0590613962565b60405180910390fd5b8173ffffffffffffffffffffffffffffffffffffffff168373ffffffffffffffffffffffffffffffffffffffff1603610d7c576040517f08c379a0000000000000000000000000000000000000000000000000000000008152600401610d73906139ce565b60405180910390fd5b6000600960008573ffffffffffffffffffffffffffffffffffffffff1673ffffffffffffffffffffffffffffffffffffffff168152602001908152602001600020905060005b8180549050811015610e805782828281548110610de257610de16139ee565b5b906000526020600020015403610e6d578160018380549050610e049190613a4c565b81548110610e1557610e146139ee565b5b9060005260206000200154828281548110610e3357610e326139ee565b5b906000526020600020018190555081805480610e5257610e51613a80565b5b60019003818190600052602060002001600090559055610e80565b8080610e7890613aaf565b915050610dc2565b50600960008473ffffffffffffffffffffffffffffffffffffffff1673ffffffffffffffffffffffffffffffffffffffff168152602001908152602001600020829080600181540180825580915050600190039060005260206000200160009091909190915055610ef2848484612166565b426008600084815260200190815260200160002060020181905550826008600084815260200190815260200160002060010160006101000a81548173ffffffffffffffffffffffffffffffffffffffff021916908373ffffffffffffffffffffffffffffffffffffffff16021790555050505050565b610f7061245f565b3373ffffffffffffffffffffffffffffffffffffffff166108fc479081150290604051600060405180830381858888f19350505050158015610fb6573d6000803e3d6000fd5b50565b60086020528060005260406000206000915090508060000154908060010160009054906101000a900473ffffffffffffffffffffffffffffffffffffffff16908060010160149054906101000a900460ff16908060020154908060030154905085565b600367016345785d8a00006110319190613af7565b81565b600080600481111561104957611048613305565b5b82600481111561105c5761105b613305565b5b0361107d57600167016345785d8a00006110769190613af7565b90506111d7565b6001600481111561109157611090613305565b5b8260048111156110a4576110a3613305565b5b036110c557600267016345785d8a00006110be9190613af7565b90506111d7565b600260048111156110d9576110d8613305565b5b8260048111156110ec576110eb613305565b5b0361110d57600367016345785d8a00006111069190613af7565b90506111d7565b6003600481111561112157611120613305565b5b82600481111561113457611133613305565b5b0361115557600567016345785d8a000061114e9190613af7565b90506111d7565b60048081111561116857611167613305565b5b82600481111561117b5761117a613305565b5b0361119c57600867016345785d8a00006111959190613af7565b90506111d7565b6040517f08c379a00000000000000000000000000000000000000000000000000000000081526004016111ce90613b85565b60405180910390fd5b919050565b600e5481565b6111fd83838360405180602001604052806000815250611706565b505050565b600b5481565b61038481565b60008061121a836124dd565b9050600073ffffffffffffffffffffffffffffffffffffffff168173ffffffffffffffffffffffffffffffffffffffff160361128b576040517f08c379a000000000000000000000000000000000000000000000000000000000815260040161128290613bf1565b60405180910390fd5b80915050919050565b60008073ffffffffffffffffffffffffffffffffffffffff168273ffffffffffffffffffffffffffffffffffffffff1603611304576040517f08c379a00000000000000000000000000000000000000000000000000000000081526004016112fb90613c83565b60405180910390fd5b600360008373ffffffffffffffffffffffffffffffffffffffff1673ffffffffffffffffffffffffffffffffffffffff168152602001908152602001600020549050919050565b61135361245f565b61135d600061251a565b565b6157e481565b6000600660009054906101000a900473ffffffffffffffffffffffffffffffffffffffff16905090565b60606001805461139e906137c1565b80601f01602080910402602001604051908101604052809291908181526020018280546113ca906137c1565b80156114175780601f106113ec57610100808354040283529160200191611417565b820191906000526020600020905b8154815290600101906020018083116113fa57829003601f168201915b5050505050905090565b61143361142c611fb0565b83836125e0565b5050565b600a60009054906101000a900473ffffffffffffffffffffffffffffffffffffffff1681565b600080600481111561147257611471613305565b5b82600481111561148557611484613305565b5b0361149457600b5490506115a6565b600160048111156114a8576114a7613305565b5b8260048111156114bb576114ba613305565b5b036114ca57600c5490506115a6565b600260048111156114de576114dd613305565b5b8260048111156114f1576114f0613305565b5b0361150057600d5490506115a6565b6003600481111561151457611513613305565b5b82600481111561152757611526613305565b5b0361153657600e5490506115a6565b60048081111561154957611548613305565b5b82600481111561155c5761155b613305565b5b0361156b57600f5490506115a6565b6040517f08c379a000000000000000000000000000000000000000000000000000000000815260040161159d90613b85565b60405180910390fd5b919050565b606481565b6109c481565b3373ffffffffffffffffffffffffffffffffffffffff16600a60009054906101000a900473ffffffffffffffffffffffffffffffffffffffff1673ffffffffffffffffffffffffffffffffffffffff1614611646576040517f08c379a000000000000000000000000000000000000000000000000000000000815260040161163d90613cef565b60405180910390fd5b6000600960008373ffffffffffffffffffffffffffffffffffffffff1673ffffffffffffffffffffffffffffffffffffffff168152602001908152602001600020905060005b81805490508110156116e95760008282815481106116ad576116ac6139ee565b5b906000526020600020015490504260086000838152602001908152602001600020600201819055505080806116e190613aaf565b91505061168c565b505050565b600267016345785d8a00006117039190613af7565b81565b611717611711611fb0565b836120d1565b611756576040517f08c379a000000000000000000000000000000000000000000000000000000000815260040161174d90613d81565b60405180910390fd5b6117628484848461274c565b50505050565b600867016345785d8a000061177d9190613af7565b81565b600061178a61245f565b47905090565b606061179b82611f65565b60006117a56127a8565b905060008151116117c557604051806020016040528060008152506117f0565b806117cf846127bf565b6040516020016117e0929190613ddd565b6040516020818303038152906040525b915050919050565b600f5481565b600567016345785d8a00006118139190613af7565b81565b600167016345785d8a000061182b9190613af7565b81565b60603373ffffffffffffffffffffffffffffffffffffffff16600a60009054906101000a900473ffffffffffffffffffffffffffffffffffffffff1673ffffffffffffffffffffffffffffffffffffffff16146118c0576040517f08c379a00000000000000000000000000000000000000000000000000000000081526004016118b790613cef565b60405180910390fd5b600960008373ffffffffffffffffffffffffffffffffffffffff1673ffffffffffffffffffffffffffffffffffffffff16815260200190815260200160002080548060200260200160405190810160405280929190818152602001828054801561194957602002820191906000526020600020905b815481526020019060010190808311611935575b50505050509050919050565b600080600481111561196a57611969613305565b5b82600481111561197d5761197c613305565b5b0361198c576157e49050611a9c565b600160048111156119a05761199f613305565b5b8260048111156119b3576119b2613305565b5b036119c2576109c49050611a9c565b600260048111156119d6576119d5613305565b5b8260048111156119e9576119e8613305565b5b036119f8576103849050611a9c565b60036004811115611a0c57611a0b613305565b5b826004811115611a1f57611a1e613305565b5b03611a2d5760649050611a9c565b600480811115611a4057611a3f613305565b5b826004811115611a5357611a52613305565b5b03611a615760199050611a9c565b6040517f08c379a0000000000000000000000000000000000000000000000000000000008152600401611a9390613b85565b60405180910390fd5b919050565b600d5481565b601981565b6000600560008473ffffffffffffffffffffffffffffffffffffffff1673ffffffffffffffffffffffffffffffffffffffff16815260200190815260200160002060008373ffffffffffffffffffffffffffffffffffffffff1673ffffffffffffffffffffffffffffffffffffffff16815260200190815260200160002060009054906101000a900460ff16905092915050565b611b4861245f565b600073ffffffffffffffffffffffffffffffffffffffff168173ffffffffffffffffffffffffffffffffffffffff1603611bb7576040517f08c379a0000000000000000000000000000000000000000000000000000000008152600401611bae90613e73565b60405180910390fd5b611bc08161251a565b50565b67016345785d8a000081565b60006004811115611be357611be2613305565b5b816004811115611bf657611bf5613305565b5b10158015611c285750600480811115611c1257611c11613305565b5b816004811115611c2557611c24613305565b5b11155b611c67576040517f08c379a0000000000000000000000000000000000000000000000000000000008152600401611c5e90613b85565b60405180910390fd5b6000611c7282611034565b905080341015611cb7576040517f08c379a0000000000000000000000000000000000000000000000000000000008152600401611cae90613edf565b60405180910390fd5b611cc082611955565b611cc98361145d565b10611d09576040517f08c379a0000000000000000000000000000000000000000000000000000000008152600401611d0090613f4b565b60405180910390fd5b6000600754905060076000815480929190611d2390613aaf565b9190505550611d32338261288d565b600960003373ffffffffffffffffffffffffffffffffffffffff1673ffffffffffffffffffffffffffffffffffffffff1681526020019081526020016000208190806001815401808255809150506001900390600052602060002001600090919091909150556040518060a001604052808281526020013373ffffffffffffffffffffffffffffffffffffffff168152602001846004811115611dd857611dd7613305565b5b815260200142815260200142815250600860008381526020019081526020016000206000820151816000015560208201518160010160006101000a81548173ffffffffffffffffffffffffffffffffffffffff021916908373ffffffffffffffffffffffffffffffffffffffff16021790555060408201518160010160146101000a81548160ff02191690836004811115611e7657611e75613305565b5b02179055506060820151816002015560808201518160030155905050611e9b836128ab565b81341115611ef6573373ffffffffffffffffffffffffffffffffffffffff166108fc8334611ec99190613a4c565b9081150290604051600060405180830381858888f19350505050158015611ef4573d6000803e3d6000fd5b505b505050565b60007f01ffc9a7000000000000000000000000000000000000000000000000000000007bffffffffffffffffffffffffffffffffffffffffffffffffffffffff1916827bffffffffffffffffffffffffffffffffffffffffffffffffffffffff1916149050919050565b611f6e81612a1a565b611fad576040517f08c379a0000000000000000000000000000000000000000000000000000000008152600401611fa490613bf1565b60405180910390fd5b50565b600033905090565b816004600083815260200190815260200160002060006101000a81548173ffffffffffffffffffffffffffffffffffffffff021916908373ffffffffffffffffffffffffffffffffffffffff160217905550808273ffffffffffffffffffffffffffffffffffffffff1661202b8361120e565b73ffffffffffffffffffffffffffffffffffffffff167f8c5be1e5ebec7d5bd14f71427d1e84f3dd0314c0f7b2291e5b200ac8c7c3b92560405160405180910390a45050565b61208261207c611fb0565b826120d1565b6120c1576040517f08c379a00000000000000000000000000000000000000000000000000000000081526004016120b890613d81565b60405180910390fd5b6120cc838383612166565b505050565b6000806120dd8361120e565b90508073ffffffffffffffffffffffffffffffffffffffff168473ffffffffffffffffffffffffffffffffffffffff16148061211f575061211e8185611aac565b5b8061215d57508373ffffffffffffffffffffffffffffffffffffffff1661214584610b50565b73ffffffffffffffffffffffffffffffffffffffff16145b91505092915050565b8273ffffffffffffffffffffffffffffffffffffffff166121868261120e565b73ffffffffffffffffffffffffffffffffffffffff16146121dc576040517f08c379a00000000000000000000000000000000000000000000000000000000081526004016121d390613fdd565b60405180910390fd5b600073ffffffffffffffffffffffffffffffffffffffff168273ffffffffffffffffffffffffffffffffffffffff160361224b576040517f08c379a00000000000000000000000000000000000000000000000000000000081526004016122429061406f565b60405180910390fd5b6122588383836001612a5b565b8273ffffffffffffffffffffffffffffffffffffffff166122788261120e565b73ffffffffffffffffffffffffffffffffffffffff16146122ce576040517f08c379a00000000000000000000000000000000000000000000000000000000081526004016122c590613fdd565b60405180910390fd5b6004600082815260200190815260200160002060006101000a81549073ffffffffffffffffffffffffffffffffffffffff02191690556001600360008573ffffffffffffffffffffffffffffffffffffffff1673ffffffffffffffffffffffffffffffffffffffff168152602001908152602001600020600082825403925050819055506001600360008473ffffffffffffffffffffffffffffffffffffffff1673ffffffffffffffffffffffffffffffffffffffff16815260200190815260200160002060008282540192505081905550816002600083815260200190815260200160002060006101000a81548173ffffffffffffffffffffffffffffffffffffffff021916908373ffffffffffffffffffffffffffffffffffffffff160217905550808273ffffffffffffffffffffffffffffffffffffffff168473ffffffffffffffffffffffffffffffffffffffff167fddf252ad1be2c89b69c2b068fc378daa952ba7f163c4a11628f55a4df523b3ef60405160405180910390a461245a8383836001612a61565b505050565b612467611fb0565b73ffffffffffffffffffffffffffffffffffffffff16612485611365565b73ffffffffffffffffffffffffffffffffffffffff16146124db576040517f08c379a00000000000000000000000000000000000000000000000000000000081526004016124d2906140db565b60405180910390fd5b565b60006002600083815260200190815260200160002060009054906101000a900473ffffffffffffffffffffffffffffffffffffffff169050919050565b6000600660009054906101000a900473ffffffffffffffffffffffffffffffffffffffff16905081600660006101000a81548173ffffffffffffffffffffffffffffffffffffffff021916908373ffffffffffffffffffffffffffffffffffffffff1602179055508173ffffffffffffffffffffffffffffffffffffffff168173ffffffffffffffffffffffffffffffffffffffff167f8be0079c531659141344cd1fd0a4f28419497f9722a3daafe3b4186f6b6457e060405160405180910390a35050565b8173ffffffffffffffffffffffffffffffffffffffff168373ffffffffffffffffffffffffffffffffffffffff160361264e576040517f08c379a000000000000000000000000000000000000000000000000000000000815260040161264590614147565b60405180910390fd5b80600560008573ffffffffffffffffffffffffffffffffffffffff1673ffffffffffffffffffffffffffffffffffffffff16815260200190815260200160002060008473ffffffffffffffffffffffffffffffffffffffff1673ffffffffffffffffffffffffffffffffffffffff16815260200190815260200160002060006101000a81548160ff0219169083151502179055508173ffffffffffffffffffffffffffffffffffffffff168373ffffffffffffffffffffffffffffffffffffffff167f17307eab39ab6107e8899845ad3d59bd9653f200f220920489ca2b5937696c318360405161273f9190613090565b60405180910390a3505050565b612757848484612166565b61276384848484612a67565b6127a2576040517f08c379a0000000000000000000000000000000000000000000000000000000008152600401612799906141d9565b60405180910390fd5b50505050565b606060405180602001604052806000815250905090565b6060600060016127ce84612bee565b01905060008167ffffffffffffffff8111156127ed576127ec6134c4565b5b6040519080825280601f01601f19166020018201604052801561281f5781602001600182028036833780820191505090505b509050600082602001820190505b600115612882578080600190039150507f3031323334353637383961626364656600000000000000000000000000000000600a86061a8153600a8581612876576128756141f9565b5b0494506000850361282d575b819350505050919050565b6128a7828260405180602001604052806000815250612d41565b5050565b600060048111156128bf576128be613305565b5b8160048111156128d2576128d1613305565b5b036128f457600b60008154809291906128ea90613aaf565b9190505550612a17565b6001600481111561290857612907613305565b5b81600481111561291b5761291a613305565b5b0361293d57600c600081548092919061293390613aaf565b9190505550612a16565b6002600481111561295157612950613305565b5b81600481111561296457612963613305565b5b0361298657600d600081548092919061297c90613aaf565b9190505550612a15565b6003600481111561299a57612999613305565b5b8160048111156129ad576129ac613305565b5b036129cf57600e60008154809291906129c590613aaf565b9190505550612a14565b6004808111156129e2576129e1613305565b5b8160048111156129f5576129f4613305565b5b03612a1357600f6000815480929190612a0d90613aaf565b91905055505b5b5b5b5b50565b60008073ffffffffffffffffffffffffffffffffffffffff16612a3c836124dd565b73ffffffffffffffffffffffffffffffffffffffff1614159050919050565b50505050565b50505050565b6000612a888473ffffffffffffffffffffffffffffffffffffffff16612d9c565b15612be1578373ffffffffffffffffffffffffffffffffffffffff1663150b7a02612ab1611fb0565b8786866040518563ffffffff1660e01b8152600401612ad3949392919061427d565b6020604051808303816000875af1925050508015612b0f57506040513d601f19601f82011682018060405250810190612b0c91906142de565b60015b612b91573d8060008114612b3f576040519150601f19603f3d011682016040523d82523d6000602084013e612b44565b606091505b506000815103612b89576040517f08c379a0000000000000000000000000000000000000000000000000000000008152600401612b80906141d9565b60405180910390fd5b805181602001fd5b63150b7a0260e01b7bffffffffffffffffffffffffffffffffffffffffffffffffffffffff1916817bffffffffffffffffffffffffffffffffffffffffffffffffffffffff191614915050612be6565b600190505b949350505050565b600080600090507a184f03e93ff9f4daa797ed6e38ed64bf6a1f0100000000000000008310612c4c577a184f03e93ff9f4daa797ed6e38ed64bf6a1f0100000000000000008381612c4257612c416141f9565b5b0492506040810190505b6d04ee2d6d415b85acef81000000008310612c89576d04ee2d6d415b85acef81000000008381612c7f57612c7e6141f9565b5b0492506020810190505b662386f26fc100008310612cb857662386f26fc100008381612cae57612cad6141f9565b5b0492506010810190505b6305f5e1008310612ce1576305f5e1008381612cd757612cd66141f9565b5b0492506008810190505b6127108310612d06576127108381612cfc57612cfb6141f9565b5b0492506004810190505b60648310612d295760648381612d1f57612d1e6141f9565b5b0492506002810190505b600a8310612d38576001810190505b80915050919050565b612d4b8383612dbf565b612d586000848484612a67565b612d97576040517f08c379a0000000000000000000000000000000000000000000000000000000008152600401612d8e906141d9565b60405180910390fd5b505050565b6000808273ffffffffffffffffffffffffffffffffffffffff163b119050919050565b600073ffffffffffffffffffffffffffffffffffffffff168273ffffffffffffffffffffffffffffffffffffffff1603612e2e576040517f08c379a0000000000000000000000000000000000000000000000000000000008152600401612e2590614357565b60405180910390fd5b612e3781612a1a565b15612e77576040517f08c379a0000000000000000000000000000000000000000000000000000000008152600401612e6e906143c3565b60405180910390fd5b612e85600083836001612a5b565b612e8e81612a1a565b15612ece576040517f08c379a0000000000000000000000000000000000000000000000000000000008152600401612ec5906143c3565b60405180910390fd5b6001600360008473ffffffffffffffffffffffffffffffffffffffff1673ffffffffffffffffffffffffffffffffffffffff16815260200190815260200160002060008282540192505081905550816002600083815260200190815260200160002060006101000a81548173ffffffffffffffffffffffffffffffffffffffff021916908373ffffffffffffffffffffffffffffffffffffffff160217905550808273ffffffffffffffffffffffffffffffffffffffff16600073ffffffffffffffffffffffffffffffffffffffff167fddf252ad1be2c89b69c2b068fc378daa952ba7f163c4a11628f55a4df523b3ef60405160405180910390a4612fd8600083836001612a61565b5050565b6000604051905090565b600080fd5b600080fd5b60007fffffffff0000000000000000000000000000000000000000000000000000000082169050919050565b61302581612ff0565b811461303057600080fd5b50565b6000813590506130428161301c565b92915050565b60006020828403121561305e5761305d612fe6565b5b600061306c84828501613033565b91505092915050565b60008115159050919050565b61308a81613075565b82525050565b60006020820190506130a56000830184613081565b92915050565b600081519050919050565b600082825260208201905092915050565b60005b838110156130e55780820151818401526020810190506130ca565b60008484015250505050565b6000601f19601f8301169050919050565b600061310d826130ab565b61311781856130b6565b93506131278185602086016130c7565b613130816130f1565b840191505092915050565b600060208201905081810360008301526131558184613102565b905092915050565b6000819050919050565b6131708161315d565b811461317b57600080fd5b50565b60008135905061318d81613167565b92915050565b6000602082840312156131a9576131a8612fe6565b5b60006131b78482850161317e565b91505092915050565b600073ffffffffffffffffffffffffffffffffffffffff82169050919050565b60006131eb826131c0565b9050919050565b6131fb816131e0565b82525050565b600060208201905061321660008301846131f2565b92915050565b613225816131e0565b811461323057600080fd5b50565b6000813590506132428161321c565b92915050565b6000806040838503121561325f5761325e612fe6565b5b600061326d85828601613233565b925050602061327e8582860161317e565b9150509250929050565b6132918161315d565b82525050565b60006020820190506132ac6000830184613288565b92915050565b6000806000606084860312156132cb576132ca612fe6565b5b60006132d986828701613233565b93505060206132ea86828701613233565b92505060406132fb8682870161317e565b9150509250925092565b7f4e487b7100000000000000000000000000000000000000000000000000000000600052602160045260246000fd5b6005811061334557613344613305565b5b50565b600081905061335682613334565b919050565b600061336682613348565b9050919050565b6133768161335b565b82525050565b600060a0820190506133916000830188613288565b61339e60208301876131f2565b6133ab604083018661336d565b6133b86060830185613288565b6133c56080830184613288565b9695505050505050565b600581106133dc57600080fd5b50565b6000813590506133ee816133cf565b92915050565b60006020828403121561340a57613409612fe6565b5b6000613418848285016133df565b91505092915050565b60006020828403121561343757613436612fe6565b5b600061344584828501613233565b91505092915050565b61345781613075565b811461346257600080fd5b50565b6000813590506134748161344e565b92915050565b6000806040838503121561349157613490612fe6565b5b600061349f85828601613233565b92505060206134b085828601613465565b9150509250929050565b600080fd5b600080fd5b7f4e487b7100000000000000000000000000000000000000000000000000000000600052604160045260246000fd5b6134fc826130f1565b810181811067ffffffffffffffff8211171561351b5761351a6134c4565b5b80604052505050565b600061352e612fdc565b905061353a82826134f3565b919050565b600067ffffffffffffffff82111561355a576135596134c4565b5b613563826130f1565b9050602081019050919050565b82818337600083830152505050565b600061359261358d8461353f565b613524565b9050828152602081018484840111156135ae576135ad6134bf565b5b6135b9848285613570565b509392505050565b600082601f8301126135d6576135d56134ba565b5b81356135e684826020860161357f565b91505092915050565b6000806000806080858703121561360957613608612fe6565b5b600061361787828801613233565b945050602061362887828801613233565b93505060406136398782880161317e565b925050606085013567ffffffffffffffff81111561365a57613659612feb565b5b613666878288016135c1565b91505092959194509250565b600081519050919050565b600082825260208201905092915050565b6000819050602082019050919050565b6136a78161315d565b82525050565b60006136b9838361369e565b60208301905092915050565b6000602082019050919050565b60006136dd82613672565b6136e7818561367d565b93506136f28361368e565b8060005b8381101561372357815161370a88826136ad565b9750613715836136c5565b9250506001810190506136f6565b5085935050505092915050565b6000602082019050818103600083015261374a81846136d2565b905092915050565b6000806040838503121561376957613768612fe6565b5b600061377785828601613233565b925050602061378885828601613233565b9150509250929050565b7f4e487b7100000000000000000000000000000000000000000000000000000000600052602260045260246000fd5b600060028204905060018216806137d957607f821691505b6020821081036137ec576137eb613792565b5b50919050565b7f4552433732313a20617070726f76616c20746f2063757272656e74206f776e6560008201527f7200000000000000000000000000000000000000000000000000000000000000602082015250565b600061384e6021836130b6565b9150613859826137f2565b604082019050919050565b6000602082019050818103600083015261387d81613841565b9050919050565b7f4552433732313a20617070726f76652063616c6c6572206973206e6f7420746f60008201527f6b656e206f776e6572206f7220617070726f76656420666f7220616c6c000000602082015250565b60006138e0603d836130b6565b91506138eb82613884565b604082019050919050565b6000602082019050818103600083015261390f816138d3565b9050919050565b7f5472616e73666572206e6f7420617574686f72697a6564000000000000000000600082015250565b600061394c6017836130b6565b915061395782613916565b602082019050919050565b6000602082019050818103600083015261397b8161393f565b9050919050565b7f576861742061726520796f7520646f696e673f00000000000000000000000000600082015250565b60006139b86013836130b6565b91506139c382613982565b602082019050919050565b600060208201905081810360008301526139e7816139ab565b9050919050565b7f4e487b7100000000000000000000000000000000000000000000000000000000600052603260045260246000fd5b7f4e487b7100000000000000000000000000000000000000000000000000000000600052601160045260246000fd5b6000613a578261315d565b9150613a628361315d565b9250828203905081811115613a7a57613a79613a1d565b5b92915050565b7f4e487b7100000000000000000000000000000000000000000000000000000000600052603160045260246000fd5b6000613aba8261315d565b91507fffffffffffffffffffffffffffffffffffffffffffffffffffffffffffffffff8203613aec57613aeb613a1d565b5b600182019050919050565b6000613b028261315d565b9150613b0d8361315d565b9250828202613b1b8161315d565b91508282048414831517613b3257613b31613a1d565b5b5092915050565b7f496e76616c696420726172697479206c6576656c000000000000000000000000600082015250565b6000613b6f6014836130b6565b9150613b7a82613b39565b602082019050919050565b60006020820190508181036000830152613b9e81613b62565b9050919050565b7f4552433732313a20696e76616c696420746f6b656e2049440000000000000000600082015250565b6000613bdb6018836130b6565b9150613be682613ba5565b602082019050919050565b60006020820190508181036000830152613c0a81613bce565b9050919050565b7f4552433732313a2061646472657373207a65726f206973206e6f74206120766160008201527f6c6964206f776e65720000000000000000000000000000000000000000000000602082015250565b6000613c6d6029836130b6565b9150613c7882613c11565b604082019050919050565b60006020820190508181036000830152613c9c81613c60565b9050919050565b7f556e617574686f72697a656420636f6e74726163740000000000000000000000600082015250565b6000613cd96015836130b6565b9150613ce482613ca3565b602082019050919050565b60006020820190508181036000830152613d0881613ccc565b9050919050565b7f4552433732313a2063616c6c6572206973206e6f7420746f6b656e206f776e6560008201527f72206f7220617070726f76656400000000000000000000000000000000000000602082015250565b6000613d6b602d836130b6565b9150613d7682613d0f565b604082019050919050565b60006020820190508181036000830152613d9a81613d5e565b9050919050565b600081905092915050565b6000613db7826130ab565b613dc18185613da1565b9350613dd18185602086016130c7565b80840191505092915050565b6000613de98285613dac565b9150613df58284613dac565b91508190509392505050565b7f4f776e61626c653a206e6577206f776e657220697320746865207a65726f206160008201527f6464726573730000000000000000000000000000000000000000000000000000602082015250565b6000613e5d6026836130b6565b9150613e6882613e01565b604082019050919050565b60006020820190508181036000830152613e8c81613e50565b9050919050565b7f496e73756666696369656e74207061796d656e74000000000000000000000000600082015250565b6000613ec96014836130b6565b9150613ed482613e93565b602082019050919050565b60006020820190508181036000830152613ef881613ebc565b9050919050565b7f526172697479206c6576656c20736f6c64206f75740000000000000000000000600082015250565b6000613f356015836130b6565b9150613f4082613eff565b602082019050919050565b60006020820190508181036000830152613f6481613f28565b9050919050565b7f4552433732313a207472616e736665722066726f6d20696e636f72726563742060008201527f6f776e6572000000000000000000000000000000000000000000000000000000602082015250565b6000613fc76025836130b6565b9150613fd282613f6b565b604082019050919050565b60006020820190508181036000830152613ff681613fba565b9050919050565b7f4552433732313a207472616e7366657220746f20746865207a65726f2061646460008201527f7265737300000000000000000000000000000000000000000000000000000000602082015250565b60006140596024836130b6565b915061406482613ffd565b604082019050919050565b600060208201905081810360008301526140888161404c565b9050919050565b7f4f776e61626c653a2063616c6c6572206973206e6f7420746865206f776e6572600082015250565b60006140c56020836130b6565b91506140d08261408f565b602082019050919050565b600060208201905081810360008301526140f4816140b8565b9050919050565b7f4552433732313a20617070726f766520746f2063616c6c657200000000000000600082015250565b60006141316019836130b6565b915061413c826140fb565b602082019050919050565b6000602082019050818103600083015261416081614124565b9050919050565b7f4552433732313a207472616e7366657220746f206e6f6e20455243373231526560008201527f63656976657220696d706c656d656e7465720000000000000000000000000000602082015250565b60006141c36032836130b6565b91506141ce82614167565b604082019050919050565b600060208201905081810360008301526141f2816141b6565b9050919050565b7f4e487b7100000000000000000000000000000000000000000000000000000000600052601260045260246000fd5b600081519050919050565b600082825260208201905092915050565b600061424f82614228565b6142598185614233565b93506142698185602086016130c7565b614272816130f1565b840191505092915050565b600060808201905061429260008301876131f2565b61429f60208301866131f2565b6142ac6040830185613288565b81810360608301526142be8184614244565b905095945050505050565b6000815190506142d88161301c565b92915050565b6000602082840312156142f4576142f3612fe6565b5b6000614302848285016142c9565b91505092915050565b7f4552433732313a206d696e7420746f20746865207a65726f2061646472657373600082015250565b60006143416020836130b6565b915061434c8261430b565b602082019050919050565b6000602082019050818103600083015261437081614334565b9050919050565b7f4552433732313a20746f6b656e20616c7265616479206d696e74656400000000600082015250565b60006143ad601c836130b6565b91506143b882614377565b602082019050919050565b600060208201905081810360008301526143dc816143a0565b905091905056fea2646970667358221220b6c39cb2426083f223071933e39b5a4014f8829ec114bcf6f74b0969cc2e96c564736f6c63430008120033",
  "immutableReferences": {},
  "source": "// SPDX-License-Identifier: GPL-3.0-only\r\n// Author:- @sauravrao637\r\npragma solidity ^0.8.18;\r\n\r\nimport \"@openzeppelin/contracts/token/ERC721/ERC721.sol\";\r\nimport \"@openzeppelin/contracts/access/Ownable.sol\";\r\n\r\ncontract CamoNFT is ERC721, Ownable {\r\n    enum RarityLevel {Common, Uncommon, Rare, Epic, Legendary}\r\n    uint256 counter = 0;\r\n    struct NFT {\r\n        uint256 tokenId;\r\n        address owner;\r\n        RarityLevel rarity;\r\n        uint256 entryTimestamp;\r\n        uint256 stakeClaimedTimeStamp;\r\n    }\r\n\r\n    uint256 constant public BASE_PRICE = 100_000_000_000_000_000 wei;\r\n    uint256 constant public COMMON_PRICE = BASE_PRICE *1;\r\n    uint256 constant public UNCOMMON_PRICE = BASE_PRICE *2;\r\n    uint256 constant public RARE_PRICE = BASE_PRICE *3;\r\n    uint256 constant public EPIC_PRICE = BASE_PRICE *5;\r\n    uint256 constant public LEGENDARY_PRICE = BASE_PRICE *8;\r\n\r\n    uint256 constant public COMMON_CAP = 22500;\r\n    uint256 constant public UNCOMMON_CAP = 2500;\r\n    uint256 constant public RARE_CAP = 900;\r\n    uint256 constant public EPIC_CAP = 100;\r\n    uint256 constant public LEGENDARY_CAP = 25;\r\n\r\n    mapping(uint256 => NFT) public nfts;\r\n    mapping(address => uint256[]) private _ownedTokens;\r\n\r\n    address public authorizedContract;\r\n\r\n    uint256 public commonCount;\r\n    uint256 public uncommonCount;\r\n    uint256 public rareCount;\r\n    uint256 public epicCount;\r\n    uint256 public legendaryCount;\r\n\r\n    constructor(address _authorizedContract) ERC721(\"CamoNFT\", \"CNFT\") {\r\n        authorizedContract = _authorizedContract;\r\n    }\r\n\r\n    modifier onlyAuthorizedContract() {\r\n        require(authorizedContract == msg.sender, \"Unauthorized contract\");\r\n        _;\r\n    }\r\n\r\n    function mintNFT(RarityLevel rarity) external payable {\r\n        require(rarity >= RarityLevel.Common && rarity <= RarityLevel.Legendary, \"Invalid rarity level\");\r\n\r\n        uint256 price = getPrice(rarity);\r\n        require(msg.value >= price, \"Insufficient payment\");\r\n\r\n        require(getCount(rarity) < getCap(rarity), \"Rarity level sold out\");\r\n        uint256 tokenId = counter;\r\n        counter++;\r\n        _safeMint(msg.sender, tokenId);\r\n        _ownedTokens[msg.sender].push(tokenId);\r\n        nfts[tokenId] = NFT(tokenId, msg.sender, rarity, block.timestamp, block.timestamp);\r\n        updateCount(rarity);\r\n\r\n        if (msg.value > price) {\r\n            payable(msg.sender).transfer(msg.value - price);\r\n        }\r\n    }\r\n\r\n    function transferFrom(address from, address to, uint256 tokenId) public override {\r\n        super.transferFrom(from, to, tokenId);\r\n        require(_isApprovedOrOwner(_msgSender(), tokenId), \"Transfer not authorized\");\r\n        require(from != to, \"What are you doing?\");\r\n\r\n        // Remove token ID from sender's list\r\n        uint256[] storage fromTokenList = _ownedTokens[from];\r\n        for (uint256 i = 0; i < fromTokenList.length; i++) {\r\n            if (fromTokenList[i] == tokenId) {\r\n                fromTokenList[i] = fromTokenList[fromTokenList.length - 1];\r\n                fromTokenList.pop();\r\n                break;\r\n            }\r\n        }\r\n\r\n        // Add token ID to receiver's list\r\n        _ownedTokens[to].push(tokenId);\r\n\r\n        // Perform the transfer\r\n        _transfer(from, to, tokenId);\r\n\r\n        nfts[tokenId].entryTimestamp = block.timestamp;\r\n        nfts[tokenId].owner = to;\r\n    }\r\n\r\n    function getPrice(RarityLevel rarity) public pure returns (uint256) {\r\n        if (rarity == RarityLevel.Common) {\r\n            return COMMON_PRICE;\r\n        } else if (rarity == RarityLevel.Uncommon) {\r\n            return UNCOMMON_PRICE;\r\n        } else if (rarity == RarityLevel.Rare) {\r\n            return RARE_PRICE;\r\n        } else if (rarity == RarityLevel.Epic) {\r\n            return EPIC_PRICE;\r\n        } else if (rarity == RarityLevel.Legendary) {\r\n            return LEGENDARY_PRICE;\r\n        }\r\n        revert(\"Invalid rarity level\");\r\n    }\r\n\r\n\r\n    function getCap(RarityLevel rarity) public pure returns (uint256) {\r\n        if (rarity == RarityLevel.Common) {\r\n            return COMMON_CAP;\r\n        } else if (rarity == RarityLevel.Uncommon) {\r\n            return UNCOMMON_CAP;\r\n        } else if (rarity == RarityLevel.Rare) {\r\n            return RARE_CAP;\r\n        } else if (rarity == RarityLevel.Epic) {\r\n            return EPIC_CAP;\r\n        } else if (rarity == RarityLevel.Legendary) {\r\n            return LEGENDARY_CAP;\r\n        }\r\n        revert(\"Invalid rarity level\");\r\n    }\r\n\r\n    function getCount(RarityLevel rarity) public view returns (uint256) {\r\n        if (rarity == RarityLevel.Common) {\r\n            return commonCount;\r\n        } else if (rarity == RarityLevel.Uncommon) {\r\n            return uncommonCount;\r\n        } else if (rarity == RarityLevel.Rare) {\r\n            return rareCount;\r\n        } else if (rarity == RarityLevel.Epic) {\r\n            return epicCount;\r\n        } else if (rarity == RarityLevel.Legendary) {\r\n            return legendaryCount;\r\n        }\r\n        revert(\"Invalid rarity level\");\r\n    }\r\n\r\n    function updateCount(RarityLevel rarity) internal {\r\n        if (rarity == RarityLevel.Common) {\r\n            commonCount++;\r\n        } else if (rarity == RarityLevel.Uncommon) {\r\n            uncommonCount++;\r\n        } else if (rarity == RarityLevel.Rare) {\r\n            rareCount++;\r\n        } else if (rarity == RarityLevel.Epic) {\r\n            epicCount++;\r\n        } else if (rarity == RarityLevel.Legendary) {\r\n            legendaryCount++;\r\n        }\r\n    }\r\n\r\n    function getOwnedTokens(address owner) external view onlyAuthorizedContract returns (uint256[] memory) {\r\n        return _ownedTokens[owner];\r\n    }\r\n\r\n    function updateTimestamp(address user) external onlyAuthorizedContract {\r\n        uint256[] storage tokenList = _ownedTokens[user];\r\n        for(uint i=0;i< tokenList.length; i++){\r\n            uint256 tokenId = tokenList[i];\r\n            nfts[tokenId].entryTimestamp = block.timestamp;\r\n        }\r\n    }\r\n\r\n    function withdrawFunds() public payable onlyOwner{\r\n        payable(msg.sender).transfer(address(this).balance);\r\n    }\r\n\r\n    function checkBalance() public view onlyOwner returns(uint256){\r\n        return address(this).balance;\r\n    }\r\n}\r\n\r\n",
  "sourcePath": "C:\\Users\\asus\\Desktop\\Project\\DeveloperWeek-Hack\\packages\\truffle\\contracts\\CamoNFT.sol",
  "compiler": {
    "name": "solc",
    "version": "0.8.18+commit.87f61d96.Emscripten.clang"
  },
  "schemaVersion": "3.4.14",
  "updatedAt": "2023-06-21T03:59:17.644Z",
  "networkType": "ethereum",
  "devdoc": {
    "events": {
      "Approval(address,address,uint256)": {
        "details": "Emitted when `owner` enables `approved` to manage the `tokenId` token."
      },
      "ApprovalForAll(address,address,bool)": {
        "details": "Emitted when `owner` enables or disables (`approved`) `operator` to manage all of its assets."
      },
      "Transfer(address,address,uint256)": {
        "details": "Emitted when `tokenId` token is transferred from `from` to `to`."
      }
    },
    "kind": "dev",
    "methods": {
      "approve(address,uint256)": {
        "details": "See {IERC721-approve}."
      },
      "balanceOf(address)": {
        "details": "See {IERC721-balanceOf}."
      },
      "getApproved(uint256)": {
        "details": "See {IERC721-getApproved}."
      },
      "isApprovedForAll(address,address)": {
        "details": "See {IERC721-isApprovedForAll}."
      },
      "name()": {
        "details": "See {IERC721Metadata-name}."
      },
      "owner()": {
        "details": "Returns the address of the current owner."
      },
      "ownerOf(uint256)": {
        "details": "See {IERC721-ownerOf}."
      },
      "renounceOwnership()": {
        "details": "Leaves the contract without owner. It will not be possible to call `onlyOwner` functions. Can only be called by the current owner. NOTE: Renouncing ownership will leave the contract without an owner, thereby disabling any functionality that is only available to the owner."
      },
      "safeTransferFrom(address,address,uint256)": {
        "details": "See {IERC721-safeTransferFrom}."
      },
      "safeTransferFrom(address,address,uint256,bytes)": {
        "details": "See {IERC721-safeTransferFrom}."
      },
      "setApprovalForAll(address,bool)": {
        "details": "See {IERC721-setApprovalForAll}."
      },
      "supportsInterface(bytes4)": {
        "details": "See {IERC165-supportsInterface}."
      },
      "symbol()": {
        "details": "See {IERC721Metadata-symbol}."
      },
      "tokenURI(uint256)": {
        "details": "See {IERC721Metadata-tokenURI}."
      },
      "transferFrom(address,address,uint256)": {
        "details": "See {IERC721-transferFrom}."
      },
      "transferOwnership(address)": {
        "details": "Transfers ownership of the contract to a new account (`newOwner`). Can only be called by the current owner."
      }
    },
    "version": 1
  },
  "userdoc": {
    "kind": "user",
    "methods": {},
    "version": 1
  }
}