{
  "contractName": "CamoNFT",
  "abi": [
    {
      "inputs": [
        {
          "internalType": "address",
          "name": "_authorizedContract",
          "type": "address"
        }
      ],
      "stateMutability": "nonpayable",
      "type": "constructor"
    },
    {
      "anonymous": false,
      "inputs": [
        {
          "indexed": true,
          "internalType": "address",
          "name": "owner",
          "type": "address"
        },
        {
          "indexed": true,
          "internalType": "address",
          "name": "approved",
          "type": "address"
        },
        {
          "indexed": true,
          "internalType": "uint256",
          "name": "tokenId",
          "type": "uint256"
        }
      ],
      "name": "Approval",
      "type": "event"
    },
    {
      "anonymous": false,
      "inputs": [
        {
          "indexed": true,
          "internalType": "address",
          "name": "owner",
          "type": "address"
        },
        {
          "indexed": true,
          "internalType": "address",
          "name": "operator",
          "type": "address"
        },
        {
          "indexed": false,
          "internalType": "bool",
          "name": "approved",
          "type": "bool"
        }
      ],
      "name": "ApprovalForAll",
      "type": "event"
    },
    {
      "anonymous": false,
      "inputs": [
        {
          "indexed": true,
          "internalType": "address",
          "name": "previousOwner",
          "type": "address"
        },
        {
          "indexed": true,
          "internalType": "address",
          "name": "newOwner",
          "type": "address"
        }
      ],
      "name": "OwnershipTransferred",
      "type": "event"
    },
    {
      "anonymous": false,
      "inputs": [
        {
          "indexed": true,
          "internalType": "address",
          "name": "from",
          "type": "address"
        },
        {
          "indexed": true,
          "internalType": "address",
          "name": "to",
          "type": "address"
        },
        {
          "indexed": true,
          "internalType": "uint256",
          "name": "tokenId",
          "type": "uint256"
        }
      ],
      "name": "Transfer",
      "type": "event"
    },
    {
      "inputs": [],
      "name": "BASE_PRICE",
      "outputs": [
        {
          "internalType": "uint256",
          "name": "",
          "type": "uint256"
        }
      ],
      "stateMutability": "view",
      "type": "function",
      "constant": true
    },
    {
      "inputs": [],
      "name": "COMMON_CAP",
      "outputs": [
        {
          "internalType": "uint256",
          "name": "",
          "type": "uint256"
        }
      ],
      "stateMutability": "view",
      "type": "function",
      "constant": true
    },
    {
      "inputs": [],
      "name": "COMMON_PRICE",
      "outputs": [
        {
          "internalType": "uint256",
          "name": "",
          "type": "uint256"
        }
      ],
      "stateMutability": "view",
      "type": "function",
      "constant": true
    },
    {
      "inputs": [],
      "name": "EPIC_CAP",
      "outputs": [
        {
          "internalType": "uint256",
          "name": "",
          "type": "uint256"
        }
      ],
      "stateMutability": "view",
      "type": "function",
      "constant": true
    },
    {
      "inputs": [],
      "name": "EPIC_PRICE",
      "outputs": [
        {
          "internalType": "uint256",
          "name": "",
          "type": "uint256"
        }
      ],
      "stateMutability": "view",
      "type": "function",
      "constant": true
    },
    {
      "inputs": [],
      "name": "LEGENDARY_CAP",
      "outputs": [
        {
          "internalType": "uint256",
          "name": "",
          "type": "uint256"
        }
      ],
      "stateMutability": "view",
      "type": "function",
      "constant": true
    },
    {
      "inputs": [],
      "name": "LEGENDARY_PRICE",
      "outputs": [
        {
          "internalType": "uint256",
          "name": "",
          "type": "uint256"
        }
      ],
      "stateMutability": "view",
      "type": "function",
      "constant": true
    },
    {
      "inputs": [],
      "name": "RARE_CAP",
      "outputs": [
        {
          "internalType": "uint256",
          "name": "",
          "type": "uint256"
        }
      ],
      "stateMutability": "view",
      "type": "function",
      "constant": true
    },
    {
      "inputs": [],
      "name": "RARE_PRICE",
      "outputs": [
        {
          "internalType": "uint256",
          "name": "",
          "type": "uint256"
        }
      ],
      "stateMutability": "view",
      "type": "function",
      "constant": true
    },
    {
      "inputs": [],
      "name": "UNCOMMON_CAP",
      "outputs": [
        {
          "internalType": "uint256",
          "name": "",
          "type": "uint256"
        }
      ],
      "stateMutability": "view",
      "type": "function",
      "constant": true
    },
    {
      "inputs": [],
      "name": "UNCOMMON_PRICE",
      "outputs": [
        {
          "internalType": "uint256",
          "name": "",
          "type": "uint256"
        }
      ],
      "stateMutability": "view",
      "type": "function",
      "constant": true
    },
    {
      "inputs": [
        {
          "internalType": "address",
          "name": "to",
          "type": "address"
        },
        {
          "internalType": "uint256",
          "name": "tokenId",
          "type": "uint256"
        }
      ],
      "name": "approve",
      "outputs": [],
      "stateMutability": "nonpayable",
      "type": "function"
    },
    {
      "inputs": [],
      "name": "authorizedContract",
      "outputs": [
        {
          "internalType": "address",
          "name": "",
          "type": "address"
        }
      ],
      "stateMutability": "view",
      "type": "function",
      "constant": true
    },
    {
      "inputs": [
        {
          "internalType": "address",
          "name": "owner",
          "type": "address"
        }
      ],
      "name": "balanceOf",
      "outputs": [
        {
          "internalType": "uint256",
          "name": "",
          "type": "uint256"
        }
      ],
      "stateMutability": "view",
      "type": "function",
      "constant": true
    },
    {
      "inputs": [],
      "name": "commonCount",
      "outputs": [
        {
          "internalType": "uint256",
          "name": "",
          "type": "uint256"
        }
      ],
      "stateMutability": "view",
      "type": "function",
      "constant": true
    },
    {
      "inputs": [],
      "name": "epicCount",
      "outputs": [
        {
          "internalType": "uint256",
          "name": "",
          "type": "uint256"
        }
      ],
      "stateMutability": "view",
      "type": "function",
      "constant": true
    },
    {
      "inputs": [
        {
          "internalType": "uint256",
          "name": "tokenId",
          "type": "uint256"
        }
      ],
      "name": "getApproved",
      "outputs": [
        {
          "internalType": "address",
          "name": "",
          "type": "address"
        }
      ],
      "stateMutability": "view",
      "type": "function",
      "constant": true
    },
    {
      "inputs": [
        {
          "internalType": "address",
          "name": "owner",
          "type": "address"
        },
        {
          "internalType": "address",
          "name": "operator",
          "type": "address"
        }
      ],
      "name": "isApprovedForAll",
      "outputs": [
        {
          "internalType": "bool",
          "name": "",
          "type": "bool"
        }
      ],
      "stateMutability": "view",
      "type": "function",
      "constant": true
    },
    {
      "inputs": [],
      "name": "legendaryCount",
      "outputs": [
        {
          "internalType": "uint256",
          "name": "",
          "type": "uint256"
        }
      ],
      "stateMutability": "view",
      "type": "function",
      "constant": true
    },
    {
      "inputs": [],
      "name": "name",
      "outputs": [
        {
          "internalType": "string",
          "name": "",
          "type": "string"
        }
      ],
      "stateMutability": "view",
      "type": "function",
      "constant": true
    },
    {
      "inputs": [
        {
          "internalType": "uint256",
          "name": "",
          "type": "uint256"
        }
      ],
      "name": "nfts",
      "outputs": [
        {
          "internalType": "uint256",
          "name": "tokenId",
          "type": "uint256"
        },
        {
          "internalType": "address",
          "name": "owner",
          "type": "address"
        },
        {
          "internalType": "enum CamoNFT.RarityLevel",
          "name": "rarity",
          "type": "uint8"
        },
        {
          "internalType": "uint256",
          "name": "entryTimestamp",
          "type": "uint256"
        },
        {
          "internalType": "uint256",
          "name": "stakeClaimedTimeStamp",
          "type": "uint256"
        }
      ],
      "stateMutability": "view",
      "type": "function",
      "constant": true
    },
    {
      "inputs": [],
      "name": "owner",
      "outputs": [
        {
          "internalType": "address",
          "name": "",
          "type": "address"
        }
      ],
      "stateMutability": "view",
      "type": "function",
      "constant": true
    },
    {
      "inputs": [
        {
          "internalType": "uint256",
          "name": "tokenId",
          "type": "uint256"
        }
      ],
      "name": "ownerOf",
      "outputs": [
        {
          "internalType": "address",
          "name": "",
          "type": "address"
        }
      ],
      "stateMutability": "view",
      "type": "function",
      "constant": true
    },
    {
      "inputs": [],
      "name": "rareCount",
      "outputs": [
        {
          "internalType": "uint256",
          "name": "",
          "type": "uint256"
        }
      ],
      "stateMutability": "view",
      "type": "function",
      "constant": true
    },
    {
      "inputs": [],
      "name": "renounceOwnership",
      "outputs": [],
      "stateMutability": "nonpayable",
      "type": "function"
    },
    {
      "inputs": [
        {
          "internalType": "address",
          "name": "from",
          "type": "address"
        },
        {
          "internalType": "address",
          "name": "to",
          "type": "address"
        },
        {
          "internalType": "uint256",
          "name": "tokenId",
          "type": "uint256"
        }
      ],
      "name": "safeTransferFrom",
      "outputs": [],
      "stateMutability": "nonpayable",
      "type": "function"
    },
    {
      "inputs": [
        {
          "internalType": "address",
          "name": "from",
          "type": "address"
        },
        {
          "internalType": "address",
          "name": "to",
          "type": "address"
        },
        {
          "internalType": "uint256",
          "name": "tokenId",
          "type": "uint256"
        },
        {
          "internalType": "bytes",
          "name": "data",
          "type": "bytes"
        }
      ],
      "name": "safeTransferFrom",
      "outputs": [],
      "stateMutability": "nonpayable",
      "type": "function"
    },
    {
      "inputs": [
        {
          "internalType": "address",
          "name": "operator",
          "type": "address"
        },
        {
          "internalType": "bool",
          "name": "approved",
          "type": "bool"
        }
      ],
      "name": "setApprovalForAll",
      "outputs": [],
      "stateMutability": "nonpayable",
      "type": "function"
    },
    {
      "inputs": [
        {
          "internalType": "bytes4",
          "name": "interfaceId",
          "type": "bytes4"
        }
      ],
      "name": "supportsInterface",
      "outputs": [
        {
          "internalType": "bool",
          "name": "",
          "type": "bool"
        }
      ],
      "stateMutability": "view",
      "type": "function",
      "constant": true
    },
    {
      "inputs": [],
      "name": "symbol",
      "outputs": [
        {
          "internalType": "string",
          "name": "",
          "type": "string"
        }
      ],
      "stateMutability": "view",
      "type": "function",
      "constant": true
    },
    {
      "inputs": [
        {
          "internalType": "uint256",
          "name": "tokenId",
          "type": "uint256"
        }
      ],
      "name": "tokenURI",
      "outputs": [
        {
          "internalType": "string",
          "name": "",
          "type": "string"
        }
      ],
      "stateMutability": "view",
      "type": "function",
      "constant": true
    },
    {
      "inputs": [
        {
          "internalType": "address",
          "name": "newOwner",
          "type": "address"
        }
      ],
      "name": "transferOwnership",
      "outputs": [],
      "stateMutability": "nonpayable",
      "type": "function"
    },
    {
      "inputs": [],
      "name": "uncommonCount",
      "outputs": [
        {
          "internalType": "uint256",
          "name": "",
          "type": "uint256"
        }
      ],
      "stateMutability": "view",
      "type": "function",
      "constant": true
    },
    {
      "inputs": [
        {
          "internalType": "enum CamoNFT.RarityLevel",
          "name": "rarity",
          "type": "uint8"
        }
      ],
      "name": "mintNFT",
      "outputs": [],
      "stateMutability": "payable",
      "type": "function",
      "payable": true
    },
    {
      "inputs": [
        {
          "internalType": "address",
          "name": "from",
          "type": "address"
        },
        {
          "internalType": "address",
          "name": "to",
          "type": "address"
        },
        {
          "internalType": "uint256",
          "name": "tokenId",
          "type": "uint256"
        }
      ],
      "name": "transferFrom",
      "outputs": [],
      "stateMutability": "nonpayable",
      "type": "function"
    },
    {
      "inputs": [
        {
          "internalType": "enum CamoNFT.RarityLevel",
          "name": "rarity",
          "type": "uint8"
        }
      ],
      "name": "getPrice",
      "outputs": [
        {
          "internalType": "uint256",
          "name": "",
          "type": "uint256"
        }
      ],
      "stateMutability": "pure",
      "type": "function",
      "constant": true
    },
    {
      "inputs": [
        {
          "internalType": "enum CamoNFT.RarityLevel",
          "name": "rarity",
          "type": "uint8"
        }
      ],
      "name": "getCap",
      "outputs": [
        {
          "internalType": "uint256",
          "name": "",
          "type": "uint256"
        }
      ],
      "stateMutability": "pure",
      "type": "function",
      "constant": true
    },
    {
      "inputs": [
        {
          "internalType": "enum CamoNFT.RarityLevel",
          "name": "rarity",
          "type": "uint8"
        }
      ],
      "name": "getCount",
      "outputs": [
        {
          "internalType": "uint256",
          "name": "",
          "type": "uint256"
        }
      ],
      "stateMutability": "view",
      "type": "function",
      "constant": true
    },
    {
      "inputs": [
        {
          "internalType": "address",
          "name": "owner",
          "type": "address"
        }
      ],
      "name": "getOwnedTokens",
      "outputs": [
        {
          "internalType": "uint256[]",
          "name": "",
          "type": "uint256[]"
        }
      ],
      "stateMutability": "view",
      "type": "function",
      "constant": true
    },
    {
      "inputs": [
        {
          "internalType": "address",
          "name": "user",
          "type": "address"
        }
      ],
      "name": "updateTimestamp",
      "outputs": [],
      "stateMutability": "nonpayable",
      "type": "function"
    },
    {
      "inputs": [],
      "name": "withdrawFunds",
      "outputs": [],
      "stateMutability": "payable",
      "type": "function",
      "payable": true
    },
    {
      "inputs": [],
      "name": "checkBalance",
      "outputs": [
        {
          "internalType": "uint256",
          "name": "",
          "type": "uint256"
        }
      ],
      "stateMutability": "view",
      "type": "function",
      "constant": true
    }
  ],
  "bytecode": "0x608060405260006007553480156200001657600080fd5b50604051620049f3380380620049f383398181016040528101906200003c91906200026e565b6040518060400160405280600781526020017f43616d6f4e4654000000000000000000000000000000000000000000000000008152506040518060400160405280600481526020017f434e4654000000000000000000000000000000000000000000000000000000008152508160009081620000b991906200051a565b508060019081620000cb91906200051a565b505050620000ee620000e26200013660201b60201c565b6200013e60201b60201c565b80600a60006101000a81548173ffffffffffffffffffffffffffffffffffffffff021916908373ffffffffffffffffffffffffffffffffffffffff1602179055505062000601565b600033905090565b6000600660009054906101000a900473ffffffffffffffffffffffffffffffffffffffff16905081600660006101000a81548173ffffffffffffffffffffffffffffffffffffffff021916908373ffffffffffffffffffffffffffffffffffffffff1602179055508173ffffffffffffffffffffffffffffffffffffffff168173ffffffffffffffffffffffffffffffffffffffff167f8be0079c531659141344cd1fd0a4f28419497f9722a3daafe3b4186f6b6457e060405160405180910390a35050565b600080fd5b600073ffffffffffffffffffffffffffffffffffffffff82169050919050565b6000620002368262000209565b9050919050565b620002488162000229565b81146200025457600080fd5b50565b60008151905062000268816200023d565b92915050565b60006020828403121562000287576200028662000204565b5b6000620002978482850162000257565b91505092915050565b600081519050919050565b7f4e487b7100000000000000000000000000000000000000000000000000000000600052604160045260246000fd5b7f4e487b7100000000000000000000000000000000000000000000000000000000600052602260045260246000fd5b600060028204905060018216806200032257607f821691505b602082108103620003385762000337620002da565b5b50919050565b60008190508160005260206000209050919050565b60006020601f8301049050919050565b600082821b905092915050565b600060088302620003a27fffffffffffffffffffffffffffffffffffffffffffffffffffffffffffffffff8262000363565b620003ae868362000363565b95508019841693508086168417925050509392505050565b6000819050919050565b6000819050919050565b6000620003fb620003f5620003ef84620003c6565b620003d0565b620003c6565b9050919050565b6000819050919050565b6200041783620003da565b6200042f620004268262000402565b84845462000370565b825550505050565b600090565b6200044662000437565b620004538184846200040c565b505050565b5b818110156200047b576200046f6000826200043c565b60018101905062000459565b5050565b601f821115620004ca5762000494816200033e565b6200049f8462000353565b81016020851015620004af578190505b620004c7620004be8562000353565b83018262000458565b50505b505050565b600082821c905092915050565b6000620004ef60001984600802620004cf565b1980831691505092915050565b60006200050a8383620004dc565b9150826002028217905092915050565b6200052582620002a0565b67ffffffffffffffff811115620005415762000540620002ab565b5b6200054d825462000309565b6200055a8282856200047f565b600060209050601f8311600181146200059257600084156200057d578287015190505b620005898582620004fc565b865550620005f9565b601f198416620005a2866200033e565b60005b82811015620005cc57848901518255600182019150602085019450602081019050620005a5565b86831015620005ec5784890151620005e8601f891682620004dc565b8355505b6001600288020188555050505b505050505050565b6143e280620006116000396000f3fe6080604052600436106102515760003560e01c8063a6591cdf11610139578063ce0348c6116100b6578063e04af1e21161007a578063e04af1e2146108d9578063e72c008414610904578063e985e9c51461092f578063f2fde38b1461096c578063f86325ed14610995578063fa77983e146109c057610251565b8063ce0348c6146107de578063cedc0b3414610809578063d519989914610834578063d9d616551461085f578063ddcb76791461089c57610251565b8063b764ba6a116100fd578063b764ba6a146106f7578063b88d4fde14610722578063bdc71fb81461074b578063c71daccb14610776578063c87b56dd146107a157610251565b8063a6591cdf14610610578063a819dfbb1461063b578063b011244714610678578063b246e5f5146106a3578063b60707ed146106ce57610251565b80633bf1d381116101d257806370a082311161019657806370a0823114610512578063715018a61461054f578063886715f6146105665780638da5cb5b1461059157806395d89b41146105bc578063a22cb465146105e757610251565b80633bf1d3811461042b57806342842e0e1461045657806350d6f7121461047f57806362ab7da3146104aa5780636352211e146104d557610251565b806323b872dd1161021957806323b872dd1461034f57806324600fc314610378578063265aa621146103825780632e119c79146103c357806337f1e7f2146103ee57610251565b806301ffc9a71461025657806306fdde0314610293578063081812fc146102be578063095ea7b3146102fb5780630cd389aa14610324575b600080fd5b34801561026257600080fd5b5061027d60048036038101906102789190613011565b6109dc565b60405161028a9190613059565b60405180910390f35b34801561029f57600080fd5b506102a8610abe565b6040516102b59190613104565b60405180910390f35b3480156102ca57600080fd5b506102e560048036038101906102e0919061315c565b610b50565b6040516102f291906131ca565b60405180910390f35b34801561030757600080fd5b50610322600480360381019061031d9190613211565b610b96565b005b34801561033057600080fd5b50610339610cad565b6040516103469190613260565b60405180910390f35b34801561035b57600080fd5b506103766004803603810190610371919061327b565b610cb3565b005b610380610f68565b005b34801561038e57600080fd5b506103a960048036038101906103a4919061315c565b610fb9565b6040516103ba959493929190613345565b60405180910390f35b3480156103cf57600080fd5b506103d861101c565b6040516103e59190613260565b60405180910390f35b3480156103fa57600080fd5b50610415600480360381019061041091906133bd565b61102f565b6040516104229190613260565b60405180910390f35b34801561043757600080fd5b506104406111be565b60405161044d9190613260565b60405180910390f35b34801561046257600080fd5b5061047d6004803603810190610478919061327b565b6111c4565b005b34801561048b57600080fd5b506104946111e4565b6040516104a19190613260565b60405180910390f35b3480156104b657600080fd5b506104bf6111ea565b6040516104cc9190613260565b60405180910390f35b3480156104e157600080fd5b506104fc60048036038101906104f7919061315c565b6111f0565b60405161050991906131ca565b60405180910390f35b34801561051e57600080fd5b50610539600480360381019061053491906133ea565b611276565b6040516105469190613260565b60405180910390f35b34801561055b57600080fd5b5061056461132d565b005b34801561057257600080fd5b5061057b611341565b6040516105889190613260565b60405180910390f35b34801561059d57600080fd5b506105a6611347565b6040516105b391906131ca565b60405180910390f35b3480156105c857600080fd5b506105d1611371565b6040516105de9190613104565b60405180910390f35b3480156105f357600080fd5b5061060e60048036038101906106099190613443565b611403565b005b34801561061c57600080fd5b50610625611419565b60405161063291906131ca565b60405180910390f35b34801561064757600080fd5b50610662600480360381019061065d91906133bd565b61143f565b60405161066f9190613260565b60405180910390f35b34801561068457600080fd5b5061068d61158d565b60405161069a9190613260565b60405180910390f35b3480156106af57600080fd5b506106b8611592565b6040516106c59190613260565b60405180910390f35b3480156106da57600080fd5b506106f560048036038101906106f091906133ea565b611598565b005b34801561070357600080fd5b5061070c6116d0565b6040516107199190613260565b60405180910390f35b34801561072e57600080fd5b50610749600480360381019061074491906135b8565b6116e3565b005b34801561075757600080fd5b50610760611745565b60405161076d9190613260565b60405180910390f35b34801561078257600080fd5b5061078b611758565b6040516107989190613260565b60405180910390f35b3480156107ad57600080fd5b506107c860048036038101906107c3919061315c565b611768565b6040516107d59190613104565b60405180910390f35b3480156107ea57600080fd5b506107f36117d0565b6040516108009190613260565b60405180910390f35b34801561081557600080fd5b5061081e6117d6565b60405161082b9190613260565b60405180910390f35b34801561084057600080fd5b506108496117e9565b6040516108569190613260565b60405180910390f35b34801561086b57600080fd5b50610886600480360381019061088191906133ea565b6117fc565b60405161089391906136f9565b60405180910390f35b3480156108a857600080fd5b506108c360048036038101906108be91906133bd565b611923565b6040516108d09190613260565b60405180910390f35b3480156108e557600080fd5b506108ee611a6f565b6040516108fb9190613260565b60405180910390f35b34801561091057600080fd5b50610919611a75565b6040516109269190613260565b60405180910390f35b34801561093b57600080fd5b506109566004803603810190610951919061371b565b611a7a565b6040516109639190613059565b60405180910390f35b34801561097857600080fd5b50610993600480360381019061098e91906133ea565b611b0e565b005b3480156109a157600080fd5b506109aa611b91565b6040516109b79190613260565b60405180910390f35b6109da60048036038101906109d591906133bd565b611b98565b005b60007f80ac58cd000000000000000000000000000000000000000000000000000000007bffffffffffffffffffffffffffffffffffffffffffffffffffffffff1916827bffffffffffffffffffffffffffffffffffffffffffffffffffffffff19161480610aa757507f5b5e139f000000000000000000000000000000000000000000000000000000007bffffffffffffffffffffffffffffffffffffffffffffffffffffffff1916827bffffffffffffffffffffffffffffffffffffffffffffffffffffffff1916145b80610ab75750610ab682611ec4565b5b9050919050565b606060008054610acd9061378a565b80601f0160208091040260200160405190810160405280929190818152602001828054610af99061378a565b8015610b465780601f10610b1b57610100808354040283529160200191610b46565b820191906000526020600020905b815481529060010190602001808311610b2957829003601f168201915b5050505050905090565b6000610b5b82611f2e565b6004600083815260200190815260200160002060009054906101000a900473ffffffffffffffffffffffffffffffffffffffff169050919050565b6000610ba1826111f0565b90508073ffffffffffffffffffffffffffffffffffffffff168373ffffffffffffffffffffffffffffffffffffffff1603610c11576040517f08c379a0000000000000000000000000000000000000000000000000000000008152600401610c089061382d565b60405180910390fd5b8073ffffffffffffffffffffffffffffffffffffffff16610c30611f79565b73ffffffffffffffffffffffffffffffffffffffff161480610c5f5750610c5e81610c59611f79565b611a7a565b5b610c9e576040517f08c379a0000000000000000000000000000000000000000000000000000000008152600401610c95906138bf565b60405180910390fd5b610ca88383611f81565b505050565b600c5481565b610cbe83838361203a565b610ccf610cc9611f79565b8261209a565b610d0e576040517f08c379a0000000000000000000000000000000000000000000000000000000008152600401610d059061392b565b60405180910390fd5b8173ffffffffffffffffffffffffffffffffffffffff168373ffffffffffffffffffffffffffffffffffffffff1603610d7c576040517f08c379a0000000000000000000000000000000000000000000000000000000008152600401610d7390613997565b60405180910390fd5b6000600960008573ffffffffffffffffffffffffffffffffffffffff1673ffffffffffffffffffffffffffffffffffffffff168152602001908152602001600020905060005b8180549050811015610e805782828281548110610de257610de16139b7565b5b906000526020600020015403610e6d578160018380549050610e049190613a15565b81548110610e1557610e146139b7565b5b9060005260206000200154828281548110610e3357610e326139b7565b5b906000526020600020018190555081805480610e5257610e51613a49565b5b60019003818190600052602060002001600090559055610e80565b8080610e7890613a78565b915050610dc2565b50600960008473ffffffffffffffffffffffffffffffffffffffff1673ffffffffffffffffffffffffffffffffffffffff168152602001908152602001600020829080600181540180825580915050600190039060005260206000200160009091909190915055610ef284848461212f565b426008600084815260200190815260200160002060020181905550826008600084815260200190815260200160002060010160006101000a81548173ffffffffffffffffffffffffffffffffffffffff021916908373ffffffffffffffffffffffffffffffffffffffff16021790555050505050565b610f70612428565b3373ffffffffffffffffffffffffffffffffffffffff166108fc479081150290604051600060405180830381858888f19350505050158015610fb6573d6000803e3d6000fd5b50565b60086020528060005260406000206000915090508060000154908060010160009054906101000a900473ffffffffffffffffffffffffffffffffffffffff16908060010160149054906101000a900460ff16908060020154908060030154905085565b6003620f424061102c9190613ac0565b81565b6000806004811115611044576110436132ce565b5b826004811115611057576110566132ce565b5b03611073576001620f424061106c9190613ac0565b90506111b9565b60016004811115611087576110866132ce565b5b82600481111561109a576110996132ce565b5b036110b6576002620f42406110af9190613ac0565b90506111b9565b600260048111156110ca576110c96132ce565b5b8260048111156110dd576110dc6132ce565b5b036110f9576003620f42406110f29190613ac0565b90506111b9565b6003600481111561110d5761110c6132ce565b5b8260048111156111205761111f6132ce565b5b0361113c576005620f42406111359190613ac0565b90506111b9565b60048081111561114f5761114e6132ce565b5b826004811115611162576111616132ce565b5b0361117e576008620f42406111779190613ac0565b90506111b9565b6040517f08c379a00000000000000000000000000000000000000000000000000000000081526004016111b090613b4e565b60405180910390fd5b919050565b600e5481565b6111df838383604051806020016040528060008152506116e3565b505050565b600b5481565b61038481565b6000806111fc836124a6565b9050600073ffffffffffffffffffffffffffffffffffffffff168173ffffffffffffffffffffffffffffffffffffffff160361126d576040517f08c379a000000000000000000000000000000000000000000000000000000000815260040161126490613bba565b60405180910390fd5b80915050919050565b60008073ffffffffffffffffffffffffffffffffffffffff168273ffffffffffffffffffffffffffffffffffffffff16036112e6576040517f08c379a00000000000000000000000000000000000000000000000000000000081526004016112dd90613c4c565b60405180910390fd5b600360008373ffffffffffffffffffffffffffffffffffffffff1673ffffffffffffffffffffffffffffffffffffffff168152602001908152602001600020549050919050565b611335612428565b61133f60006124e3565b565b6157e481565b6000600660009054906101000a900473ffffffffffffffffffffffffffffffffffffffff16905090565b6060600180546113809061378a565b80601f01602080910402602001604051908101604052809291908181526020018280546113ac9061378a565b80156113f95780601f106113ce576101008083540402835291602001916113f9565b820191906000526020600020905b8154815290600101906020018083116113dc57829003601f168201915b5050505050905090565b61141561140e611f79565b83836125a9565b5050565b600a60009054906101000a900473ffffffffffffffffffffffffffffffffffffffff1681565b6000806004811115611454576114536132ce565b5b826004811115611467576114666132ce565b5b0361147657600b549050611588565b6001600481111561148a576114896132ce565b5b82600481111561149d5761149c6132ce565b5b036114ac57600c549050611588565b600260048111156114c0576114bf6132ce565b5b8260048111156114d3576114d26132ce565b5b036114e257600d549050611588565b600360048111156114f6576114f56132ce565b5b826004811115611509576115086132ce565b5b0361151857600e549050611588565b60048081111561152b5761152a6132ce565b5b82600481111561153e5761153d6132ce565b5b0361154d57600f549050611588565b6040517f08c379a000000000000000000000000000000000000000000000000000000000815260040161157f90613b4e565b60405180910390fd5b919050565b606481565b6109c481565b3373ffffffffffffffffffffffffffffffffffffffff16600a60009054906101000a900473ffffffffffffffffffffffffffffffffffffffff1673ffffffffffffffffffffffffffffffffffffffff1614611628576040517f08c379a000000000000000000000000000000000000000000000000000000000815260040161161f90613cb8565b60405180910390fd5b6000600960008373ffffffffffffffffffffffffffffffffffffffff1673ffffffffffffffffffffffffffffffffffffffff168152602001908152602001600020905060005b81805490508110156116cb57600082828154811061168f5761168e6139b7565b5b906000526020600020015490504260086000838152602001908152602001600020600201819055505080806116c390613a78565b91505061166e565b505050565b6002620f42406116e09190613ac0565b81565b6116f46116ee611f79565b8361209a565b611733576040517f08c379a000000000000000000000000000000000000000000000000000000000815260040161172a90613d4a565b60405180910390fd5b61173f84848484612715565b50505050565b6008620f42406117559190613ac0565b81565b6000611762612428565b47905090565b606061177382611f2e565b600061177d612771565b9050600081511161179d57604051806020016040528060008152506117c8565b806117a784612788565b6040516020016117b8929190613da6565b6040516020818303038152906040525b915050919050565b600f5481565b6005620f42406117e69190613ac0565b81565b6001620f42406117f99190613ac0565b81565b60603373ffffffffffffffffffffffffffffffffffffffff16600a60009054906101000a900473ffffffffffffffffffffffffffffffffffffffff1673ffffffffffffffffffffffffffffffffffffffff161461188e576040517f08c379a000000000000000000000000000000000000000000000000000000000815260040161188590613cb8565b60405180910390fd5b600960008373ffffffffffffffffffffffffffffffffffffffff1673ffffffffffffffffffffffffffffffffffffffff16815260200190815260200160002080548060200260200160405190810160405280929190818152602001828054801561191757602002820191906000526020600020905b815481526020019060010190808311611903575b50505050509050919050565b6000806004811115611938576119376132ce565b5b82600481111561194b5761194a6132ce565b5b0361195a576157e49050611a6a565b6001600481111561196e5761196d6132ce565b5b826004811115611981576119806132ce565b5b03611990576109c49050611a6a565b600260048111156119a4576119a36132ce565b5b8260048111156119b7576119b66132ce565b5b036119c6576103849050611a6a565b600360048111156119da576119d96132ce565b5b8260048111156119ed576119ec6132ce565b5b036119fb5760649050611a6a565b600480811115611a0e57611a0d6132ce565b5b826004811115611a2157611a206132ce565b5b03611a2f5760199050611a6a565b6040517f08c379a0000000000000000000000000000000000000000000000000000000008152600401611a6190613b4e565b60405180910390fd5b919050565b600d5481565b601981565b6000600560008473ffffffffffffffffffffffffffffffffffffffff1673ffffffffffffffffffffffffffffffffffffffff16815260200190815260200160002060008373ffffffffffffffffffffffffffffffffffffffff1673ffffffffffffffffffffffffffffffffffffffff16815260200190815260200160002060009054906101000a900460ff16905092915050565b611b16612428565b600073ffffffffffffffffffffffffffffffffffffffff168173ffffffffffffffffffffffffffffffffffffffff1603611b85576040517f08c379a0000000000000000000000000000000000000000000000000000000008152600401611b7c90613e3c565b60405180910390fd5b611b8e816124e3565b50565b620f424081565b60006004811115611bac57611bab6132ce565b5b816004811115611bbf57611bbe6132ce565b5b10158015611bf15750600480811115611bdb57611bda6132ce565b5b816004811115611bee57611bed6132ce565b5b11155b611c30576040517f08c379a0000000000000000000000000000000000000000000000000000000008152600401611c2790613b4e565b60405180910390fd5b6000611c3b8261102f565b905080341015611c80576040517f08c379a0000000000000000000000000000000000000000000000000000000008152600401611c7790613ea8565b60405180910390fd5b611c8982611923565b611c928361143f565b10611cd2576040517f08c379a0000000000000000000000000000000000000000000000000000000008152600401611cc990613f14565b60405180910390fd5b6000600754905060076000815480929190611cec90613a78565b9190505550611cfb3382612856565b600960003373ffffffffffffffffffffffffffffffffffffffff1673ffffffffffffffffffffffffffffffffffffffff1681526020019081526020016000208190806001815401808255809150506001900390600052602060002001600090919091909150556040518060a001604052808281526020013373ffffffffffffffffffffffffffffffffffffffff168152602001846004811115611da157611da06132ce565b5b815260200142815260200142815250600860008381526020019081526020016000206000820151816000015560208201518160010160006101000a81548173ffffffffffffffffffffffffffffffffffffffff021916908373ffffffffffffffffffffffffffffffffffffffff16021790555060408201518160010160146101000a81548160ff02191690836004811115611e3f57611e3e6132ce565b5b02179055506060820151816002015560808201518160030155905050611e6483612874565b81341115611ebf573373ffffffffffffffffffffffffffffffffffffffff166108fc8334611e929190613a15565b9081150290604051600060405180830381858888f19350505050158015611ebd573d6000803e3d6000fd5b505b505050565b60007f01ffc9a7000000000000000000000000000000000000000000000000000000007bffffffffffffffffffffffffffffffffffffffffffffffffffffffff1916827bffffffffffffffffffffffffffffffffffffffffffffffffffffffff1916149050919050565b611f37816129e3565b611f76576040517f08c379a0000000000000000000000000000000000000000000000000000000008152600401611f6d90613bba565b60405180910390fd5b50565b600033905090565b816004600083815260200190815260200160002060006101000a81548173ffffffffffffffffffffffffffffffffffffffff021916908373ffffffffffffffffffffffffffffffffffffffff160217905550808273ffffffffffffffffffffffffffffffffffffffff16611ff4836111f0565b73ffffffffffffffffffffffffffffffffffffffff167f8c5be1e5ebec7d5bd14f71427d1e84f3dd0314c0f7b2291e5b200ac8c7c3b92560405160405180910390a45050565b61204b612045611f79565b8261209a565b61208a576040517f08c379a000000000000000000000000000000000000000000000000000000000815260040161208190613d4a565b60405180910390fd5b61209583838361212f565b505050565b6000806120a6836111f0565b90508073ffffffffffffffffffffffffffffffffffffffff168473ffffffffffffffffffffffffffffffffffffffff1614806120e857506120e78185611a7a565b5b8061212657508373ffffffffffffffffffffffffffffffffffffffff1661210e84610b50565b73ffffffffffffffffffffffffffffffffffffffff16145b91505092915050565b8273ffffffffffffffffffffffffffffffffffffffff1661214f826111f0565b73ffffffffffffffffffffffffffffffffffffffff16146121a5576040517f08c379a000000000000000000000000000000000000000000000000000000000815260040161219c90613fa6565b60405180910390fd5b600073ffffffffffffffffffffffffffffffffffffffff168273ffffffffffffffffffffffffffffffffffffffff1603612214576040517f08c379a000000000000000000000000000000000000000000000000000000000815260040161220b90614038565b60405180910390fd5b6122218383836001612a24565b8273ffffffffffffffffffffffffffffffffffffffff16612241826111f0565b73ffffffffffffffffffffffffffffffffffffffff1614612297576040517f08c379a000000000000000000000000000000000000000000000000000000000815260040161228e90613fa6565b60405180910390fd5b6004600082815260200190815260200160002060006101000a81549073ffffffffffffffffffffffffffffffffffffffff02191690556001600360008573ffffffffffffffffffffffffffffffffffffffff1673ffffffffffffffffffffffffffffffffffffffff168152602001908152602001600020600082825403925050819055506001600360008473ffffffffffffffffffffffffffffffffffffffff1673ffffffffffffffffffffffffffffffffffffffff16815260200190815260200160002060008282540192505081905550816002600083815260200190815260200160002060006101000a81548173ffffffffffffffffffffffffffffffffffffffff021916908373ffffffffffffffffffffffffffffffffffffffff160217905550808273ffffffffffffffffffffffffffffffffffffffff168473ffffffffffffffffffffffffffffffffffffffff167fddf252ad1be2c89b69c2b068fc378daa952ba7f163c4a11628f55a4df523b3ef60405160405180910390a46124238383836001612a2a565b505050565b612430611f79565b73ffffffffffffffffffffffffffffffffffffffff1661244e611347565b73ffffffffffffffffffffffffffffffffffffffff16146124a4576040517f08c379a000000000000000000000000000000000000000000000000000000000815260040161249b906140a4565b60405180910390fd5b565b60006002600083815260200190815260200160002060009054906101000a900473ffffffffffffffffffffffffffffffffffffffff169050919050565b6000600660009054906101000a900473ffffffffffffffffffffffffffffffffffffffff16905081600660006101000a81548173ffffffffffffffffffffffffffffffffffffffff021916908373ffffffffffffffffffffffffffffffffffffffff1602179055508173ffffffffffffffffffffffffffffffffffffffff168173ffffffffffffffffffffffffffffffffffffffff167f8be0079c531659141344cd1fd0a4f28419497f9722a3daafe3b4186f6b6457e060405160405180910390a35050565b8173ffffffffffffffffffffffffffffffffffffffff168373ffffffffffffffffffffffffffffffffffffffff1603612617576040517f08c379a000000000000000000000000000000000000000000000000000000000815260040161260e90614110565b60405180910390fd5b80600560008573ffffffffffffffffffffffffffffffffffffffff1673ffffffffffffffffffffffffffffffffffffffff16815260200190815260200160002060008473ffffffffffffffffffffffffffffffffffffffff1673ffffffffffffffffffffffffffffffffffffffff16815260200190815260200160002060006101000a81548160ff0219169083151502179055508173ffffffffffffffffffffffffffffffffffffffff168373ffffffffffffffffffffffffffffffffffffffff167f17307eab39ab6107e8899845ad3d59bd9653f200f220920489ca2b5937696c31836040516127089190613059565b60405180910390a3505050565b61272084848461212f565b61272c84848484612a30565b61276b576040517f08c379a0000000000000000000000000000000000000000000000000000000008152600401612762906141a2565b60405180910390fd5b50505050565b606060405180602001604052806000815250905090565b60606000600161279784612bb7565b01905060008167ffffffffffffffff8111156127b6576127b561348d565b5b6040519080825280601f01601f1916602001820160405280156127e85781602001600182028036833780820191505090505b509050600082602001820190505b60011561284b578080600190039150507f3031323334353637383961626364656600000000000000000000000000000000600a86061a8153600a858161283f5761283e6141c2565b5b049450600085036127f6575b819350505050919050565b612870828260405180602001604052806000815250612d0a565b5050565b60006004811115612888576128876132ce565b5b81600481111561289b5761289a6132ce565b5b036128bd57600b60008154809291906128b390613a78565b91905055506129e0565b600160048111156128d1576128d06132ce565b5b8160048111156128e4576128e36132ce565b5b0361290657600c60008154809291906128fc90613a78565b91905055506129df565b6002600481111561291a576129196132ce565b5b81600481111561292d5761292c6132ce565b5b0361294f57600d600081548092919061294590613a78565b91905055506129de565b60036004811115612963576129626132ce565b5b816004811115612976576129756132ce565b5b0361299857600e600081548092919061298e90613a78565b91905055506129dd565b6004808111156129ab576129aa6132ce565b5b8160048111156129be576129bd6132ce565b5b036129dc57600f60008154809291906129d690613a78565b91905055505b5b5b5b5b50565b60008073ffffffffffffffffffffffffffffffffffffffff16612a05836124a6565b73ffffffffffffffffffffffffffffffffffffffff1614159050919050565b50505050565b50505050565b6000612a518473ffffffffffffffffffffffffffffffffffffffff16612d65565b15612baa578373ffffffffffffffffffffffffffffffffffffffff1663150b7a02612a7a611f79565b8786866040518563ffffffff1660e01b8152600401612a9c9493929190614246565b6020604051808303816000875af1925050508015612ad857506040513d601f19601f82011682018060405250810190612ad591906142a7565b60015b612b5a573d8060008114612b08576040519150601f19603f3d011682016040523d82523d6000602084013e612b0d565b606091505b506000815103612b52576040517f08c379a0000000000000000000000000000000000000000000000000000000008152600401612b49906141a2565b60405180910390fd5b805181602001fd5b63150b7a0260e01b7bffffffffffffffffffffffffffffffffffffffffffffffffffffffff1916817bffffffffffffffffffffffffffffffffffffffffffffffffffffffff191614915050612baf565b600190505b949350505050565b600080600090507a184f03e93ff9f4daa797ed6e38ed64bf6a1f0100000000000000008310612c15577a184f03e93ff9f4daa797ed6e38ed64bf6a1f0100000000000000008381612c0b57612c0a6141c2565b5b0492506040810190505b6d04ee2d6d415b85acef81000000008310612c52576d04ee2d6d415b85acef81000000008381612c4857612c476141c2565b5b0492506020810190505b662386f26fc100008310612c8157662386f26fc100008381612c7757612c766141c2565b5b0492506010810190505b6305f5e1008310612caa576305f5e1008381612ca057612c9f6141c2565b5b0492506008810190505b6127108310612ccf576127108381612cc557612cc46141c2565b5b0492506004810190505b60648310612cf25760648381612ce857612ce76141c2565b5b0492506002810190505b600a8310612d01576001810190505b80915050919050565b612d148383612d88565b612d216000848484612a30565b612d60576040517f08c379a0000000000000000000000000000000000000000000000000000000008152600401612d57906141a2565b60405180910390fd5b505050565b6000808273ffffffffffffffffffffffffffffffffffffffff163b119050919050565b600073ffffffffffffffffffffffffffffffffffffffff168273ffffffffffffffffffffffffffffffffffffffff1603612df7576040517f08c379a0000000000000000000000000000000000000000000000000000000008152600401612dee90614320565b60405180910390fd5b612e00816129e3565b15612e40576040517f08c379a0000000000000000000000000000000000000000000000000000000008152600401612e379061438c565b60405180910390fd5b612e4e600083836001612a24565b612e57816129e3565b15612e97576040517f08c379a0000000000000000000000000000000000000000000000000000000008152600401612e8e9061438c565b60405180910390fd5b6001600360008473ffffffffffffffffffffffffffffffffffffffff1673ffffffffffffffffffffffffffffffffffffffff16815260200190815260200160002060008282540192505081905550816002600083815260200190815260200160002060006101000a81548173ffffffffffffffffffffffffffffffffffffffff021916908373ffffffffffffffffffffffffffffffffffffffff160217905550808273ffffffffffffffffffffffffffffffffffffffff16600073ffffffffffffffffffffffffffffffffffffffff167fddf252ad1be2c89b69c2b068fc378daa952ba7f163c4a11628f55a4df523b3ef60405160405180910390a4612fa1600083836001612a2a565b5050565b6000604051905090565b600080fd5b600080fd5b60007fffffffff0000000000000000000000000000000000000000000000000000000082169050919050565b612fee81612fb9565b8114612ff957600080fd5b50565b60008135905061300b81612fe5565b92915050565b60006020828403121561302757613026612faf565b5b600061303584828501612ffc565b91505092915050565b60008115159050919050565b6130538161303e565b82525050565b600060208201905061306e600083018461304a565b92915050565b600081519050919050565b600082825260208201905092915050565b60005b838110156130ae578082015181840152602081019050613093565b60008484015250505050565b6000601f19601f8301169050919050565b60006130d682613074565b6130e0818561307f565b93506130f0818560208601613090565b6130f9816130ba565b840191505092915050565b6000602082019050818103600083015261311e81846130cb565b905092915050565b6000819050919050565b61313981613126565b811461314457600080fd5b50565b60008135905061315681613130565b92915050565b60006020828403121561317257613171612faf565b5b600061318084828501613147565b91505092915050565b600073ffffffffffffffffffffffffffffffffffffffff82169050919050565b60006131b482613189565b9050919050565b6131c4816131a9565b82525050565b60006020820190506131df60008301846131bb565b92915050565b6131ee816131a9565b81146131f957600080fd5b50565b60008135905061320b816131e5565b92915050565b6000806040838503121561322857613227612faf565b5b6000613236858286016131fc565b925050602061324785828601613147565b9150509250929050565b61325a81613126565b82525050565b60006020820190506132756000830184613251565b92915050565b60008060006060848603121561329457613293612faf565b5b60006132a2868287016131fc565b93505060206132b3868287016131fc565b92505060406132c486828701613147565b9150509250925092565b7f4e487b7100000000000000000000000000000000000000000000000000000000600052602160045260246000fd5b6005811061330e5761330d6132ce565b5b50565b600081905061331f826132fd565b919050565b600061332f82613311565b9050919050565b61333f81613324565b82525050565b600060a08201905061335a6000830188613251565b61336760208301876131bb565b6133746040830186613336565b6133816060830185613251565b61338e6080830184613251565b9695505050505050565b600581106133a557600080fd5b50565b6000813590506133b781613398565b92915050565b6000602082840312156133d3576133d2612faf565b5b60006133e1848285016133a8565b91505092915050565b600060208284031215613400576133ff612faf565b5b600061340e848285016131fc565b91505092915050565b6134208161303e565b811461342b57600080fd5b50565b60008135905061343d81613417565b92915050565b6000806040838503121561345a57613459612faf565b5b6000613468858286016131fc565b92505060206134798582860161342e565b9150509250929050565b600080fd5b600080fd5b7f4e487b7100000000000000000000000000000000000000000000000000000000600052604160045260246000fd5b6134c5826130ba565b810181811067ffffffffffffffff821117156134e4576134e361348d565b5b80604052505050565b60006134f7612fa5565b905061350382826134bc565b919050565b600067ffffffffffffffff8211156135235761352261348d565b5b61352c826130ba565b9050602081019050919050565b82818337600083830152505050565b600061355b61355684613508565b6134ed565b90508281526020810184848401111561357757613576613488565b5b613582848285613539565b509392505050565b600082601f83011261359f5761359e613483565b5b81356135af848260208601613548565b91505092915050565b600080600080608085870312156135d2576135d1612faf565b5b60006135e0878288016131fc565b94505060206135f1878288016131fc565b935050604061360287828801613147565b925050606085013567ffffffffffffffff81111561362357613622612fb4565b5b61362f8782880161358a565b91505092959194509250565b600081519050919050565b600082825260208201905092915050565b6000819050602082019050919050565b61367081613126565b82525050565b60006136828383613667565b60208301905092915050565b6000602082019050919050565b60006136a68261363b565b6136b08185613646565b93506136bb83613657565b8060005b838110156136ec5781516136d38882613676565b97506136de8361368e565b9250506001810190506136bf565b5085935050505092915050565b60006020820190508181036000830152613713818461369b565b905092915050565b6000806040838503121561373257613731612faf565b5b6000613740858286016131fc565b9250506020613751858286016131fc565b9150509250929050565b7f4e487b7100000000000000000000000000000000000000000000000000000000600052602260045260246000fd5b600060028204905060018216806137a257607f821691505b6020821081036137b5576137b461375b565b5b50919050565b7f4552433732313a20617070726f76616c20746f2063757272656e74206f776e6560008201527f7200000000000000000000000000000000000000000000000000000000000000602082015250565b600061381760218361307f565b9150613822826137bb565b604082019050919050565b600060208201905081810360008301526138468161380a565b9050919050565b7f4552433732313a20617070726f76652063616c6c6572206973206e6f7420746f60008201527f6b656e206f776e6572206f7220617070726f76656420666f7220616c6c000000602082015250565b60006138a9603d8361307f565b91506138b48261384d565b604082019050919050565b600060208201905081810360008301526138d88161389c565b9050919050565b7f5472616e73666572206e6f7420617574686f72697a6564000000000000000000600082015250565b600061391560178361307f565b9150613920826138df565b602082019050919050565b6000602082019050818103600083015261394481613908565b9050919050565b7f576861742061726520796f7520646f696e673f00000000000000000000000000600082015250565b600061398160138361307f565b915061398c8261394b565b602082019050919050565b600060208201905081810360008301526139b081613974565b9050919050565b7f4e487b7100000000000000000000000000000000000000000000000000000000600052603260045260246000fd5b7f4e487b7100000000000000000000000000000000000000000000000000000000600052601160045260246000fd5b6000613a2082613126565b9150613a2b83613126565b9250828203905081811115613a4357613a426139e6565b5b92915050565b7f4e487b7100000000000000000000000000000000000000000000000000000000600052603160045260246000fd5b6000613a8382613126565b91507fffffffffffffffffffffffffffffffffffffffffffffffffffffffffffffffff8203613ab557613ab46139e6565b5b600182019050919050565b6000613acb82613126565b9150613ad683613126565b9250828202613ae481613126565b91508282048414831517613afb57613afa6139e6565b5b5092915050565b7f496e76616c696420726172697479206c6576656c000000000000000000000000600082015250565b6000613b3860148361307f565b9150613b4382613b02565b602082019050919050565b60006020820190508181036000830152613b6781613b2b565b9050919050565b7f4552433732313a20696e76616c696420746f6b656e2049440000000000000000600082015250565b6000613ba460188361307f565b9150613baf82613b6e565b602082019050919050565b60006020820190508181036000830152613bd381613b97565b9050919050565b7f4552433732313a2061646472657373207a65726f206973206e6f74206120766160008201527f6c6964206f776e65720000000000000000000000000000000000000000000000602082015250565b6000613c3660298361307f565b9150613c4182613bda565b604082019050919050565b60006020820190508181036000830152613c6581613c29565b9050919050565b7f556e617574686f72697a656420636f6e74726163740000000000000000000000600082015250565b6000613ca260158361307f565b9150613cad82613c6c565b602082019050919050565b60006020820190508181036000830152613cd181613c95565b9050919050565b7f4552433732313a2063616c6c6572206973206e6f7420746f6b656e206f776e6560008201527f72206f7220617070726f76656400000000000000000000000000000000000000602082015250565b6000613d34602d8361307f565b9150613d3f82613cd8565b604082019050919050565b60006020820190508181036000830152613d6381613d27565b9050919050565b600081905092915050565b6000613d8082613074565b613d8a8185613d6a565b9350613d9a818560208601613090565b80840191505092915050565b6000613db28285613d75565b9150613dbe8284613d75565b91508190509392505050565b7f4f776e61626c653a206e6577206f776e657220697320746865207a65726f206160008201527f6464726573730000000000000000000000000000000000000000000000000000602082015250565b6000613e2660268361307f565b9150613e3182613dca565b604082019050919050565b60006020820190508181036000830152613e5581613e19565b9050919050565b7f496e73756666696369656e74207061796d656e74000000000000000000000000600082015250565b6000613e9260148361307f565b9150613e9d82613e5c565b602082019050919050565b60006020820190508181036000830152613ec181613e85565b9050919050565b7f526172697479206c6576656c20736f6c64206f75740000000000000000000000600082015250565b6000613efe60158361307f565b9150613f0982613ec8565b602082019050919050565b60006020820190508181036000830152613f2d81613ef1565b9050919050565b7f4552433732313a207472616e736665722066726f6d20696e636f72726563742060008201527f6f776e6572000000000000000000000000000000000000000000000000000000602082015250565b6000613f9060258361307f565b9150613f9b82613f34565b604082019050919050565b60006020820190508181036000830152613fbf81613f83565b9050919050565b7f4552433732313a207472616e7366657220746f20746865207a65726f2061646460008201527f7265737300000000000000000000000000000000000000000000000000000000602082015250565b600061402260248361307f565b915061402d82613fc6565b604082019050919050565b6000602082019050818103600083015261405181614015565b9050919050565b7f4f776e61626c653a2063616c6c6572206973206e6f7420746865206f776e6572600082015250565b600061408e60208361307f565b915061409982614058565b602082019050919050565b600060208201905081810360008301526140bd81614081565b9050919050565b7f4552433732313a20617070726f766520746f2063616c6c657200000000000000600082015250565b60006140fa60198361307f565b9150614105826140c4565b602082019050919050565b60006020820190508181036000830152614129816140ed565b9050919050565b7f4552433732313a207472616e7366657220746f206e6f6e20455243373231526560008201527f63656976657220696d706c656d656e7465720000000000000000000000000000602082015250565b600061418c60328361307f565b915061419782614130565b604082019050919050565b600060208201905081810360008301526141bb8161417f565b9050919050565b7f4e487b7100000000000000000000000000000000000000000000000000000000600052601260045260246000fd5b600081519050919050565b600082825260208201905092915050565b6000614218826141f1565b61422281856141fc565b9350614232818560208601613090565b61423b816130ba565b840191505092915050565b600060808201905061425b60008301876131bb565b61426860208301866131bb565b6142756040830185613251565b8181036060830152614287818461420d565b905095945050505050565b6000815190506142a181612fe5565b92915050565b6000602082840312156142bd576142bc612faf565b5b60006142cb84828501614292565b91505092915050565b7f4552433732313a206d696e7420746f20746865207a65726f2061646472657373600082015250565b600061430a60208361307f565b9150614315826142d4565b602082019050919050565b60006020820190508181036000830152614339816142fd565b9050919050565b7f4552433732313a20746f6b656e20616c7265616479206d696e74656400000000600082015250565b6000614376601c8361307f565b915061438182614340565b602082019050919050565b600060208201905081810360008301526143a581614369565b905091905056fea264697066735822122083ffa969366af694c050cad7e046664df784723dd6ad46e08f4d38bea7a8731e64736f6c63430008120033",
  "immutableReferences": {},
  "source": "// SPDX-License-Identifier: GPL-3.0-only\r\n// Author:- @sauravrao637\r\npragma solidity ^0.8.18;\r\n\r\nimport \"@openzeppelin/contracts/token/ERC721/ERC721.sol\";\r\nimport \"@openzeppelin/contracts/access/Ownable.sol\";\r\n\r\ncontract CamoNFT is ERC721, Ownable {\r\n    enum RarityLevel {Common, Uncommon, Rare, Epic, Legendary}\r\n    uint256 counter = 0;\r\n    struct NFT {\r\n        uint256 tokenId;\r\n        address owner;\r\n        RarityLevel rarity;\r\n        uint256 entryTimestamp;\r\n        uint256 stakeClaimedTimeStamp;\r\n    }\r\n\r\n    uint256 constant public BASE_PRICE = 1_000_000 wei;\r\n    uint256 constant public COMMON_PRICE = BASE_PRICE *1;\r\n    uint256 constant public UNCOMMON_PRICE = BASE_PRICE *2;\r\n    uint256 constant public RARE_PRICE = BASE_PRICE *3;\r\n    uint256 constant public EPIC_PRICE = BASE_PRICE *5;\r\n    uint256 constant public LEGENDARY_PRICE = BASE_PRICE *8;\r\n\r\n    uint256 constant public COMMON_CAP = 22500;\r\n    uint256 constant public UNCOMMON_CAP = 2500;\r\n    uint256 constant public RARE_CAP = 900;\r\n    uint256 constant public EPIC_CAP = 100;\r\n    uint256 constant public LEGENDARY_CAP = 25;\r\n\r\n    mapping(uint256 => NFT) public nfts;\r\n    mapping(address => uint256[]) private _ownedTokens;\r\n\r\n    address public authorizedContract;\r\n\r\n    uint256 public commonCount;\r\n    uint256 public uncommonCount;\r\n    uint256 public rareCount;\r\n    uint256 public epicCount;\r\n    uint256 public legendaryCount;\r\n\r\n    constructor(address _authorizedContract) ERC721(\"CamoNFT\", \"CNFT\") {\r\n        authorizedContract = _authorizedContract;\r\n    }\r\n\r\n    modifier onlyAuthorizedContract() {\r\n        require(authorizedContract == msg.sender, \"Unauthorized contract\");\r\n        _;\r\n    }\r\n\r\n    function mintNFT(RarityLevel rarity) external payable {\r\n        require(rarity >= RarityLevel.Common && rarity <= RarityLevel.Legendary, \"Invalid rarity level\");\r\n\r\n        uint256 price = getPrice(rarity);\r\n        require(msg.value >= price, \"Insufficient payment\");\r\n\r\n        require(getCount(rarity) < getCap(rarity), \"Rarity level sold out\");\r\n        uint256 tokenId = counter;\r\n        counter++;\r\n        _safeMint(msg.sender, tokenId);\r\n        _ownedTokens[msg.sender].push(tokenId);\r\n        nfts[tokenId] = NFT(tokenId, msg.sender, rarity, block.timestamp, block.timestamp);\r\n        updateCount(rarity);\r\n\r\n        if (msg.value > price) {\r\n            payable(msg.sender).transfer(msg.value - price);\r\n        }\r\n    }\r\n\r\n    function transferFrom(address from, address to, uint256 tokenId) public override {\r\n        super.transferFrom(from, to, tokenId);\r\n        require(_isApprovedOrOwner(_msgSender(), tokenId), \"Transfer not authorized\");\r\n        require(from != to, \"What are you doing?\");\r\n\r\n        // Remove token ID from sender's list\r\n        uint256[] storage fromTokenList = _ownedTokens[from];\r\n        for (uint256 i = 0; i < fromTokenList.length; i++) {\r\n            if (fromTokenList[i] == tokenId) {\r\n                fromTokenList[i] = fromTokenList[fromTokenList.length - 1];\r\n                fromTokenList.pop();\r\n                break;\r\n            }\r\n        }\r\n\r\n        // Add token ID to receiver's list\r\n        _ownedTokens[to].push(tokenId);\r\n\r\n        // Perform the transfer\r\n        _transfer(from, to, tokenId);\r\n\r\n        nfts[tokenId].entryTimestamp = block.timestamp;\r\n        nfts[tokenId].owner = to;\r\n    }\r\n\r\n    function getPrice(RarityLevel rarity) public pure returns (uint256) {\r\n        if (rarity == RarityLevel.Common) {\r\n            return COMMON_PRICE;\r\n        } else if (rarity == RarityLevel.Uncommon) {\r\n            return UNCOMMON_PRICE;\r\n        } else if (rarity == RarityLevel.Rare) {\r\n            return RARE_PRICE;\r\n        } else if (rarity == RarityLevel.Epic) {\r\n            return EPIC_PRICE;\r\n        } else if (rarity == RarityLevel.Legendary) {\r\n            return LEGENDARY_PRICE;\r\n        }\r\n        revert(\"Invalid rarity level\");\r\n    }\r\n\r\n\r\n    function getCap(RarityLevel rarity) public pure returns (uint256) {\r\n        if (rarity == RarityLevel.Common) {\r\n            return COMMON_CAP;\r\n        } else if (rarity == RarityLevel.Uncommon) {\r\n            return UNCOMMON_CAP;\r\n        } else if (rarity == RarityLevel.Rare) {\r\n            return RARE_CAP;\r\n        } else if (rarity == RarityLevel.Epic) {\r\n            return EPIC_CAP;\r\n        } else if (rarity == RarityLevel.Legendary) {\r\n            return LEGENDARY_CAP;\r\n        }\r\n        revert(\"Invalid rarity level\");\r\n    }\r\n\r\n    function getCount(RarityLevel rarity) public view returns (uint256) {\r\n        if (rarity == RarityLevel.Common) {\r\n            return commonCount;\r\n        } else if (rarity == RarityLevel.Uncommon) {\r\n            return uncommonCount;\r\n        } else if (rarity == RarityLevel.Rare) {\r\n            return rareCount;\r\n        } else if (rarity == RarityLevel.Epic) {\r\n            return epicCount;\r\n        } else if (rarity == RarityLevel.Legendary) {\r\n            return legendaryCount;\r\n        }\r\n        revert(\"Invalid rarity level\");\r\n    }\r\n\r\n    function updateCount(RarityLevel rarity) internal {\r\n        if (rarity == RarityLevel.Common) {\r\n            commonCount++;\r\n        } else if (rarity == RarityLevel.Uncommon) {\r\n            uncommonCount++;\r\n        } else if (rarity == RarityLevel.Rare) {\r\n            rareCount++;\r\n        } else if (rarity == RarityLevel.Epic) {\r\n            epicCount++;\r\n        } else if (rarity == RarityLevel.Legendary) {\r\n            legendaryCount++;\r\n        }\r\n    }\r\n\r\n    function getOwnedTokens(address owner) external view onlyAuthorizedContract returns (uint256[] memory) {\r\n        return _ownedTokens[owner];\r\n    }\r\n\r\n    function updateTimestamp(address user) external onlyAuthorizedContract {\r\n        uint256[] storage tokenList = _ownedTokens[user];\r\n        for(uint i=0;i< tokenList.length; i++){\r\n            uint256 tokenId = tokenList[i];\r\n            nfts[tokenId].entryTimestamp = block.timestamp;\r\n        }\r\n    }\r\n\r\n    function withdrawFunds() public payable onlyOwner{\r\n        payable(msg.sender).transfer(address(this).balance);\r\n    }\r\n\r\n    function checkBalance() public view onlyOwner returns(uint256){\r\n        return address(this).balance;\r\n    }\r\n}\r\n\r\n",
  "sourcePath": "C:\\Users\\asus\\Desktop\\Project\\DeveloperWeek-Hack\\packages\\truffle\\contracts\\CamoNFT.sol",
  "compiler": {
    "name": "solc",
    "version": "0.8.18+commit.87f61d96.Emscripten.clang"
  },
  "schemaVersion": "3.4.14",
  "updatedAt": "2023-06-20T01:36:16.581Z",
  "networkType": "ethereum",
  "devdoc": {
    "events": {
      "Approval(address,address,uint256)": {
        "details": "Emitted when `owner` enables `approved` to manage the `tokenId` token."
      },
      "ApprovalForAll(address,address,bool)": {
        "details": "Emitted when `owner` enables or disables (`approved`) `operator` to manage all of its assets."
      },
      "Transfer(address,address,uint256)": {
        "details": "Emitted when `tokenId` token is transferred from `from` to `to`."
      }
    },
    "kind": "dev",
    "methods": {
      "approve(address,uint256)": {
        "details": "See {IERC721-approve}."
      },
      "balanceOf(address)": {
        "details": "See {IERC721-balanceOf}."
      },
      "getApproved(uint256)": {
        "details": "See {IERC721-getApproved}."
      },
      "isApprovedForAll(address,address)": {
        "details": "See {IERC721-isApprovedForAll}."
      },
      "name()": {
        "details": "See {IERC721Metadata-name}."
      },
      "owner()": {
        "details": "Returns the address of the current owner."
      },
      "ownerOf(uint256)": {
        "details": "See {IERC721-ownerOf}."
      },
      "renounceOwnership()": {
        "details": "Leaves the contract without owner. It will not be possible to call `onlyOwner` functions. Can only be called by the current owner. NOTE: Renouncing ownership will leave the contract without an owner, thereby disabling any functionality that is only available to the owner."
      },
      "safeTransferFrom(address,address,uint256)": {
        "details": "See {IERC721-safeTransferFrom}."
      },
      "safeTransferFrom(address,address,uint256,bytes)": {
        "details": "See {IERC721-safeTransferFrom}."
      },
      "setApprovalForAll(address,bool)": {
        "details": "See {IERC721-setApprovalForAll}."
      },
      "supportsInterface(bytes4)": {
        "details": "See {IERC165-supportsInterface}."
      },
      "symbol()": {
        "details": "See {IERC721Metadata-symbol}."
      },
      "tokenURI(uint256)": {
        "details": "See {IERC721Metadata-tokenURI}."
      },
      "transferFrom(address,address,uint256)": {
        "details": "See {IERC721-transferFrom}."
      },
      "transferOwnership(address)": {
        "details": "Transfers ownership of the contract to a new account (`newOwner`). Can only be called by the current owner."
      }
    },
    "version": 1
  },
  "userdoc": {
    "kind": "user",
    "methods": {},
    "version": 1
  }
}