{
  "contractName": "CamoStaking",
  "abi": [
    {
      "inputs": [
        {
          "internalType": "uint256",
          "name": "baseRewardRate",
          "type": "uint256"
        }
      ],
      "stateMutability": "nonpayable",
      "type": "constructor"
    },
    {
      "anonymous": false,
      "inputs": [
        {
          "indexed": true,
          "internalType": "address",
          "name": "previousOwner",
          "type": "address"
        },
        {
          "indexed": true,
          "internalType": "address",
          "name": "newOwner",
          "type": "address"
        }
      ],
      "name": "OwnershipTransferred",
      "type": "event"
    },
    {
      "anonymous": false,
      "inputs": [
        {
          "indexed": true,
          "internalType": "address",
          "name": "user",
          "type": "address"
        }
      ],
      "name": "StakedWallet",
      "type": "event"
    },
    {
      "anonymous": false,
      "inputs": [
        {
          "indexed": true,
          "internalType": "address",
          "name": "user",
          "type": "address"
        },
        {
          "indexed": false,
          "internalType": "uint256",
          "name": "amount",
          "type": "uint256"
        }
      ],
      "name": "WithdrawnRewards",
      "type": "event"
    },
    {
      "inputs": [],
      "name": "camoNFTAddress",
      "outputs": [
        {
          "internalType": "contract CamoNFT",
          "name": "",
          "type": "address"
        }
      ],
      "stateMutability": "view",
      "type": "function",
      "constant": true
    },
    {
      "inputs": [],
      "name": "camoTokenAddress",
      "outputs": [
        {
          "internalType": "contract CamoToken",
          "name": "",
          "type": "address"
        }
      ],
      "stateMutability": "view",
      "type": "function",
      "constant": true
    },
    {
      "inputs": [],
      "name": "leftSupply",
      "outputs": [
        {
          "internalType": "uint256",
          "name": "",
          "type": "uint256"
        }
      ],
      "stateMutability": "view",
      "type": "function",
      "constant": true
    },
    {
      "inputs": [],
      "name": "owner",
      "outputs": [
        {
          "internalType": "address",
          "name": "",
          "type": "address"
        }
      ],
      "stateMutability": "view",
      "type": "function",
      "constant": true
    },
    {
      "inputs": [],
      "name": "renounceOwnership",
      "outputs": [],
      "stateMutability": "nonpayable",
      "type": "function"
    },
    {
      "inputs": [],
      "name": "tier1Rate",
      "outputs": [
        {
          "internalType": "uint256",
          "name": "",
          "type": "uint256"
        }
      ],
      "stateMutability": "view",
      "type": "function",
      "constant": true
    },
    {
      "inputs": [],
      "name": "tier2Rate",
      "outputs": [
        {
          "internalType": "uint256",
          "name": "",
          "type": "uint256"
        }
      ],
      "stateMutability": "view",
      "type": "function",
      "constant": true
    },
    {
      "inputs": [],
      "name": "tier3Rate",
      "outputs": [
        {
          "internalType": "uint256",
          "name": "",
          "type": "uint256"
        }
      ],
      "stateMutability": "view",
      "type": "function",
      "constant": true
    },
    {
      "inputs": [],
      "name": "tier4Rate",
      "outputs": [
        {
          "internalType": "uint256",
          "name": "",
          "type": "uint256"
        }
      ],
      "stateMutability": "view",
      "type": "function",
      "constant": true
    },
    {
      "inputs": [],
      "name": "tier5Rate",
      "outputs": [
        {
          "internalType": "uint256",
          "name": "",
          "type": "uint256"
        }
      ],
      "stateMutability": "view",
      "type": "function",
      "constant": true
    },
    {
      "inputs": [
        {
          "internalType": "address",
          "name": "newOwner",
          "type": "address"
        }
      ],
      "name": "transferOwnership",
      "outputs": [],
      "stateMutability": "nonpayable",
      "type": "function"
    },
    {
      "inputs": [
        {
          "internalType": "address",
          "name": "_camoNFTAddress",
          "type": "address"
        }
      ],
      "name": "setCamoNFTAddress",
      "outputs": [],
      "stateMutability": "nonpayable",
      "type": "function"
    },
    {
      "inputs": [
        {
          "internalType": "address",
          "name": "_tokenAddress",
          "type": "address"
        }
      ],
      "name": "setTokenAddressAndSendFunds",
      "outputs": [],
      "stateMutability": "nonpayable",
      "type": "function"
    },
    {
      "inputs": [
        {
          "internalType": "address",
          "name": "_serverAddress",
          "type": "address"
        }
      ],
      "name": "setServerAddress",
      "outputs": [],
      "stateMutability": "nonpayable",
      "type": "function"
    },
    {
      "inputs": [],
      "name": "getSupplyRatio",
      "outputs": [
        {
          "internalType": "uint256",
          "name": "",
          "type": "uint256"
        }
      ],
      "stateMutability": "view",
      "type": "function",
      "constant": true
    },
    {
      "inputs": [],
      "name": "stakeWallet",
      "outputs": [],
      "stateMutability": "nonpayable",
      "type": "function"
    },
    {
      "inputs": [],
      "name": "claimReward",
      "outputs": [],
      "stateMutability": "nonpayable",
      "type": "function"
    },
    {
      "inputs": [],
      "name": "distributeIncentives",
      "outputs": [],
      "stateMutability": "nonpayable",
      "type": "function"
    },
    {
      "inputs": [
        {
          "internalType": "enum CamoNFT.RarityLevel",
          "name": "rarity",
          "type": "uint8"
        }
      ],
      "name": "getRate",
      "outputs": [
        {
          "internalType": "uint256",
          "name": "",
          "type": "uint256"
        }
      ],
      "stateMutability": "view",
      "type": "function",
      "constant": true
    },
    {
      "inputs": [
        {
          "internalType": "address",
          "name": "_user",
          "type": "address"
        }
      ],
      "name": "getStaker",
      "outputs": [
        {
          "components": [
            {
              "internalType": "uint256",
              "name": "userJoinedTS",
              "type": "uint256"
            },
            {
              "internalType": "uint256",
              "name": "reward",
              "type": "uint256"
            }
          ],
          "internalType": "struct CamoStaking.Staker",
          "name": "staker",
          "type": "tuple"
        }
      ],
      "stateMutability": "view",
      "type": "function",
      "constant": true
    },
    {
      "inputs": [],
      "name": "amIStaker",
      "outputs": [
        {
          "internalType": "bool",
          "name": "",
          "type": "bool"
        }
      ],
      "stateMutability": "view",
      "type": "function",
      "constant": true
    },
    {
      "inputs": [],
      "name": "rewardAccumulated",
      "outputs": [
        {
          "internalType": "uint256",
          "name": "",
          "type": "uint256"
        }
      ],
      "stateMutability": "view",
      "type": "function",
      "constant": true
    }
  ],
  "bytecode": "0x60806040523480156200001157600080fd5b5060405162002214380380620022148339818101604052810190620000379190620001cd565b620000576200004b620000c160201b60201c565b620000c960201b60201c565b8060048190555060026004546200006f91906200022e565b60058190555060036004546200008691906200022e565b60068190555060056004546200009d91906200022e565b6007819055506008600454620000b491906200022e565b6008819055505062000279565b600033905090565b60008060009054906101000a900473ffffffffffffffffffffffffffffffffffffffff169050816000806101000a81548173ffffffffffffffffffffffffffffffffffffffff021916908373ffffffffffffffffffffffffffffffffffffffff1602179055508173ffffffffffffffffffffffffffffffffffffffff168173ffffffffffffffffffffffffffffffffffffffff167f8be0079c531659141344cd1fd0a4f28419497f9722a3daafe3b4186f6b6457e060405160405180910390a35050565b600080fd5b6000819050919050565b620001a78162000192565b8114620001b357600080fd5b50565b600081519050620001c7816200019c565b92915050565b600060208284031215620001e657620001e56200018d565b5b6000620001f684828501620001b6565b91505092915050565b7f4e487b7100000000000000000000000000000000000000000000000000000000600052601160045260246000fd5b60006200023b8262000192565b9150620002488362000192565b9250828202620002588162000192565b91508282048414831517620002725762000271620001ff565b5b5092915050565b611f8b80620002896000396000f3fe608060405234801561001057600080fd5b50600436106101425760003560e01c8063752d57c4116100b8578063b7ebae0b1161007c578063b7ebae0b146102f7578063b88a802f14610327578063cab6554514610331578063cacb3a211461034f578063df1e3f761461036d578063f2fde38b1461038b57610142565b8063752d57c4146102655780638da5cb5b1461026f578063a090db251461028d578063a23c44b1146102a9578063a3613474146102d957610142565b80634a5b2e691161010a5780634a5b2e69146101c55780636402efd3146101e3578063674ca237146102015780636e9a204b1461021f5780636fe02e981461023d578063715018a61461025b57610142565b80630f9154b514610147578063160abc9d1461015157806334ced9711461016f57806347b64eb01461018b57806348c834c0146101a7575b600080fd5b61014f6103a7565b005b610159610540565b6040516101669190611477565b60405180910390f35b61018960048036038101906101849190611504565b610546565b005b6101a560048036038101906101a09190611504565b6106de565b005b6101af61072a565b6040516101bc9190611477565b60405180910390f35b6101cd610730565b6040516101da9190611477565b60405180910390f35b6101eb610736565b6040516101f89190611477565b60405180910390f35b61020961073c565b6040516102169190611477565b60405180910390f35b6102276107f4565b6040516102349190611477565b60405180910390f35b6102456108c2565b6040516102529190611477565b60405180910390f35b6102636108c8565b005b61026d6108dc565b005b610277610b1e565b6040516102849190611540565b60405180910390f35b6102a760048036038101906102a29190611504565b610b47565b005b6102c360048036038101906102be9190611504565b610c24565b6040516102d09190611599565b60405180910390f35b6102e1610c99565b6040516102ee91906115cf565b60405180910390f35b610311600480360381019061030c919061160f565b610d26565b60405161031e9190611477565b60405180910390f35b61032f610e74565b005b610339610fe4565b604051610346919061169b565b60405180910390f35b61035761100a565b6040516103649190611477565b60405180910390f35b610375611010565b60405161038291906116d7565b60405180910390f35b6103a560048036038101906103a09190611504565b611036565b005b6000600260003373ffffffffffffffffffffffffffffffffffffffff1673ffffffffffffffffffffffffffffffffffffffff168152602001908152602001600020600001541461042c576040517f08c379a00000000000000000000000000000000000000000000000000000000081526004016104239061174f565b60405180910390fd5b60405180604001604052804281526020016000815250600260003373ffffffffffffffffffffffffffffffffffffffff1673ffffffffffffffffffffffffffffffffffffffff16815260200190815260200160002060008201518160000155602082015181600101559050506003339080600181540180825580915050600190039060005260206000200160009091909190916101000a81548173ffffffffffffffffffffffffffffffffffffffff021916908373ffffffffffffffffffffffffffffffffffffffff1602179055503373ffffffffffffffffffffffffffffffffffffffff167f64f61e0ccd24748fd65f3a72d04d73f667f1aee51e5f96f14dc412c0fed07e6e60405160405180910390a2565b60045481565b61054e6110b9565b80600960006101000a81548173ffffffffffffffffffffffffffffffffffffffff021916908373ffffffffffffffffffffffffffffffffffffffff1602179055506000600960009054906101000a900473ffffffffffffffffffffffffffffffffffffffff1673ffffffffffffffffffffffffffffffffffffffff166332cb6b0c6040518163ffffffff1660e01b8152600401602060405180830381865afa1580156105fe573d6000803e3d6000fd5b505050506040513d601f19601f82011682018060405250810190610622919061179b565b9050600960009054906101000a900473ffffffffffffffffffffffffffffffffffffffff1673ffffffffffffffffffffffffffffffffffffffff166323b872dd3330846040518463ffffffff1660e01b8152600401610683939291906117c8565b6020604051808303816000875af11580156106a2573d6000803e3d6000fd5b505050506040513d601f19601f820116820180604052508101906106c6919061182b565b506001816106d49190611887565b6001819055505050565b6106e66110b9565b80600b60006101000a81548173ffffffffffffffffffffffffffffffffffffffff021916908373ffffffffffffffffffffffffffffffffffffffff16021790555050565b60075481565b60085481565b60055481565b6000600960009054906101000a900473ffffffffffffffffffffffffffffffffffffffff1673ffffffffffffffffffffffffffffffffffffffff166332cb6b0c6040518163ffffffff1660e01b8152600401602060405180830381865afa1580156107ab573d6000803e3d6000fd5b505050506040513d601f19601f820116820180604052508101906107cf919061179b565b670de0b6b3a76400006001546107e591906118bb565b6107ef919061192c565b905090565b600080600260003373ffffffffffffffffffffffffffffffffffffffff1673ffffffffffffffffffffffffffffffffffffffff168152602001908152602001600020600001541161087a576040517f08c379a0000000000000000000000000000000000000000000000000000000008152600401610871906119a9565b60405180910390fd5b600260003373ffffffffffffffffffffffffffffffffffffffff1673ffffffffffffffffffffffffffffffffffffffff16815260200190815260200160002060010154905090565b60065481565b6108d06110b9565b6108da6000611137565b565b3373ffffffffffffffffffffffffffffffffffffffff16600b60009054906101000a900473ffffffffffffffffffffffffffffffffffffffff1673ffffffffffffffffffffffffffffffffffffffff161461096c576040517f08c379a000000000000000000000000000000000000000000000000000000000815260040161096390611a15565b60405180910390fd5b60008061097761073c565b905060005b600380549050811015610b005760006003828154811061099f5761099e611a35565b5b9060005260206000200160009054906101000a900473ffffffffffffffffffffffffffffffffffffffff1690506000670de0b6b3a76400006109e0836111fb565b856109eb91906118bb565b6109f5919061192c565b9050600a60009054906101000a900473ffffffffffffffffffffffffffffffffffffffff1673ffffffffffffffffffffffffffffffffffffffff1663b60707ed836040518263ffffffff1660e01b8152600401610a529190611540565b600060405180830381600087803b158015610a6c57600080fd5b505af1158015610a80573d6000803e3d6000fd5b5050505080600260008473ffffffffffffffffffffffffffffffffffffffff1673ffffffffffffffffffffffffffffffffffffffff1681526020019081526020016000206001016000828254610ad69190611a64565b925050819055508085610ae99190611a64565b945050508080610af890611a98565b91505061097c565b508160016000828254610b139190611887565b925050819055505050565b60008060009054906101000a900473ffffffffffffffffffffffffffffffffffffffff16905090565b610b4f6110b9565b600073ffffffffffffffffffffffffffffffffffffffff16600a60009054906101000a900473ffffffffffffffffffffffffffffffffffffffff1673ffffffffffffffffffffffffffffffffffffffff1614610be0576040517f08c379a0000000000000000000000000000000000000000000000000000000008152600401610bd790611b2c565b60405180910390fd5b80600a60006101000a81548173ffffffffffffffffffffffffffffffffffffffff021916908373ffffffffffffffffffffffffffffffffffffffff16021790555050565b610c2c611444565b610c346110b9565b600260008373ffffffffffffffffffffffffffffffffffffffff1673ffffffffffffffffffffffffffffffffffffffff168152602001908152602001600020604051806040016040529081600082015481526020016001820154815250509050919050565b600080600260003373ffffffffffffffffffffffffffffffffffffffff1673ffffffffffffffffffffffffffffffffffffffff1681526020019081526020016000206000015411610d1f576040517f08c379a0000000000000000000000000000000000000000000000000000000008152600401610d16906119a9565b60405180910390fd5b6001905090565b6000806004811115610d3b57610d3a611b4c565b5b826004811115610d4e57610d4d611b4c565b5b03610d5d576004549050610e6f565b60016004811115610d7157610d70611b4c565b5b826004811115610d8457610d83611b4c565b5b03610d93576005549050610e6f565b60026004811115610da757610da6611b4c565b5b826004811115610dba57610db9611b4c565b5b03610dc9576006549050610e6f565b60036004811115610ddd57610ddc611b4c565b5b826004811115610df057610def611b4c565b5b03610dff576007549050610e6f565b600480811115610e1257610e11611b4c565b5b826004811115610e2557610e24611b4c565b5b03610e34576008549050610e6f565b6040517f08c379a0000000000000000000000000000000000000000000000000000000008152600401610e6690611bc7565b60405180910390fd5b919050565b6000600260003373ffffffffffffffffffffffffffffffffffffffff1673ffffffffffffffffffffffffffffffffffffffff1681526020019081526020016000206000015411610ef9576040517f08c379a0000000000000000000000000000000000000000000000000000000008152600401610ef0906119a9565b60405180910390fd5b6000600260003373ffffffffffffffffffffffffffffffffffffffff1673ffffffffffffffffffffffffffffffffffffffff168152602001908152602001600020600101549050600960009054906101000a900473ffffffffffffffffffffffffffffffffffffffff1673ffffffffffffffffffffffffffffffffffffffff1663a9059cbb33836040518363ffffffff1660e01b8152600401610f9d929190611be7565b6020604051808303816000875af1158015610fbc573d6000803e3d6000fd5b505050506040513d601f19601f82011682018060405250810190610fe0919061182b565b5050565b600960009054906101000a900473ffffffffffffffffffffffffffffffffffffffff1681565b60015481565b600a60009054906101000a900473ffffffffffffffffffffffffffffffffffffffff1681565b61103e6110b9565b600073ffffffffffffffffffffffffffffffffffffffff168173ffffffffffffffffffffffffffffffffffffffff16036110ad576040517f08c379a00000000000000000000000000000000000000000000000000000000081526004016110a490611c82565b60405180910390fd5b6110b681611137565b50565b6110c161136b565b73ffffffffffffffffffffffffffffffffffffffff166110df610b1e565b73ffffffffffffffffffffffffffffffffffffffff1614611135576040517f08c379a000000000000000000000000000000000000000000000000000000000815260040161112c90611cee565b60405180910390fd5b565b60008060009054906101000a900473ffffffffffffffffffffffffffffffffffffffff169050816000806101000a81548173ffffffffffffffffffffffffffffffffffffffff021916908373ffffffffffffffffffffffffffffffffffffffff1602179055508173ffffffffffffffffffffffffffffffffffffffff168173ffffffffffffffffffffffffffffffffffffffff167f8be0079c531659141344cd1fd0a4f28419497f9722a3daafe3b4186f6b6457e060405160405180910390a35050565b600080600090506000600a60009054906101000a900473ffffffffffffffffffffffffffffffffffffffff1673ffffffffffffffffffffffffffffffffffffffff1663d9d61655856040518263ffffffff1660e01b815260040161125f9190611540565b600060405180830381865afa15801561127c573d6000803e3d6000fd5b505050506040513d6000823e3d601f19601f820116820180604052508101906112a59190611e67565b905060005b81518110156113605760008060006112db8585815181106112ce576112cd611a35565b5b6020026020010151611373565b945094509450505060006112ef838361142a565b9050600081426112ff9190611887565b9050600061130c86610d26565b905061ea60670de0b6b3a7640000838361132691906118bb565b61133091906118bb565b61133a919061192c565b896113459190611a64565b9850505050505050808061135890611a98565b9150506112aa565b508192505050919050565b600033905090565b6000806000806000600a60009054906101000a900473ffffffffffffffffffffffffffffffffffffffff1673ffffffffffffffffffffffffffffffffffffffff1663265aa621876040518263ffffffff1660e01b81526004016113d69190611477565b60a060405180830381865afa1580156113f3573d6000803e3d6000fd5b505050506040513d601f19601f820116820180604052508101906114179190611eda565b9450945094509450945091939590929450565b60008183101561143a578161143c565b825b905092915050565b604051806040016040528060008152602001600081525090565b6000819050919050565b6114718161145e565b82525050565b600060208201905061148c6000830184611468565b92915050565b6000604051905090565b600080fd5b600080fd5b600073ffffffffffffffffffffffffffffffffffffffff82169050919050565b60006114d1826114a6565b9050919050565b6114e1816114c6565b81146114ec57600080fd5b50565b6000813590506114fe816114d8565b92915050565b60006020828403121561151a5761151961149c565b5b6000611528848285016114ef565b91505092915050565b61153a816114c6565b82525050565b60006020820190506115556000830184611531565b92915050565b6115648161145e565b82525050565b604082016000820151611580600085018261155b565b506020820151611593602085018261155b565b50505050565b60006040820190506115ae600083018461156a565b92915050565b60008115159050919050565b6115c9816115b4565b82525050565b60006020820190506115e460008301846115c0565b92915050565b600581106115f757600080fd5b50565b600081359050611609816115ea565b92915050565b6000602082840312156116255761162461149c565b5b6000611633848285016115fa565b91505092915050565b6000819050919050565b600061166161165c611657846114a6565b61163c565b6114a6565b9050919050565b600061167382611646565b9050919050565b600061168582611668565b9050919050565b6116958161167a565b82525050565b60006020820190506116b0600083018461168c565b92915050565b60006116c182611668565b9050919050565b6116d1816116b6565b82525050565b60006020820190506116ec60008301846116c8565b92915050565b600082825260208201905092915050565b7f416c7265616479205374616b6564000000000000000000000000000000000000600082015250565b6000611739600e836116f2565b915061174482611703565b602082019050919050565b600060208201905081810360008301526117688161172c565b9050919050565b6117788161145e565b811461178357600080fd5b50565b6000815190506117958161176f565b92915050565b6000602082840312156117b1576117b061149c565b5b60006117bf84828501611786565b91505092915050565b60006060820190506117dd6000830186611531565b6117ea6020830185611531565b6117f76040830184611468565b949350505050565b611808816115b4565b811461181357600080fd5b50565b600081519050611825816117ff565b92915050565b6000602082840312156118415761184061149c565b5b600061184f84828501611816565b91505092915050565b7f4e487b7100000000000000000000000000000000000000000000000000000000600052601160045260246000fd5b60006118928261145e565b915061189d8361145e565b92508282039050818111156118b5576118b4611858565b5b92915050565b60006118c68261145e565b91506118d18361145e565b92508282026118df8161145e565b915082820484148315176118f6576118f5611858565b5b5092915050565b7f4e487b7100000000000000000000000000000000000000000000000000000000600052601260045260246000fd5b60006119378261145e565b91506119428361145e565b925082611952576119516118fd565b5b828204905092915050565b7f4e6f742061207374616b65720000000000000000000000000000000000000000600082015250565b6000611993600c836116f2565b915061199e8261195d565b602082019050919050565b600060208201905081810360008301526119c281611986565b9050919050565b7f4e6f7420417574686f7269736564000000000000000000000000000000000000600082015250565b60006119ff600e836116f2565b9150611a0a826119c9565b602082019050919050565b60006020820190508181036000830152611a2e816119f2565b9050919050565b7f4e487b7100000000000000000000000000000000000000000000000000000000600052603260045260246000fd5b6000611a6f8261145e565b9150611a7a8361145e565b9250828201905080821115611a9257611a91611858565b5b92915050565b6000611aa38261145e565b91507fffffffffffffffffffffffffffffffffffffffffffffffffffffffffffffffff8203611ad557611ad4611858565b5b600182019050919050565b7f416c726561647920536574000000000000000000000000000000000000000000600082015250565b6000611b16600b836116f2565b9150611b2182611ae0565b602082019050919050565b60006020820190508181036000830152611b4581611b09565b9050919050565b7f4e487b7100000000000000000000000000000000000000000000000000000000600052602160045260246000fd5b7f496e76616c696420726172697479206c6576656c000000000000000000000000600082015250565b6000611bb16014836116f2565b9150611bbc82611b7b565b602082019050919050565b60006020820190508181036000830152611be081611ba4565b9050919050565b6000604082019050611bfc6000830185611531565b611c096020830184611468565b9392505050565b7f4f776e61626c653a206e6577206f776e657220697320746865207a65726f206160008201527f6464726573730000000000000000000000000000000000000000000000000000602082015250565b6000611c6c6026836116f2565b9150611c7782611c10565b604082019050919050565b60006020820190508181036000830152611c9b81611c5f565b9050919050565b7f4f776e61626c653a2063616c6c6572206973206e6f7420746865206f776e6572600082015250565b6000611cd86020836116f2565b9150611ce382611ca2565b602082019050919050565b60006020820190508181036000830152611d0781611ccb565b9050919050565b600080fd5b6000601f19601f8301169050919050565b7f4e487b7100000000000000000000000000000000000000000000000000000000600052604160045260246000fd5b611d5c82611d13565b810181811067ffffffffffffffff82111715611d7b57611d7a611d24565b5b80604052505050565b6000611d8e611492565b9050611d9a8282611d53565b919050565b600067ffffffffffffffff821115611dba57611db9611d24565b5b602082029050602081019050919050565b600080fd5b6000611de3611dde84611d9f565b611d84565b90508083825260208201905060208402830185811115611e0657611e05611dcb565b5b835b81811015611e2f5780611e1b8882611786565b845260208401935050602081019050611e08565b5050509392505050565b600082601f830112611e4e57611e4d611d0e565b5b8151611e5e848260208601611dd0565b91505092915050565b600060208284031215611e7d57611e7c61149c565b5b600082015167ffffffffffffffff811115611e9b57611e9a6114a1565b5b611ea784828501611e39565b91505092915050565b600081519050611ebf816114d8565b92915050565b600081519050611ed4816115ea565b92915050565b600080600080600060a08688031215611ef657611ef561149c565b5b6000611f0488828901611786565b9550506020611f1588828901611eb0565b9450506040611f2688828901611ec5565b9350506060611f3788828901611786565b9250506080611f4888828901611786565b915050929550929590935056fea2646970667358221220c9e0858b05d0dbde9b8e81e0ee39ef5ed1192695fec36eb2f4fb13ff9b6d3c3064736f6c63430008120033",
  "immutableReferences": {},
  "source": "// SPDX-License-Identifier: GPL-3.0-only\n// Author:- @sauravrao637\npragma solidity ^0.8.18;\n\nimport \"./CamoNFT.sol\";\nimport \"./CamoToken.sol\";\n\ncontract CamoStaking is Ownable {\n    struct Staker {\n        uint256 userJoinedTS;\n        uint256 reward;\n    }\n\n    uint256 public leftSupply;\n\n    mapping(address => Staker) stakers;\n    address[] stakingAddress;\n\n    uint256 public tier1Rate;\n    uint256 public tier2Rate;\n    uint256 public tier3Rate;\n    uint256 public tier4Rate;\n    uint256 public tier5Rate;\n\n    CamoToken public camoTokenAddress;\n\n    CamoNFT public camoNFTAddress;\n\n    address private serverAddress;\n\n    event StakedWallet(address indexed user);\n\n    event WithdrawnRewards(address indexed user, uint256 amount);\n\n    constructor(uint256 baseRewardRate) {\n        tier1Rate = baseRewardRate;\n        tier2Rate = tier1Rate * 2;\n        tier3Rate = tier1Rate * 3;\n        tier4Rate = tier1Rate * 5;\n        tier5Rate = tier1Rate * 8;\n    }\n\n    modifier onlyStaker() {\n        require(stakers[msg.sender].userJoinedTS > 0, \"Not a staker\");\n        _;\n    }\n\n    modifier onlyAuthorized() {\n        require(serverAddress == msg.sender, \"Not Authorised\");\n        _;\n    }\n\n    function getMax(uint256 a, uint256 b) internal pure returns (uint256) {\n        return a >= b ? a : b;\n    }\n\n    function setCamoNFTAddress(address _camoNFTAddress) public onlyOwner {\n        require(address(camoNFTAddress) == address(0), \"Already Set\");\n        camoNFTAddress = CamoNFT(_camoNFTAddress);\n    }\n\n    function setTokenAddressAndSendFunds(address _tokenAddress) public onlyOwner{\n        camoTokenAddress = CamoToken(_tokenAddress);\n        uint256 totalSupply = camoTokenAddress.MAX_SUPPLY();\n        camoTokenAddress.transferFrom(msg.sender, address(this), totalSupply);\n        leftSupply = totalSupply-1;\n    }\n\n    function setServerAddress(address _serverAddress) public onlyOwner{\n        serverAddress = _serverAddress;\n    }\n\n    function getSupplyRatio() public view returns (uint256) {\n        return (leftSupply * 10**18) / camoTokenAddress.MAX_SUPPLY();\n    }\n\n    function stakeWallet() public {\n        require(stakers[msg.sender].userJoinedTS == 0, \"Already Staked\");\n        stakers[msg.sender] = Staker(block.timestamp, 0);\n        stakingAddress.push(msg.sender);\n        emit StakedWallet(msg.sender);\n    }\n\n    function claimReward() public onlyStaker {\n        uint256 reward = stakers[msg.sender].reward;\n        camoTokenAddress.transfer(msg.sender, reward);\n    }\n\n    function getNftById(uint256 tokenId)\n        internal\n        view\n        returns (\n            uint256,\n            address,\n            CamoNFT.RarityLevel,\n            uint256,\n            uint256\n        )\n    {\n        return camoNFTAddress.nfts(tokenId);\n    }\n\n    function calculateIncentive(address _user) internal view returns (uint256) {\n        uint256 incentiveAmount = 0;\n        uint256[] memory tokens = camoNFTAddress.getOwnedTokens(_user);\n        for (uint256 i = 0; i < tokens.length; i++) {\n            (\n                ,\n                ,\n                CamoNFT.RarityLevel rarity,\n                uint256 entryTimestamp,\n                uint256 stakeClaimedTimeStamp\n            ) = getNftById(tokens[i]);\n            uint256 lastStaked = getMax(entryTimestamp, stakeClaimedTimeStamp);\n            uint256 holdingTime = ((block.timestamp - lastStaked));\n            uint256 rate = getRate(rarity);\n            incentiveAmount += (rate * holdingTime * 10**18)/ 60_000;\n        }\n        return incentiveAmount;\n    }\n\n    // Function to distribute incentives to all stakers based on the duration they hold the NFTs\n    function distributeIncentives() public onlyAuthorized {\n        uint256 total = 0;\n        uint256 currSupplyRatio = getSupplyRatio();\n        for (uint256 i = 0; i < stakingAddress.length; i++) {\n            address _user = stakingAddress[i];\n            uint256 reward = (currSupplyRatio * calculateIncentive(_user))/ 10**18;\n            camoNFTAddress.updateTimestamp(_user);\n            stakers[_user].reward += reward;\n            total += reward;\n        }\n        leftSupply -= total;\n    }\n\n    function getRate(CamoNFT.RarityLevel rarity) public view returns (uint256) {\n        if (rarity == CamoNFT.RarityLevel.Common) {\n            return tier1Rate;\n        } else if (rarity == CamoNFT.RarityLevel.Uncommon) {\n            return tier2Rate;\n        } else if (rarity == CamoNFT.RarityLevel.Rare) {\n            return tier3Rate;\n        } else if (rarity == CamoNFT.RarityLevel.Epic) {\n            return tier4Rate;\n        } else if (rarity == CamoNFT.RarityLevel.Legendary) {\n            return tier5Rate;\n        }\n        revert(\"Invalid rarity level\");\n    }\n    function getStaker(address _user) public view onlyOwner returns(Staker memory staker){\n        staker = stakers[_user];\n    }\n\n    function amIStaker() public view onlyStaker returns(bool){\n        return true;\n    }\n\n    function rewardAccumulated() public view onlyStaker returns(uint256){\n        return stakers[msg.sender].reward;\n    }\n}\n",
  "sourcePath": "C:\\Users\\asus\\Desktop\\Project\\DeveloperWeek-Hack\\packages\\truffle\\contracts\\CamoStaking.sol",
  "compiler": {
    "name": "solc",
    "version": "0.8.18+commit.87f61d96.Emscripten.clang"
  },
  "schemaVersion": "3.4.14",
  "updatedAt": "2023-06-19T00:46:03.300Z",
  "networkType": "ethereum",
  "devdoc": {
    "kind": "dev",
    "methods": {
      "owner()": {
        "details": "Returns the address of the current owner."
      },
      "renounceOwnership()": {
        "details": "Leaves the contract without owner. It will not be possible to call `onlyOwner` functions. Can only be called by the current owner. NOTE: Renouncing ownership will leave the contract without an owner, thereby disabling any functionality that is only available to the owner."
      },
      "transferOwnership(address)": {
        "details": "Transfers ownership of the contract to a new account (`newOwner`). Can only be called by the current owner."
      }
    },
    "version": 1
  },
  "userdoc": {
    "kind": "user",
    "methods": {},
    "version": 1
  }
}