{
  "contractName": "CamoStaking",
  "abi": [
    {
      "inputs": [
        {
          "internalType": "uint256",
          "name": "baseRewardRate",
          "type": "uint256"
        }
      ],
      "stateMutability": "nonpayable",
      "type": "constructor"
    },
    {
      "anonymous": false,
      "inputs": [
        {
          "indexed": true,
          "internalType": "address",
          "name": "previousOwner",
          "type": "address"
        },
        {
          "indexed": true,
          "internalType": "address",
          "name": "newOwner",
          "type": "address"
        }
      ],
      "name": "OwnershipTransferred",
      "type": "event"
    },
    {
      "anonymous": false,
      "inputs": [
        {
          "indexed": true,
          "internalType": "address",
          "name": "user",
          "type": "address"
        }
      ],
      "name": "StakedWallet",
      "type": "event"
    },
    {
      "anonymous": false,
      "inputs": [
        {
          "indexed": true,
          "internalType": "address",
          "name": "user",
          "type": "address"
        },
        {
          "indexed": false,
          "internalType": "uint256",
          "name": "amount",
          "type": "uint256"
        }
      ],
      "name": "WithdrawnRewards",
      "type": "event"
    },
    {
      "inputs": [],
      "name": "camoNFTAddress",
      "outputs": [
        {
          "internalType": "contract CamoNFT",
          "name": "",
          "type": "address"
        }
      ],
      "stateMutability": "view",
      "type": "function",
      "constant": true
    },
    {
      "inputs": [],
      "name": "camoTokenAddress",
      "outputs": [
        {
          "internalType": "contract CamoToken",
          "name": "",
          "type": "address"
        }
      ],
      "stateMutability": "view",
      "type": "function",
      "constant": true
    },
    {
      "inputs": [],
      "name": "leftSupply",
      "outputs": [
        {
          "internalType": "uint256",
          "name": "",
          "type": "uint256"
        }
      ],
      "stateMutability": "view",
      "type": "function",
      "constant": true
    },
    {
      "inputs": [],
      "name": "owner",
      "outputs": [
        {
          "internalType": "address",
          "name": "",
          "type": "address"
        }
      ],
      "stateMutability": "view",
      "type": "function",
      "constant": true
    },
    {
      "inputs": [],
      "name": "renounceOwnership",
      "outputs": [],
      "stateMutability": "nonpayable",
      "type": "function"
    },
    {
      "inputs": [],
      "name": "tier1Rate",
      "outputs": [
        {
          "internalType": "uint256",
          "name": "",
          "type": "uint256"
        }
      ],
      "stateMutability": "view",
      "type": "function",
      "constant": true
    },
    {
      "inputs": [],
      "name": "tier2Rate",
      "outputs": [
        {
          "internalType": "uint256",
          "name": "",
          "type": "uint256"
        }
      ],
      "stateMutability": "view",
      "type": "function",
      "constant": true
    },
    {
      "inputs": [],
      "name": "tier3Rate",
      "outputs": [
        {
          "internalType": "uint256",
          "name": "",
          "type": "uint256"
        }
      ],
      "stateMutability": "view",
      "type": "function",
      "constant": true
    },
    {
      "inputs": [],
      "name": "tier4Rate",
      "outputs": [
        {
          "internalType": "uint256",
          "name": "",
          "type": "uint256"
        }
      ],
      "stateMutability": "view",
      "type": "function",
      "constant": true
    },
    {
      "inputs": [],
      "name": "tier5Rate",
      "outputs": [
        {
          "internalType": "uint256",
          "name": "",
          "type": "uint256"
        }
      ],
      "stateMutability": "view",
      "type": "function",
      "constant": true
    },
    {
      "inputs": [
        {
          "internalType": "address",
          "name": "newOwner",
          "type": "address"
        }
      ],
      "name": "transferOwnership",
      "outputs": [],
      "stateMutability": "nonpayable",
      "type": "function"
    },
    {
      "inputs": [
        {
          "internalType": "address",
          "name": "_camoNFTAddress",
          "type": "address"
        }
      ],
      "name": "setCamoNFTAddress",
      "outputs": [],
      "stateMutability": "nonpayable",
      "type": "function"
    },
    {
      "inputs": [
        {
          "internalType": "address",
          "name": "_tokenAddress",
          "type": "address"
        }
      ],
      "name": "setTokenAddressAndSendFunds",
      "outputs": [],
      "stateMutability": "nonpayable",
      "type": "function"
    },
    {
      "inputs": [
        {
          "internalType": "address",
          "name": "_serverAddress",
          "type": "address"
        }
      ],
      "name": "setServerAddress",
      "outputs": [],
      "stateMutability": "nonpayable",
      "type": "function"
    },
    {
      "inputs": [],
      "name": "getSupplyRatio",
      "outputs": [
        {
          "internalType": "uint256",
          "name": "",
          "type": "uint256"
        }
      ],
      "stateMutability": "view",
      "type": "function",
      "constant": true
    },
    {
      "inputs": [],
      "name": "stakeWallet",
      "outputs": [],
      "stateMutability": "nonpayable",
      "type": "function"
    },
    {
      "inputs": [],
      "name": "claimReward",
      "outputs": [],
      "stateMutability": "nonpayable",
      "type": "function"
    },
    {
      "inputs": [],
      "name": "distributeIncentives",
      "outputs": [],
      "stateMutability": "nonpayable",
      "type": "function"
    },
    {
      "inputs": [
        {
          "internalType": "enum CamoNFT.RarityLevel",
          "name": "rarity",
          "type": "uint8"
        }
      ],
      "name": "getRate",
      "outputs": [
        {
          "internalType": "uint256",
          "name": "",
          "type": "uint256"
        }
      ],
      "stateMutability": "view",
      "type": "function",
      "constant": true
    }
  ],
  "bytecode": "0x60806040526002600454620000159190620001ba565b6005556003600454620000299190620001ba565b60065560056004546200003d9190620001ba565b6007556008600454620000519190620001ba565b6008553480156200006157600080fd5b5060405162001e3938038062001e3983398181016040528101906200008791906200023b565b620000a76200009b620000b560201b60201c565b620000bd60201b60201c565b80600481905550506200026d565b600033905090565b60008060009054906101000a900473ffffffffffffffffffffffffffffffffffffffff169050816000806101000a81548173ffffffffffffffffffffffffffffffffffffffff021916908373ffffffffffffffffffffffffffffffffffffffff1602179055508173ffffffffffffffffffffffffffffffffffffffff168173ffffffffffffffffffffffffffffffffffffffff167f8be0079c531659141344cd1fd0a4f28419497f9722a3daafe3b4186f6b6457e060405160405180910390a35050565b6000819050919050565b7f4e487b7100000000000000000000000000000000000000000000000000000000600052601160045260246000fd5b6000620001c78262000181565b9150620001d48362000181565b9250828202620001e48162000181565b91508282048414831517620001fe57620001fd6200018b565b5b5092915050565b600080fd5b620002158162000181565b81146200022157600080fd5b50565b60008151905062000235816200020a565b92915050565b60006020828403121562000254576200025362000205565b5b6000620002648482850162000224565b91505092915050565b611bbc806200027d6000396000f3fe608060405234801561001057600080fd5b50600436106101215760003560e01c8063715018a6116100ad578063b88a802f11610071578063b88a802f1461029a578063cab65545146102a4578063cacb3a21146102c2578063df1e3f76146102e0578063f2fde38b146102fe57610121565b8063715018a61461021c578063752d57c4146102265780638da5cb5b14610230578063a090db251461024e578063b7ebae0b1461026a57610121565b806348c834c0116100f457806348c834c0146101865780634a5b2e69146101a45780636402efd3146101c2578063674ca237146101e05780636fe02e98146101fe57610121565b80630f9154b514610126578063160abc9d1461013057806334ced9711461014e57806347b64eb01461016a575b600080fd5b61012e61031a565b005b61013861042b565b6040516101459190611154565b60405180910390f35b610168600480360381019061016391906111e1565b610431565b005b610184600480360381019061017f91906111e1565b6105c9565b005b61018e610615565b60405161019b9190611154565b60405180910390f35b6101ac61061b565b6040516101b99190611154565b60405180910390f35b6101ca610621565b6040516101d79190611154565b60405180910390f35b6101e8610627565b6040516101f59190611154565b60405180910390f35b6102066106df565b6040516102139190611154565b60405180910390f35b6102246106e5565b005b61022e6106f9565b005b610238610928565b604051610245919061121d565b60405180910390f35b610268600480360381019061026391906111e1565b610951565b005b610284600480360381019061027f919061125d565b610a2e565b6040516102919190611154565b60405180910390f35b6102a2610b7c565b005b6102ac610cee565b6040516102b991906112e9565b60405180910390f35b6102ca610d14565b6040516102d79190611154565b60405180910390f35b6102e8610d1a565b6040516102f59190611325565b60405180910390f35b610318600480360381019061031391906111e1565b610d40565b005b6000600260003373ffffffffffffffffffffffffffffffffffffffff1673ffffffffffffffffffffffffffffffffffffffff168152602001908152602001600020600001541461039f576040517f08c379a00000000000000000000000000000000000000000000000000000000081526004016103969061139d565b60405180910390fd5b42600260003373ffffffffffffffffffffffffffffffffffffffff1673ffffffffffffffffffffffffffffffffffffffff168152602001908152602001600020600001819055503373ffffffffffffffffffffffffffffffffffffffff167f64f61e0ccd24748fd65f3a72d04d73f667f1aee51e5f96f14dc412c0fed07e6e60405160405180910390a2565b60045481565b610439610dc3565b80600960006101000a81548173ffffffffffffffffffffffffffffffffffffffff021916908373ffffffffffffffffffffffffffffffffffffffff1602179055506000600960009054906101000a900473ffffffffffffffffffffffffffffffffffffffff1673ffffffffffffffffffffffffffffffffffffffff166332cb6b0c6040518163ffffffff1660e01b8152600401602060405180830381865afa1580156104e9573d6000803e3d6000fd5b505050506040513d601f19601f8201168201806040525081019061050d91906113e9565b9050600960009054906101000a900473ffffffffffffffffffffffffffffffffffffffff1673ffffffffffffffffffffffffffffffffffffffff166323b872dd3330846040518463ffffffff1660e01b815260040161056e93929190611416565b6020604051808303816000875af115801561058d573d6000803e3d6000fd5b505050506040513d601f19601f820116820180604052508101906105b19190611485565b506001816105bf91906114e1565b6001819055505050565b6105d1610dc3565b80600b60006101000a81548173ffffffffffffffffffffffffffffffffffffffff021916908373ffffffffffffffffffffffffffffffffffffffff16021790555050565b60075481565b60085481565b60055481565b6000600960009054906101000a900473ffffffffffffffffffffffffffffffffffffffff1673ffffffffffffffffffffffffffffffffffffffff166332cb6b0c6040518163ffffffff1660e01b8152600401602060405180830381865afa158015610696573d6000803e3d6000fd5b505050506040513d601f19601f820116820180604052508101906106ba91906113e9565b670de0b6b3a76400006001546106d09190611515565b6106da9190611586565b905090565b60065481565b6106ed610dc3565b6106f76000610e41565b565b3373ffffffffffffffffffffffffffffffffffffffff16600b60009054906101000a900473ffffffffffffffffffffffffffffffffffffffff1673ffffffffffffffffffffffffffffffffffffffff1614610789576040517f08c379a000000000000000000000000000000000000000000000000000000000815260040161078090611603565b60405180910390fd5b600080610794610627565b905060005b60038054905081101561090a576000600382815481106107bc576107bb611623565b5b9060005260206000200160009054906101000a900473ffffffffffffffffffffffffffffffffffffffff16905060006107f482610f05565b846107ff9190611515565b9050600a60009054906101000a900473ffffffffffffffffffffffffffffffffffffffff1673ffffffffffffffffffffffffffffffffffffffff1663b60707ed836040518263ffffffff1660e01b815260040161085c919061121d565b600060405180830381600087803b15801561087657600080fd5b505af115801561088a573d6000803e3d6000fd5b5050505080600260008473ffffffffffffffffffffffffffffffffffffffff1673ffffffffffffffffffffffffffffffffffffffff16815260200190815260200160002060010160008282546108e09190611652565b9250508190555080856108f39190611652565b94505050808061090290611686565b915050610799565b50816001600082825461091d91906114e1565b925050819055505050565b60008060009054906101000a900473ffffffffffffffffffffffffffffffffffffffff16905090565b610959610dc3565b600073ffffffffffffffffffffffffffffffffffffffff16600a60009054906101000a900473ffffffffffffffffffffffffffffffffffffffff1673ffffffffffffffffffffffffffffffffffffffff16146109ea576040517f08c379a00000000000000000000000000000000000000000000000000000000081526004016109e19061171a565b60405180910390fd5b80600a60006101000a81548173ffffffffffffffffffffffffffffffffffffffff021916908373ffffffffffffffffffffffffffffffffffffffff16021790555050565b6000806004811115610a4357610a4261173a565b5b826004811115610a5657610a5561173a565b5b03610a65576004549050610b77565b60016004811115610a7957610a7861173a565b5b826004811115610a8c57610a8b61173a565b5b03610a9b576005549050610b77565b60026004811115610aaf57610aae61173a565b5b826004811115610ac257610ac161173a565b5b03610ad1576006549050610b77565b60036004811115610ae557610ae461173a565b5b826004811115610af857610af761173a565b5b03610b07576007549050610b77565b600480811115610b1a57610b1961173a565b5b826004811115610b2d57610b2c61173a565b5b03610b3c576008549050610b77565b6040517f08c379a0000000000000000000000000000000000000000000000000000000008152600401610b6e906117b5565b60405180910390fd5b919050565b6000600260003373ffffffffffffffffffffffffffffffffffffffff1673ffffffffffffffffffffffffffffffffffffffff1681526020019081526020016000206000015411610c01576040517f08c379a0000000000000000000000000000000000000000000000000000000008152600401610bf890611821565b60405180910390fd5b6000600260003373ffffffffffffffffffffffffffffffffffffffff1673ffffffffffffffffffffffffffffffffffffffff168152602001908152602001600020600101549050600960009054906101000a900473ffffffffffffffffffffffffffffffffffffffff1673ffffffffffffffffffffffffffffffffffffffff166323b872dd3033846040518463ffffffff1660e01b8152600401610ca793929190611416565b6020604051808303816000875af1158015610cc6573d6000803e3d6000fd5b505050506040513d601f19601f82011682018060405250810190610cea9190611485565b5050565b600960009054906101000a900473ffffffffffffffffffffffffffffffffffffffff1681565b60015481565b600a60009054906101000a900473ffffffffffffffffffffffffffffffffffffffff1681565b610d48610dc3565b600073ffffffffffffffffffffffffffffffffffffffff168173ffffffffffffffffffffffffffffffffffffffff1603610db7576040517f08c379a0000000000000000000000000000000000000000000000000000000008152600401610dae906118b3565b60405180910390fd5b610dc081610e41565b50565b610dcb611062565b73ffffffffffffffffffffffffffffffffffffffff16610de9610928565b73ffffffffffffffffffffffffffffffffffffffff1614610e3f576040517f08c379a0000000000000000000000000000000000000000000000000000000008152600401610e369061191f565b60405180910390fd5b565b60008060009054906101000a900473ffffffffffffffffffffffffffffffffffffffff169050816000806101000a81548173ffffffffffffffffffffffffffffffffffffffff021916908373ffffffffffffffffffffffffffffffffffffffff1602179055508173ffffffffffffffffffffffffffffffffffffffff168173ffffffffffffffffffffffffffffffffffffffff167f8be0079c531659141344cd1fd0a4f28419497f9722a3daafe3b4186f6b6457e060405160405180910390a35050565b600080600090506000600a60009054906101000a900473ffffffffffffffffffffffffffffffffffffffff1673ffffffffffffffffffffffffffffffffffffffff1663d9d61655856040518263ffffffff1660e01b8152600401610f69919061121d565b600060405180830381865afa158015610f86573d6000803e3d6000fd5b505050506040513d6000823e3d601f19601f82011682018060405250810190610faf9190611a98565b905060005b8151811015611057576000806000610fe5858581518110610fd857610fd7611623565b5b602002602001015161106a565b94509450945050506000610ff98383611121565b90506000610e10824261100c91906114e1565b6110169190611586565b9050600061102386610a2e565b905081816110319190611515565b8961103c9190611652565b9850505050505050808061104f90611686565b915050610fb4565b508192505050919050565b600033905090565b6000806000806000600a60009054906101000a900473ffffffffffffffffffffffffffffffffffffffff1673ffffffffffffffffffffffffffffffffffffffff1663265aa621876040518263ffffffff1660e01b81526004016110cd9190611154565b60a060405180830381865afa1580156110ea573d6000803e3d6000fd5b505050506040513d601f19601f8201168201806040525081019061110e9190611b0b565b9450945094509450945091939590929450565b6000818310156111315781611133565b825b905092915050565b6000819050919050565b61114e8161113b565b82525050565b60006020820190506111696000830184611145565b92915050565b6000604051905090565b600080fd5b600080fd5b600073ffffffffffffffffffffffffffffffffffffffff82169050919050565b60006111ae82611183565b9050919050565b6111be816111a3565b81146111c957600080fd5b50565b6000813590506111db816111b5565b92915050565b6000602082840312156111f7576111f6611179565b5b6000611205848285016111cc565b91505092915050565b611217816111a3565b82525050565b6000602082019050611232600083018461120e565b92915050565b6005811061124557600080fd5b50565b60008135905061125781611238565b92915050565b60006020828403121561127357611272611179565b5b600061128184828501611248565b91505092915050565b6000819050919050565b60006112af6112aa6112a584611183565b61128a565b611183565b9050919050565b60006112c182611294565b9050919050565b60006112d3826112b6565b9050919050565b6112e3816112c8565b82525050565b60006020820190506112fe60008301846112da565b92915050565b600061130f826112b6565b9050919050565b61131f81611304565b82525050565b600060208201905061133a6000830184611316565b92915050565b600082825260208201905092915050565b7f416c7265616479205374616b6564000000000000000000000000000000000000600082015250565b6000611387600e83611340565b915061139282611351565b602082019050919050565b600060208201905081810360008301526113b68161137a565b9050919050565b6113c68161113b565b81146113d157600080fd5b50565b6000815190506113e3816113bd565b92915050565b6000602082840312156113ff576113fe611179565b5b600061140d848285016113d4565b91505092915050565b600060608201905061142b600083018661120e565b611438602083018561120e565b6114456040830184611145565b949350505050565b60008115159050919050565b6114628161144d565b811461146d57600080fd5b50565b60008151905061147f81611459565b92915050565b60006020828403121561149b5761149a611179565b5b60006114a984828501611470565b91505092915050565b7f4e487b7100000000000000000000000000000000000000000000000000000000600052601160045260246000fd5b60006114ec8261113b565b91506114f78361113b565b925082820390508181111561150f5761150e6114b2565b5b92915050565b60006115208261113b565b915061152b8361113b565b92508282026115398161113b565b915082820484148315176115505761154f6114b2565b5b5092915050565b7f4e487b7100000000000000000000000000000000000000000000000000000000600052601260045260246000fd5b60006115918261113b565b915061159c8361113b565b9250826115ac576115ab611557565b5b828204905092915050565b7f4e6f7420417574686f7269736564000000000000000000000000000000000000600082015250565b60006115ed600e83611340565b91506115f8826115b7565b602082019050919050565b6000602082019050818103600083015261161c816115e0565b9050919050565b7f4e487b7100000000000000000000000000000000000000000000000000000000600052603260045260246000fd5b600061165d8261113b565b91506116688361113b565b92508282019050808211156116805761167f6114b2565b5b92915050565b60006116918261113b565b91507fffffffffffffffffffffffffffffffffffffffffffffffffffffffffffffffff82036116c3576116c26114b2565b5b600182019050919050565b7f416c726561647920536574000000000000000000000000000000000000000000600082015250565b6000611704600b83611340565b915061170f826116ce565b602082019050919050565b60006020820190508181036000830152611733816116f7565b9050919050565b7f4e487b7100000000000000000000000000000000000000000000000000000000600052602160045260246000fd5b7f496e76616c696420726172697479206c6576656c000000000000000000000000600082015250565b600061179f601483611340565b91506117aa82611769565b602082019050919050565b600060208201905081810360008301526117ce81611792565b9050919050565b7f4e6f742061207374616b65720000000000000000000000000000000000000000600082015250565b600061180b600c83611340565b9150611816826117d5565b602082019050919050565b6000602082019050818103600083015261183a816117fe565b9050919050565b7f4f776e61626c653a206e6577206f776e657220697320746865207a65726f206160008201527f6464726573730000000000000000000000000000000000000000000000000000602082015250565b600061189d602683611340565b91506118a882611841565b604082019050919050565b600060208201905081810360008301526118cc81611890565b9050919050565b7f4f776e61626c653a2063616c6c6572206973206e6f7420746865206f776e6572600082015250565b6000611909602083611340565b9150611914826118d3565b602082019050919050565b60006020820190508181036000830152611938816118fc565b9050919050565b600080fd5b6000601f19601f8301169050919050565b7f4e487b7100000000000000000000000000000000000000000000000000000000600052604160045260246000fd5b61198d82611944565b810181811067ffffffffffffffff821117156119ac576119ab611955565b5b80604052505050565b60006119bf61116f565b90506119cb8282611984565b919050565b600067ffffffffffffffff8211156119eb576119ea611955565b5b602082029050602081019050919050565b600080fd5b6000611a14611a0f846119d0565b6119b5565b90508083825260208201905060208402830185811115611a3757611a366119fc565b5b835b81811015611a605780611a4c88826113d4565b845260208401935050602081019050611a39565b5050509392505050565b600082601f830112611a7f57611a7e61193f565b5b8151611a8f848260208601611a01565b91505092915050565b600060208284031215611aae57611aad611179565b5b600082015167ffffffffffffffff811115611acc57611acb61117e565b5b611ad884828501611a6a565b91505092915050565b600081519050611af0816111b5565b92915050565b600081519050611b0581611238565b92915050565b600080600080600060a08688031215611b2757611b26611179565b5b6000611b35888289016113d4565b9550506020611b4688828901611ae1565b9450506040611b5788828901611af6565b9350506060611b68888289016113d4565b9250506080611b79888289016113d4565b915050929550929590935056fea264697066735822122074292d9f2c014441d6ecb7bebc9d12c39c9b76a89508120475b27a77b48e74ba64736f6c63430008120033",
  "immutableReferences": {},
  "source": "// SPDX-License-Identifier: GPL-3.0-only\n// Author:- @sauravrao637\npragma solidity ^0.8.18;\n\nimport \"./CamoNFT.sol\";\nimport \"./CamoToken.sol\";\n\ncontract CamoStaking is Ownable {\n    struct Staker {\n        uint256 userJoinedTS;\n        uint256 reward;\n    }\n\n    uint256 public leftSupply;\n\n    mapping(address => Staker) stakers;\n    address[] stakingAddress;\n\n    uint256 public tier1Rate;\n    uint256 public tier2Rate = tier1Rate * 2;\n    uint256 public tier3Rate = tier1Rate * 3;\n    uint256 public tier4Rate = tier1Rate * 5;\n    uint256 public tier5Rate = tier1Rate * 8;\n\n    CamoToken public camoTokenAddress;\n\n    CamoNFT public camoNFTAddress;\n\n    address private serverAddress;\n\n    event StakedWallet(address indexed user);\n\n    event WithdrawnRewards(address indexed user, uint256 amount);\n\n    constructor(uint256 baseRewardRate) {\n        tier1Rate = baseRewardRate;\n    }\n\n    modifier onlyStaker() {\n        require(stakers[msg.sender].userJoinedTS > 0, \"Not a staker\");\n        _;\n    }\n\n    modifier onlyAuthorized() {\n        require(serverAddress == msg.sender, \"Not Authorised\");\n        _;\n    }\n\n    function getMax(uint256 a, uint256 b) internal pure returns (uint256) {\n        return a >= b ? a : b;\n    }\n\n    function setCamoNFTAddress(address _camoNFTAddress) public onlyOwner {\n        require(address(camoNFTAddress) == address(0), \"Already Set\");\n        camoNFTAddress = CamoNFT(_camoNFTAddress);\n    }\n\n    function setTokenAddressAndSendFunds(address _tokenAddress) public onlyOwner{\n        camoTokenAddress = CamoToken(_tokenAddress);\n        uint256 totalSupply = camoTokenAddress.MAX_SUPPLY();\n        camoTokenAddress.transferFrom(msg.sender, address(this), totalSupply);\n        leftSupply = totalSupply-1;\n    }\n\n    function setServerAddress(address _serverAddress) public onlyOwner{\n        serverAddress = _serverAddress;\n    }\n\n    function getSupplyRatio() public view returns (uint256) {\n        return (leftSupply * 10**18) / camoTokenAddress.MAX_SUPPLY();\n    }\n\n    function stakeWallet() public {\n        require(stakers[msg.sender].userJoinedTS == 0, \"Already Staked\");\n        stakers[msg.sender].userJoinedTS = block.timestamp;\n        emit StakedWallet(msg.sender);\n    }\n\n    function claimReward() public onlyStaker {\n        uint256 reward = stakers[msg.sender].reward;\n        camoTokenAddress.transferFrom(address(this), msg.sender, reward);\n    }\n\n    function getNftById(uint256 tokenId)\n        internal\n        view\n        returns (\n            uint256,\n            address,\n            CamoNFT.RarityLevel,\n            uint256,\n            uint256\n        )\n    {\n        return camoNFTAddress.nfts(tokenId);\n    }\n\n    function calculateIncentive(address _user) internal view returns (uint256) {\n        uint256 incentiveAmount = 0;\n        uint256[] memory tokens = camoNFTAddress.getOwnedTokens(_user);\n        for (uint256 i = 0; i < tokens.length; i++) {\n            (\n                ,\n                ,\n                CamoNFT.RarityLevel rarity,\n                uint256 entryTimestamp,\n                uint256 stakeClaimedTimeStamp\n            ) = getNftById(tokens[i]);\n            uint256 lastStaked = getMax(entryTimestamp, stakeClaimedTimeStamp);\n            uint256 holdingTime = ((block.timestamp - lastStaked) / 1 hours);\n            uint256 rate = getRate(rarity);\n            incentiveAmount += rate * holdingTime;\n        }\n        return incentiveAmount;\n    }\n\n    // Function to distribute incentives to all stakers based on the duration they hold the NFTs\n    function distributeIncentives() public onlyAuthorized {\n        uint256 total = 0;\n        uint256 currSupplyRatio = getSupplyRatio();\n        for (uint256 i = 0; i < stakingAddress.length; i++) {\n            address _user = stakingAddress[i];\n            uint256 reward = currSupplyRatio * calculateIncentive(_user);\n            camoNFTAddress.updateTimestamp(_user);\n            stakers[_user].reward += reward;\n            total += reward;\n        }\n        leftSupply -= total;\n    }\n\n    function getRate(CamoNFT.RarityLevel rarity) public view returns (uint256) {\n        if (rarity == CamoNFT.RarityLevel.Common) {\n            return tier1Rate;\n        } else if (rarity == CamoNFT.RarityLevel.Uncommon) {\n            return tier2Rate;\n        } else if (rarity == CamoNFT.RarityLevel.Rare) {\n            return tier3Rate;\n        } else if (rarity == CamoNFT.RarityLevel.Epic) {\n            return tier4Rate;\n        } else if (rarity == CamoNFT.RarityLevel.Legendary) {\n            return tier5Rate;\n        }\n        revert(\"Invalid rarity level\");\n    }\n}\n",
  "sourcePath": "C:\\Users\\asus\\Desktop\\Project\\DeveloperWeek-Hack\\packages\\truffle\\contracts\\CamoStaking.sol",
  "compiler": {
    "name": "solc",
    "version": "0.8.18+commit.87f61d96.Emscripten.clang"
  },
  "schemaVersion": "3.4.14",
  "updatedAt": "2023-06-17T14:56:49.731Z",
  "networkType": "ethereum",
  "devdoc": {
    "kind": "dev",
    "methods": {
      "owner()": {
        "details": "Returns the address of the current owner."
      },
      "renounceOwnership()": {
        "details": "Leaves the contract without owner. It will not be possible to call `onlyOwner` functions. Can only be called by the current owner. NOTE: Renouncing ownership will leave the contract without an owner, thereby disabling any functionality that is only available to the owner."
      },
      "transferOwnership(address)": {
        "details": "Transfers ownership of the contract to a new account (`newOwner`). Can only be called by the current owner."
      }
    },
    "version": 1
  },
  "userdoc": {
    "kind": "user",
    "methods": {},
    "version": 1
  }
}