{
  "contractName": "CamoStaking",
  "abi": [
    {
      "inputs": [
        {
          "internalType": "uint256",
          "name": "baseRewardRate",
          "type": "uint256"
        }
      ],
      "stateMutability": "nonpayable",
      "type": "constructor"
    },
    {
      "anonymous": false,
      "inputs": [
        {
          "indexed": true,
          "internalType": "address",
          "name": "previousOwner",
          "type": "address"
        },
        {
          "indexed": true,
          "internalType": "address",
          "name": "newOwner",
          "type": "address"
        }
      ],
      "name": "OwnershipTransferred",
      "type": "event"
    },
    {
      "anonymous": false,
      "inputs": [
        {
          "indexed": true,
          "internalType": "address",
          "name": "user",
          "type": "address"
        }
      ],
      "name": "StakedWallet",
      "type": "event"
    },
    {
      "anonymous": false,
      "inputs": [
        {
          "indexed": true,
          "internalType": "address",
          "name": "user",
          "type": "address"
        },
        {
          "indexed": false,
          "internalType": "uint256",
          "name": "amount",
          "type": "uint256"
        }
      ],
      "name": "WithdrawnRewards",
      "type": "event"
    },
    {
      "inputs": [],
      "name": "camoNFTAddress",
      "outputs": [
        {
          "internalType": "contract CamoNFT",
          "name": "",
          "type": "address"
        }
      ],
      "stateMutability": "view",
      "type": "function",
      "constant": true
    },
    {
      "inputs": [],
      "name": "camoTokenAddress",
      "outputs": [
        {
          "internalType": "contract CamoToken",
          "name": "",
          "type": "address"
        }
      ],
      "stateMutability": "view",
      "type": "function",
      "constant": true
    },
    {
      "inputs": [],
      "name": "leftSupply",
      "outputs": [
        {
          "internalType": "uint256",
          "name": "",
          "type": "uint256"
        }
      ],
      "stateMutability": "view",
      "type": "function",
      "constant": true
    },
    {
      "inputs": [],
      "name": "owner",
      "outputs": [
        {
          "internalType": "address",
          "name": "",
          "type": "address"
        }
      ],
      "stateMutability": "view",
      "type": "function",
      "constant": true
    },
    {
      "inputs": [],
      "name": "renounceOwnership",
      "outputs": [],
      "stateMutability": "nonpayable",
      "type": "function"
    },
    {
      "inputs": [],
      "name": "tier1Rate",
      "outputs": [
        {
          "internalType": "uint256",
          "name": "",
          "type": "uint256"
        }
      ],
      "stateMutability": "view",
      "type": "function",
      "constant": true
    },
    {
      "inputs": [],
      "name": "tier2Rate",
      "outputs": [
        {
          "internalType": "uint256",
          "name": "",
          "type": "uint256"
        }
      ],
      "stateMutability": "view",
      "type": "function",
      "constant": true
    },
    {
      "inputs": [],
      "name": "tier3Rate",
      "outputs": [
        {
          "internalType": "uint256",
          "name": "",
          "type": "uint256"
        }
      ],
      "stateMutability": "view",
      "type": "function",
      "constant": true
    },
    {
      "inputs": [],
      "name": "tier4Rate",
      "outputs": [
        {
          "internalType": "uint256",
          "name": "",
          "type": "uint256"
        }
      ],
      "stateMutability": "view",
      "type": "function",
      "constant": true
    },
    {
      "inputs": [],
      "name": "tier5Rate",
      "outputs": [
        {
          "internalType": "uint256",
          "name": "",
          "type": "uint256"
        }
      ],
      "stateMutability": "view",
      "type": "function",
      "constant": true
    },
    {
      "inputs": [
        {
          "internalType": "address",
          "name": "newOwner",
          "type": "address"
        }
      ],
      "name": "transferOwnership",
      "outputs": [],
      "stateMutability": "nonpayable",
      "type": "function"
    },
    {
      "inputs": [
        {
          "internalType": "address",
          "name": "_camoNFTAddress",
          "type": "address"
        }
      ],
      "name": "setCamoNFTAddress",
      "outputs": [],
      "stateMutability": "nonpayable",
      "type": "function"
    },
    {
      "inputs": [
        {
          "internalType": "address",
          "name": "_tokenAddress",
          "type": "address"
        }
      ],
      "name": "setTokenAddressAndSendFunds",
      "outputs": [],
      "stateMutability": "nonpayable",
      "type": "function"
    },
    {
      "inputs": [
        {
          "internalType": "address",
          "name": "_serverAddress",
          "type": "address"
        }
      ],
      "name": "setServerAddress",
      "outputs": [],
      "stateMutability": "nonpayable",
      "type": "function"
    },
    {
      "inputs": [],
      "name": "getSupplyRatio",
      "outputs": [
        {
          "internalType": "uint256",
          "name": "",
          "type": "uint256"
        }
      ],
      "stateMutability": "view",
      "type": "function",
      "constant": true
    },
    {
      "inputs": [],
      "name": "stakeWallet",
      "outputs": [],
      "stateMutability": "nonpayable",
      "type": "function"
    },
    {
      "inputs": [],
      "name": "claimReward",
      "outputs": [],
      "stateMutability": "nonpayable",
      "type": "function"
    },
    {
      "inputs": [],
      "name": "distributeIncentives",
      "outputs": [],
      "stateMutability": "nonpayable",
      "type": "function"
    },
    {
      "inputs": [
        {
          "internalType": "enum CamoNFT.RarityLevel",
          "name": "rarity",
          "type": "uint8"
        }
      ],
      "name": "getRate",
      "outputs": [
        {
          "internalType": "uint256",
          "name": "",
          "type": "uint256"
        }
      ],
      "stateMutability": "view",
      "type": "function",
      "constant": true
    },
    {
      "inputs": [
        {
          "internalType": "address",
          "name": "_user",
          "type": "address"
        }
      ],
      "name": "getStaker",
      "outputs": [
        {
          "components": [
            {
              "internalType": "uint256",
              "name": "userJoinedTS",
              "type": "uint256"
            },
            {
              "internalType": "uint256",
              "name": "reward",
              "type": "uint256"
            }
          ],
          "internalType": "struct CamoStaking.Staker",
          "name": "staker",
          "type": "tuple"
        }
      ],
      "stateMutability": "view",
      "type": "function",
      "constant": true
    },
    {
      "inputs": [],
      "name": "amIStaker",
      "outputs": [
        {
          "internalType": "bool",
          "name": "",
          "type": "bool"
        }
      ],
      "stateMutability": "view",
      "type": "function",
      "constant": true
    },
    {
      "inputs": [],
      "name": "rewardAccumulated",
      "outputs": [
        {
          "internalType": "uint256",
          "name": "",
          "type": "uint256"
        }
      ],
      "stateMutability": "view",
      "type": "function",
      "constant": true
    }
  ],
  "bytecode": "0x60806040526002600454620000159190620001ba565b6005556003600454620000299190620001ba565b60065560056004546200003d9190620001ba565b6007556008600454620000519190620001ba565b6008553480156200006157600080fd5b50604051620021e1380380620021e183398181016040528101906200008791906200023b565b620000a76200009b620000b560201b60201c565b620000bd60201b60201c565b80600481905550506200026d565b600033905090565b60008060009054906101000a900473ffffffffffffffffffffffffffffffffffffffff169050816000806101000a81548173ffffffffffffffffffffffffffffffffffffffff021916908373ffffffffffffffffffffffffffffffffffffffff1602179055508173ffffffffffffffffffffffffffffffffffffffff168173ffffffffffffffffffffffffffffffffffffffff167f8be0079c531659141344cd1fd0a4f28419497f9722a3daafe3b4186f6b6457e060405160405180910390a35050565b6000819050919050565b7f4e487b7100000000000000000000000000000000000000000000000000000000600052601160045260246000fd5b6000620001c78262000181565b9150620001d48362000181565b9250828202620001e48162000181565b91508282048414831517620001fe57620001fd6200018b565b5b5092915050565b600080fd5b620002158162000181565b81146200022157600080fd5b50565b60008151905062000235816200020a565b92915050565b60006020828403121562000254576200025362000205565b5b6000620002648482850162000224565b91505092915050565b611f64806200027d6000396000f3fe608060405234801561001057600080fd5b50600436106101425760003560e01c8063752d57c4116100b8578063b7ebae0b1161007c578063b7ebae0b146102f7578063b88a802f14610327578063cab6554514610331578063cacb3a211461034f578063df1e3f761461036d578063f2fde38b1461038b57610142565b8063752d57c4146102655780638da5cb5b1461026f578063a090db251461028d578063a23c44b1146102a9578063a3613474146102d957610142565b80634a5b2e691161010a5780634a5b2e69146101c55780636402efd3146101e3578063674ca237146102015780636e9a204b1461021f5780636fe02e981461023d578063715018a61461025b57610142565b80630f9154b514610147578063160abc9d1461015157806334ced9711461016f57806347b64eb01461018b57806348c834c0146101a7575b600080fd5b61014f6103a7565b005b610159610540565b6040516101669190611479565b60405180910390f35b61018960048036038101906101849190611506565b610546565b005b6101a560048036038101906101a09190611506565b6106de565b005b6101af61072a565b6040516101bc9190611479565b60405180910390f35b6101cd610730565b6040516101da9190611479565b60405180910390f35b6101eb610736565b6040516101f89190611479565b60405180910390f35b61020961073c565b6040516102169190611479565b60405180910390f35b6102276107f4565b6040516102349190611479565b60405180910390f35b6102456108c2565b6040516102529190611479565b60405180910390f35b6102636108c8565b005b61026d6108dc565b005b610277610b1e565b6040516102849190611542565b60405180910390f35b6102a760048036038101906102a29190611506565b610b47565b005b6102c360048036038101906102be9190611506565b610c24565b6040516102d0919061159b565b60405180910390f35b6102e1610c99565b6040516102ee91906115d1565b60405180910390f35b610311600480360381019061030c9190611611565b610d26565b60405161031e9190611479565b60405180910390f35b61032f610e74565b005b610339610fe6565b604051610346919061169d565b60405180910390f35b61035761100c565b6040516103649190611479565b60405180910390f35b610375611012565b60405161038291906116d9565b60405180910390f35b6103a560048036038101906103a09190611506565b611038565b005b6000600260003373ffffffffffffffffffffffffffffffffffffffff1673ffffffffffffffffffffffffffffffffffffffff168152602001908152602001600020600001541461042c576040517f08c379a000000000000000000000000000000000000000000000000000000000815260040161042390611751565b60405180910390fd5b60405180604001604052804281526020016000815250600260003373ffffffffffffffffffffffffffffffffffffffff1673ffffffffffffffffffffffffffffffffffffffff16815260200190815260200160002060008201518160000155602082015181600101559050506003339080600181540180825580915050600190039060005260206000200160009091909190916101000a81548173ffffffffffffffffffffffffffffffffffffffff021916908373ffffffffffffffffffffffffffffffffffffffff1602179055503373ffffffffffffffffffffffffffffffffffffffff167f64f61e0ccd24748fd65f3a72d04d73f667f1aee51e5f96f14dc412c0fed07e6e60405160405180910390a2565b60045481565b61054e6110bb565b80600960006101000a81548173ffffffffffffffffffffffffffffffffffffffff021916908373ffffffffffffffffffffffffffffffffffffffff1602179055506000600960009054906101000a900473ffffffffffffffffffffffffffffffffffffffff1673ffffffffffffffffffffffffffffffffffffffff166332cb6b0c6040518163ffffffff1660e01b8152600401602060405180830381865afa1580156105fe573d6000803e3d6000fd5b505050506040513d601f19601f82011682018060405250810190610622919061179d565b9050600960009054906101000a900473ffffffffffffffffffffffffffffffffffffffff1673ffffffffffffffffffffffffffffffffffffffff166323b872dd3330846040518463ffffffff1660e01b8152600401610683939291906117ca565b6020604051808303816000875af11580156106a2573d6000803e3d6000fd5b505050506040513d601f19601f820116820180604052508101906106c6919061182d565b506001816106d49190611889565b6001819055505050565b6106e66110bb565b80600b60006101000a81548173ffffffffffffffffffffffffffffffffffffffff021916908373ffffffffffffffffffffffffffffffffffffffff16021790555050565b60075481565b60085481565b60055481565b6000600960009054906101000a900473ffffffffffffffffffffffffffffffffffffffff1673ffffffffffffffffffffffffffffffffffffffff166332cb6b0c6040518163ffffffff1660e01b8152600401602060405180830381865afa1580156107ab573d6000803e3d6000fd5b505050506040513d601f19601f820116820180604052508101906107cf919061179d565b670de0b6b3a76400006001546107e591906118bd565b6107ef919061192e565b905090565b600080600260003373ffffffffffffffffffffffffffffffffffffffff1673ffffffffffffffffffffffffffffffffffffffff168152602001908152602001600020600001541161087a576040517f08c379a0000000000000000000000000000000000000000000000000000000008152600401610871906119ab565b60405180910390fd5b600260003373ffffffffffffffffffffffffffffffffffffffff1673ffffffffffffffffffffffffffffffffffffffff16815260200190815260200160002060010154905090565b60065481565b6108d06110bb565b6108da6000611139565b565b3373ffffffffffffffffffffffffffffffffffffffff16600b60009054906101000a900473ffffffffffffffffffffffffffffffffffffffff1673ffffffffffffffffffffffffffffffffffffffff161461096c576040517f08c379a000000000000000000000000000000000000000000000000000000000815260040161096390611a17565b60405180910390fd5b60008061097761073c565b905060005b600380549050811015610b005760006003828154811061099f5761099e611a37565b5b9060005260206000200160009054906101000a900473ffffffffffffffffffffffffffffffffffffffff1690506000670de0b6b3a76400006109e0836111fd565b856109eb91906118bd565b6109f5919061192e565b9050600a60009054906101000a900473ffffffffffffffffffffffffffffffffffffffff1673ffffffffffffffffffffffffffffffffffffffff1663b60707ed836040518263ffffffff1660e01b8152600401610a529190611542565b600060405180830381600087803b158015610a6c57600080fd5b505af1158015610a80573d6000803e3d6000fd5b5050505080600260008473ffffffffffffffffffffffffffffffffffffffff1673ffffffffffffffffffffffffffffffffffffffff1681526020019081526020016000206001016000828254610ad69190611a66565b925050819055508085610ae99190611a66565b945050508080610af890611a9a565b91505061097c565b508160016000828254610b139190611889565b925050819055505050565b60008060009054906101000a900473ffffffffffffffffffffffffffffffffffffffff16905090565b610b4f6110bb565b600073ffffffffffffffffffffffffffffffffffffffff16600a60009054906101000a900473ffffffffffffffffffffffffffffffffffffffff1673ffffffffffffffffffffffffffffffffffffffff1614610be0576040517f08c379a0000000000000000000000000000000000000000000000000000000008152600401610bd790611b2e565b60405180910390fd5b80600a60006101000a81548173ffffffffffffffffffffffffffffffffffffffff021916908373ffffffffffffffffffffffffffffffffffffffff16021790555050565b610c2c611446565b610c346110bb565b600260008373ffffffffffffffffffffffffffffffffffffffff1673ffffffffffffffffffffffffffffffffffffffff168152602001908152602001600020604051806040016040529081600082015481526020016001820154815250509050919050565b600080600260003373ffffffffffffffffffffffffffffffffffffffff1673ffffffffffffffffffffffffffffffffffffffff1681526020019081526020016000206000015411610d1f576040517f08c379a0000000000000000000000000000000000000000000000000000000008152600401610d16906119ab565b60405180910390fd5b6001905090565b6000806004811115610d3b57610d3a611b4e565b5b826004811115610d4e57610d4d611b4e565b5b03610d5d576004549050610e6f565b60016004811115610d7157610d70611b4e565b5b826004811115610d8457610d83611b4e565b5b03610d93576005549050610e6f565b60026004811115610da757610da6611b4e565b5b826004811115610dba57610db9611b4e565b5b03610dc9576006549050610e6f565b60036004811115610ddd57610ddc611b4e565b5b826004811115610df057610def611b4e565b5b03610dff576007549050610e6f565b600480811115610e1257610e11611b4e565b5b826004811115610e2557610e24611b4e565b5b03610e34576008549050610e6f565b6040517f08c379a0000000000000000000000000000000000000000000000000000000008152600401610e6690611bc9565b60405180910390fd5b919050565b6000600260003373ffffffffffffffffffffffffffffffffffffffff1673ffffffffffffffffffffffffffffffffffffffff1681526020019081526020016000206000015411610ef9576040517f08c379a0000000000000000000000000000000000000000000000000000000008152600401610ef0906119ab565b60405180910390fd5b6000600260003373ffffffffffffffffffffffffffffffffffffffff1673ffffffffffffffffffffffffffffffffffffffff168152602001908152602001600020600101549050600960009054906101000a900473ffffffffffffffffffffffffffffffffffffffff1673ffffffffffffffffffffffffffffffffffffffff166323b872dd3033846040518463ffffffff1660e01b8152600401610f9f939291906117ca565b6020604051808303816000875af1158015610fbe573d6000803e3d6000fd5b505050506040513d601f19601f82011682018060405250810190610fe2919061182d565b5050565b600960009054906101000a900473ffffffffffffffffffffffffffffffffffffffff1681565b60015481565b600a60009054906101000a900473ffffffffffffffffffffffffffffffffffffffff1681565b6110406110bb565b600073ffffffffffffffffffffffffffffffffffffffff168173ffffffffffffffffffffffffffffffffffffffff16036110af576040517f08c379a00000000000000000000000000000000000000000000000000000000081526004016110a690611c5b565b60405180910390fd5b6110b881611139565b50565b6110c361136d565b73ffffffffffffffffffffffffffffffffffffffff166110e1610b1e565b73ffffffffffffffffffffffffffffffffffffffff1614611137576040517f08c379a000000000000000000000000000000000000000000000000000000000815260040161112e90611cc7565b60405180910390fd5b565b60008060009054906101000a900473ffffffffffffffffffffffffffffffffffffffff169050816000806101000a81548173ffffffffffffffffffffffffffffffffffffffff021916908373ffffffffffffffffffffffffffffffffffffffff1602179055508173ffffffffffffffffffffffffffffffffffffffff168173ffffffffffffffffffffffffffffffffffffffff167f8be0079c531659141344cd1fd0a4f28419497f9722a3daafe3b4186f6b6457e060405160405180910390a35050565b600080600090506000600a60009054906101000a900473ffffffffffffffffffffffffffffffffffffffff1673ffffffffffffffffffffffffffffffffffffffff1663d9d61655856040518263ffffffff1660e01b81526004016112619190611542565b600060405180830381865afa15801561127e573d6000803e3d6000fd5b505050506040513d6000823e3d601f19601f820116820180604052508101906112a79190611e40565b905060005b81518110156113625760008060006112dd8585815181106112d0576112cf611a37565b5b6020026020010151611375565b945094509450505060006112f1838361142c565b9050600081426113019190611889565b9050600061130e86610d26565b905061ea60670de0b6b3a7640000838361132891906118bd565b61133291906118bd565b61133c919061192e565b896113479190611a66565b9850505050505050808061135a90611a9a565b9150506112ac565b508192505050919050565b600033905090565b6000806000806000600a60009054906101000a900473ffffffffffffffffffffffffffffffffffffffff1673ffffffffffffffffffffffffffffffffffffffff1663265aa621876040518263ffffffff1660e01b81526004016113d89190611479565b60a060405180830381865afa1580156113f5573d6000803e3d6000fd5b505050506040513d601f19601f820116820180604052508101906114199190611eb3565b9450945094509450945091939590929450565b60008183101561143c578161143e565b825b905092915050565b604051806040016040528060008152602001600081525090565b6000819050919050565b61147381611460565b82525050565b600060208201905061148e600083018461146a565b92915050565b6000604051905090565b600080fd5b600080fd5b600073ffffffffffffffffffffffffffffffffffffffff82169050919050565b60006114d3826114a8565b9050919050565b6114e3816114c8565b81146114ee57600080fd5b50565b600081359050611500816114da565b92915050565b60006020828403121561151c5761151b61149e565b5b600061152a848285016114f1565b91505092915050565b61153c816114c8565b82525050565b60006020820190506115576000830184611533565b92915050565b61156681611460565b82525050565b604082016000820151611582600085018261155d565b506020820151611595602085018261155d565b50505050565b60006040820190506115b0600083018461156c565b92915050565b60008115159050919050565b6115cb816115b6565b82525050565b60006020820190506115e660008301846115c2565b92915050565b600581106115f957600080fd5b50565b60008135905061160b816115ec565b92915050565b6000602082840312156116275761162661149e565b5b6000611635848285016115fc565b91505092915050565b6000819050919050565b600061166361165e611659846114a8565b61163e565b6114a8565b9050919050565b600061167582611648565b9050919050565b60006116878261166a565b9050919050565b6116978161167c565b82525050565b60006020820190506116b2600083018461168e565b92915050565b60006116c38261166a565b9050919050565b6116d3816116b8565b82525050565b60006020820190506116ee60008301846116ca565b92915050565b600082825260208201905092915050565b7f416c7265616479205374616b6564000000000000000000000000000000000000600082015250565b600061173b600e836116f4565b915061174682611705565b602082019050919050565b6000602082019050818103600083015261176a8161172e565b9050919050565b61177a81611460565b811461178557600080fd5b50565b60008151905061179781611771565b92915050565b6000602082840312156117b3576117b261149e565b5b60006117c184828501611788565b91505092915050565b60006060820190506117df6000830186611533565b6117ec6020830185611533565b6117f9604083018461146a565b949350505050565b61180a816115b6565b811461181557600080fd5b50565b60008151905061182781611801565b92915050565b6000602082840312156118435761184261149e565b5b600061185184828501611818565b91505092915050565b7f4e487b7100000000000000000000000000000000000000000000000000000000600052601160045260246000fd5b600061189482611460565b915061189f83611460565b92508282039050818111156118b7576118b661185a565b5b92915050565b60006118c882611460565b91506118d383611460565b92508282026118e181611460565b915082820484148315176118f8576118f761185a565b5b5092915050565b7f4e487b7100000000000000000000000000000000000000000000000000000000600052601260045260246000fd5b600061193982611460565b915061194483611460565b925082611954576119536118ff565b5b828204905092915050565b7f4e6f742061207374616b65720000000000000000000000000000000000000000600082015250565b6000611995600c836116f4565b91506119a08261195f565b602082019050919050565b600060208201905081810360008301526119c481611988565b9050919050565b7f4e6f7420417574686f7269736564000000000000000000000000000000000000600082015250565b6000611a01600e836116f4565b9150611a0c826119cb565b602082019050919050565b60006020820190508181036000830152611a30816119f4565b9050919050565b7f4e487b7100000000000000000000000000000000000000000000000000000000600052603260045260246000fd5b6000611a7182611460565b9150611a7c83611460565b9250828201905080821115611a9457611a9361185a565b5b92915050565b6000611aa582611460565b91507fffffffffffffffffffffffffffffffffffffffffffffffffffffffffffffffff8203611ad757611ad661185a565b5b600182019050919050565b7f416c726561647920536574000000000000000000000000000000000000000000600082015250565b6000611b18600b836116f4565b9150611b2382611ae2565b602082019050919050565b60006020820190508181036000830152611b4781611b0b565b9050919050565b7f4e487b7100000000000000000000000000000000000000000000000000000000600052602160045260246000fd5b7f496e76616c696420726172697479206c6576656c000000000000000000000000600082015250565b6000611bb36014836116f4565b9150611bbe82611b7d565b602082019050919050565b60006020820190508181036000830152611be281611ba6565b9050919050565b7f4f776e61626c653a206e6577206f776e657220697320746865207a65726f206160008201527f6464726573730000000000000000000000000000000000000000000000000000602082015250565b6000611c456026836116f4565b9150611c5082611be9565b604082019050919050565b60006020820190508181036000830152611c7481611c38565b9050919050565b7f4f776e61626c653a2063616c6c6572206973206e6f7420746865206f776e6572600082015250565b6000611cb16020836116f4565b9150611cbc82611c7b565b602082019050919050565b60006020820190508181036000830152611ce081611ca4565b9050919050565b600080fd5b6000601f19601f8301169050919050565b7f4e487b7100000000000000000000000000000000000000000000000000000000600052604160045260246000fd5b611d3582611cec565b810181811067ffffffffffffffff82111715611d5457611d53611cfd565b5b80604052505050565b6000611d67611494565b9050611d738282611d2c565b919050565b600067ffffffffffffffff821115611d9357611d92611cfd565b5b602082029050602081019050919050565b600080fd5b6000611dbc611db784611d78565b611d5d565b90508083825260208201905060208402830185811115611ddf57611dde611da4565b5b835b81811015611e085780611df48882611788565b845260208401935050602081019050611de1565b5050509392505050565b600082601f830112611e2757611e26611ce7565b5b8151611e37848260208601611da9565b91505092915050565b600060208284031215611e5657611e5561149e565b5b600082015167ffffffffffffffff811115611e7457611e736114a3565b5b611e8084828501611e12565b91505092915050565b600081519050611e98816114da565b92915050565b600081519050611ead816115ec565b92915050565b600080600080600060a08688031215611ecf57611ece61149e565b5b6000611edd88828901611788565b9550506020611eee88828901611e89565b9450506040611eff88828901611e9e565b9350506060611f1088828901611788565b9250506080611f2188828901611788565b915050929550929590935056fea2646970667358221220810e3d9353ccd46811a2ba1abe63b1697809bcc52205f9bd85384fbfd9efe74764736f6c63430008120033",
  "immutableReferences": {},
  "source": "// SPDX-License-Identifier: GPL-3.0-only\n// Author:- @sauravrao637\npragma solidity ^0.8.18;\n\nimport \"./CamoNFT.sol\";\nimport \"./CamoToken.sol\";\n\ncontract CamoStaking is Ownable {\n    struct Staker {\n        uint256 userJoinedTS;\n        uint256 reward;\n    }\n\n    uint256 public leftSupply;\n\n    mapping(address => Staker) stakers;\n    address[] stakingAddress;\n\n    uint256 public tier1Rate;\n    uint256 public tier2Rate = tier1Rate * 2;\n    uint256 public tier3Rate = tier1Rate * 3;\n    uint256 public tier4Rate = tier1Rate * 5;\n    uint256 public tier5Rate = tier1Rate * 8;\n\n    CamoToken public camoTokenAddress;\n\n    CamoNFT public camoNFTAddress;\n\n    address private serverAddress;\n\n    event StakedWallet(address indexed user);\n\n    event WithdrawnRewards(address indexed user, uint256 amount);\n\n    constructor(uint256 baseRewardRate) {\n        tier1Rate = baseRewardRate;\n    }\n\n    modifier onlyStaker() {\n        require(stakers[msg.sender].userJoinedTS > 0, \"Not a staker\");\n        _;\n    }\n\n    modifier onlyAuthorized() {\n        require(serverAddress == msg.sender, \"Not Authorised\");\n        _;\n    }\n\n    function getMax(uint256 a, uint256 b) internal pure returns (uint256) {\n        return a >= b ? a : b;\n    }\n\n    function setCamoNFTAddress(address _camoNFTAddress) public onlyOwner {\n        require(address(camoNFTAddress) == address(0), \"Already Set\");\n        camoNFTAddress = CamoNFT(_camoNFTAddress);\n    }\n\n    function setTokenAddressAndSendFunds(address _tokenAddress) public onlyOwner{\n        camoTokenAddress = CamoToken(_tokenAddress);\n        uint256 totalSupply = camoTokenAddress.MAX_SUPPLY();\n        camoTokenAddress.transferFrom(msg.sender, address(this), totalSupply);\n        leftSupply = totalSupply-1;\n    }\n\n    function setServerAddress(address _serverAddress) public onlyOwner{\n        serverAddress = _serverAddress;\n    }\n\n    function getSupplyRatio() public view returns (uint256) {\n        return (leftSupply * 10**18) / camoTokenAddress.MAX_SUPPLY();\n    }\n\n    function stakeWallet() public {\n        require(stakers[msg.sender].userJoinedTS == 0, \"Already Staked\");\n        stakers[msg.sender] = Staker(block.timestamp, 0);\n        stakingAddress.push(msg.sender);\n        emit StakedWallet(msg.sender);\n    }\n\n    function claimReward() public onlyStaker {\n        uint256 reward = stakers[msg.sender].reward;\n        camoTokenAddress.transferFrom(address(this), msg.sender, reward);\n    }\n\n    function getNftById(uint256 tokenId)\n        internal\n        view\n        returns (\n            uint256,\n            address,\n            CamoNFT.RarityLevel,\n            uint256,\n            uint256\n        )\n    {\n        return camoNFTAddress.nfts(tokenId);\n    }\n\n    function calculateIncentive(address _user) internal view returns (uint256) {\n        uint256 incentiveAmount = 0;\n        uint256[] memory tokens = camoNFTAddress.getOwnedTokens(_user);\n        for (uint256 i = 0; i < tokens.length; i++) {\n            (\n                ,\n                ,\n                CamoNFT.RarityLevel rarity,\n                uint256 entryTimestamp,\n                uint256 stakeClaimedTimeStamp\n            ) = getNftById(tokens[i]);\n            uint256 lastStaked = getMax(entryTimestamp, stakeClaimedTimeStamp);\n            uint256 holdingTime = ((block.timestamp - lastStaked));\n            uint256 rate = getRate(rarity);\n            incentiveAmount += (rate * holdingTime * 10**18)/ 60_000;\n        }\n        return incentiveAmount;\n    }\n\n    // Function to distribute incentives to all stakers based on the duration they hold the NFTs\n    function distributeIncentives() public onlyAuthorized {\n        uint256 total = 0;\n        uint256 currSupplyRatio = getSupplyRatio();\n        for (uint256 i = 0; i < stakingAddress.length; i++) {\n            address _user = stakingAddress[i];\n            uint256 reward = (currSupplyRatio * calculateIncentive(_user))/ 10**18;\n            camoNFTAddress.updateTimestamp(_user);\n            stakers[_user].reward += reward;\n            total += reward;\n        }\n        leftSupply -= total;\n    }\n\n    function getRate(CamoNFT.RarityLevel rarity) public view returns (uint256) {\n        if (rarity == CamoNFT.RarityLevel.Common) {\n            return tier1Rate;\n        } else if (rarity == CamoNFT.RarityLevel.Uncommon) {\n            return tier2Rate;\n        } else if (rarity == CamoNFT.RarityLevel.Rare) {\n            return tier3Rate;\n        } else if (rarity == CamoNFT.RarityLevel.Epic) {\n            return tier4Rate;\n        } else if (rarity == CamoNFT.RarityLevel.Legendary) {\n            return tier5Rate;\n        }\n        revert(\"Invalid rarity level\");\n    }\n    function getStaker(address _user) public view onlyOwner returns(Staker memory staker){\n        staker = stakers[_user];\n    }\n\n    function amIStaker() public view onlyStaker returns(bool){\n        return true;\n    }\n\n    function rewardAccumulated() public view onlyStaker returns(uint256){\n        return stakers[msg.sender].reward;\n    }\n}\n",
  "sourcePath": "C:\\Users\\asus\\Desktop\\Project\\DeveloperWeek-Hack\\packages\\truffle\\contracts\\CamoStaking.sol",
  "compiler": {
    "name": "solc",
    "version": "0.8.18+commit.87f61d96.Emscripten.clang"
  },
  "schemaVersion": "3.4.14",
  "updatedAt": "2023-06-17T18:20:58.716Z",
  "networkType": "ethereum",
  "devdoc": {
    "kind": "dev",
    "methods": {
      "owner()": {
        "details": "Returns the address of the current owner."
      },
      "renounceOwnership()": {
        "details": "Leaves the contract without owner. It will not be possible to call `onlyOwner` functions. Can only be called by the current owner. NOTE: Renouncing ownership will leave the contract without an owner, thereby disabling any functionality that is only available to the owner."
      },
      "transferOwnership(address)": {
        "details": "Transfers ownership of the contract to a new account (`newOwner`). Can only be called by the current owner."
      }
    },
    "version": 1
  },
  "userdoc": {
    "kind": "user",
    "methods": {},
    "version": 1
  }
}